{
  "contractName": "SpaceMembership",
  "abi": [
    {
      "inputs": [
        {
          "internalType": "address",
          "name": "voter",
          "type": "address"
        },
        {
          "internalType": "uint256",
          "name": "amount",
          "type": "uint256"
        },
        {
          "internalType": "uint256",
          "name": "proposalId",
          "type": "uint256"
        },
        {
          "internalType": "address",
          "name": "plugin",
          "type": "address"
        }
      ],
      "name": "onVoted",
      "outputs": [],
      "stateMutability": "nonpayable",
      "type": "function"
    },
    {
      "inputs": [
        {
          "internalType": "address",
          "name": "voter",
          "type": "address"
        },
        {
          "internalType": "uint256",
          "name": "amount",
          "type": "uint256"
        },
        {
          "internalType": "address",
          "name": "plugin",
          "type": "address"
        }
      ],
      "name": "onUnVoted",
      "outputs": [],
      "stateMutability": "nonpayable",
      "type": "function"
    },
    {
      "inputs": [
        {
          "internalType": "address",
          "name": "voter",
          "type": "address"
        },
        {
          "internalType": "uint256",
          "name": "amount",
          "type": "uint256"
        },
        {
          "internalType": "address",
          "name": "plugin",
          "type": "address"
        }
      ],
      "name": "beforeAction",
      "outputs": [],
      "stateMutability": "view",
      "type": "function"
    },
    {
      "inputs": [
        {
          "internalType": "address",
          "name": "holder",
          "type": "address"
        },
        {
          "internalType": "uint256",
          "name": "allocation",
          "type": "uint256"
        },
        {
          "internalType": "address",
          "name": "plugin",
          "type": "address"
        }
      ],
      "name": "addMember",
      "outputs": [],
      "stateMutability": "nonpayable",
      "type": "function"
    },
    {
      "inputs": [
        {
          "internalType": "address",
          "name": "plugin",
          "type": "address"
        }
      ],
      "name": "members",
      "outputs": [
        {
          "internalType": "address[]",
          "name": "",
          "type": "address[]"
        },
        {
          "internalType": "uint256[]",
          "name": "",
          "type": "uint256[]"
        }
      ],
      "stateMutability": "view",
      "type": "function"
    },
    {
      "inputs": [
        {
          "internalType": "uint256",
          "name": "proposalId",
          "type": "uint256"
        },
        {
          "internalType": "address",
          "name": "plugin",
          "type": "address"
        }
      ],
      "name": "distribute",
      "outputs": [],
      "stateMutability": "nonpayable",
      "type": "function"
    }
  ],
  "bytecode": "0x6080806040523461001657610570908161001c8239f35b600080fdfe608060408181526004908136101561001657600080fd5b600092833560e01c90816308ae4b0c146102a75750806309e1001d1461022b5780637852e4d7146101ae578063bb8a550514610102578063d1064469146100ed5763e1fa8b021461006657600080fd5b346100e957806003193601126100e9576024356001600160a01b03811691908290036100e4578392823b156100df578392602484928451958693849263278ecde160e01b84528035908401525af19081156100d657506100c35750f35b6100cc906104d6565b6100d35780f35b80fd5b513d84823e3d90fd5b505050fd5b600080fd5b8280fd5b83346100d3576100fc366104a2565b50505080f35b5090346100e957602061014b91610118366104a2565b865163ba60b6c360e01b81526001600160a01b039093169383019384526020840191909152909384928391829160400190565b03916001600160a01b03165afa9182156100d657508291610170575b50156100d35780f35b90506020813d82116101a6575b8161018a60209383610500565b810103126101a2575180151581036101a25738610167565b5080fd5b3d915061017d565b5090346100e95760803660031901126100e9576101c961048c565b6064356001600160a01b038181169492918590036100e4578486953b156102275785928360649286519788958694632a54a04f60e11b86521690840152602435602484015260443560448401525af19081156100d657506100c35750f35b8580fd5b50346100e9578261023b366104a2565b90916001600160a01b0390911690813b156102a35784516398041ea360e01b81526001600160a01b039091169581019586526020860192909252909384919082908490829060400103925af19081156100d65750610297575080f35b6102a0906104d6565b80f35b8380fd5b905083346100d357602090816003193601126100d3576001600160a01b03948190849081886102d461048c565b63bdd4d18d60e01b8352165afa9384156104825781938295610373575b509392909184519585879687019087528351809152826060880194019185905b8282106103565750505050848203818601528080855193848152019401925b82811061033f57505050500390f35b835185528695509381019392810192600101610330565b835181168652899850948401949284019260019190910190610311565b935093503d8082853e6103868185610500565b83019284818503126101a257805167ffffffffffffffff908181116102a35782019185601f840112156102a3578251926103bf84610522565b936103cc89519586610500565b808552868086019160051b8301019188831161047e578701905b82821061046257505050848101519182116102a357019380601f860112156100e957845161041381610522565b9561042088519788610500565b818752858088019260051b82010192831161045e5785809101915b83831061044e57505050509293866102f1565b825181529181019186910161043b565b8480fd5b81518b8116810361047a5781529087019087016103e6565b8780fd5b8680fd5b51903d90823e3d90fd5b600435906001600160a01b03821682036100e457565b60609060031901126100e4576001600160a01b0360043581811681036100e457916024359160443590811681036100e45790565b67ffffffffffffffff81116104ea57604052565b634e487b7160e01b600052604160045260246000fd5b90601f8019910116810190811067ffffffffffffffff8211176104ea57604052565b67ffffffffffffffff81116104ea5760051b6020019056fea2646970667358221220897181e914e0bf7fd44c035ac5724ed321f8de6c2dc5320c7e7b798d4774ae9364736f6c63430008110033",
  "immutableReferences": {},
  "source": "// SPDX-License-Identifier: MIT\r\npragma solidity ^0.8.17;\r\n\r\nimport \"./interfaces/IPlugin.sol\";\r\n\r\nimport \"./interfaces/IMembership.sol\";\r\n\r\ncontract SpaceMembership is IMembership {\r\n    function onVoted(\r\n        address voter,\r\n        uint256 amount,\r\n        uint256 proposalId,\r\n        address plugin\r\n    ) external override {\r\n        IPlugin(plugin).charge(voter, amount, proposalId);\r\n    }\r\n\r\n    function onUnVoted(\r\n        address voter,\r\n        uint256 amount,\r\n        address plugin\r\n    ) external override {}\r\n\r\n    function beforeAction(\r\n        address voter,\r\n        uint256 amount,\r\n        address plugin\r\n    ) external view override {\r\n        require(IPlugin(plugin).holding(voter, amount));\r\n    }\r\n\r\n    function addMember(\r\n        address holder,\r\n        uint256 allocation,\r\n        address plugin\r\n    ) external override {\r\n        IPlugin(plugin).addMember(holder, allocation);\r\n    }\r\n\r\n    function members(\r\n        address plugin\r\n    ) external view override returns (address[] memory, uint256[] memory) {\r\n        return IPlugin(plugin).members();\r\n    }\r\n\r\n    function distribute(uint256 proposalId, address plugin) external override {\r\n        IPlugin(plugin).refund(proposalId);\r\n    }\r\n}\r\n",
  "sourcePath": "C:\\Users\\DELL\\Documents\\space\\solidity\\contracts\\SpaceMembership.sol",
  "compiler": {
    "name": "solc",
    "version": "0.8.17+commit.8df45f5f.Emscripten.clang"
  },
  "schemaVersion": "3.4.11",
  "updatedAt": "2023-09-27T08:27:53.286Z",
  "devdoc": {
    "kind": "dev",
    "methods": {},
    "version": 1
  },
  "userdoc": {
    "kind": "user",
    "methods": {},
    "version": 1
  }
}