{
  "contractName": "Space",
  "abi": [
    {
      "inputs": [
        {
          "internalType": "string",
          "name": "metadata_",
          "type": "string"
        },
        {
          "internalType": "address",
          "name": "owner_",
          "type": "address"
        },
        {
          "internalType": "uint16",
          "name": "threshold_",
          "type": "uint16"
        },
        {
          "internalType": "uint256",
          "name": "minVoting_",
          "type": "uint256"
        },
        {
          "internalType": "uint256",
          "name": "minPropose_",
          "type": "uint256"
        },
        {
          "internalType": "uint64",
          "name": "minDuration_",
          "type": "uint64"
        },
        {
          "internalType": "bool",
          "name": "earlyExecution_",
          "type": "bool"
        },
        {
          "internalType": "address[]",
          "name": "plugins_",
          "type": "address[]"
        },
        {
          "internalType": "address",
          "name": "parentDao_",
          "type": "address"
        }
      ],
      "stateMutability": "nonpayable",
      "type": "constructor"
    },
    {
      "inputs": [
        {
          "internalType": "string",
          "name": "metadata_",
          "type": "string"
        },
        {
          "internalType": "uint256",
          "name": "startedOn_",
          "type": "uint256"
        },
        {
          "internalType": "uint256",
          "name": "endedOn_",
          "type": "uint256"
        },
        {
          "internalType": "uint256",
          "name": "treasuryAmount_",
          "type": "uint256"
        },
        {
          "internalType": "string",
          "name": "treasurySummary_",
          "type": "string"
        }
      ],
      "name": "createProposal",
      "outputs": [],
      "stateMutability": "nonpayable",
      "type": "function"
    },
    {
      "inputs": [
        {
          "internalType": "uint256",
          "name": "proposalId",
          "type": "uint256"
        },
        {
          "internalType": "enum Enums.VoteEntry",
          "name": "voteEntry",
          "type": "uint8"
        },
        {
          "internalType": "uint256",
          "name": "amount",
          "type": "uint256"
        }
      ],
      "name": "voteProposal",
      "outputs": [],
      "stateMutability": "nonpayable",
      "type": "function"
    },
    {
      "inputs": [
        {
          "internalType": "uint256",
          "name": "proposalId",
          "type": "uint256"
        },
        {
          "internalType": "string",
          "name": "summary",
          "type": "string"
        }
      ],
      "name": "executeProposal",
      "outputs": [],
      "stateMutability": "nonpayable",
      "type": "function"
    },
    {
      "inputs": [
        {
          "internalType": "address",
          "name": "plugin_",
          "type": "address"
        }
      ],
      "name": "registerPlugin",
      "outputs": [
        {
          "internalType": "bool",
          "name": "",
          "type": "bool"
        }
      ],
      "stateMutability": "nonpayable",
      "type": "function"
    },
    {
      "inputs": [
        {
          "internalType": "uint64",
          "name": "accessCode",
          "type": "uint64"
        }
      ],
      "name": "unRegisterPlugin",
      "outputs": [
        {
          "internalType": "bool",
          "name": "",
          "type": "bool"
        }
      ],
      "stateMutability": "nonpayable",
      "type": "function"
    },
    {
      "inputs": [],
      "name": "pause",
      "outputs": [],
      "stateMutability": "nonpayable",
      "type": "function"
    },
    {
      "inputs": [],
      "name": "upPause",
      "outputs": [],
      "stateMutability": "nonpayable",
      "type": "function"
    },
    {
      "inputs": [
        {
          "internalType": "uint64",
          "name": "accessCode",
          "type": "uint64"
        }
      ],
      "name": "getPlugin",
      "outputs": [
        {
          "internalType": "bool",
          "name": "",
          "type": "bool"
        },
        {
          "internalType": "address",
          "name": "",
          "type": "address"
        }
      ],
      "stateMutability": "view",
      "type": "function"
    },
    {
      "inputs": [
        {
          "internalType": "uint64",
          "name": "accessCode",
          "type": "uint64"
        }
      ],
      "name": "forcePlugin",
      "outputs": [
        {
          "internalType": "address",
          "name": "",
          "type": "address"
        }
      ],
      "stateMutability": "view",
      "type": "function"
    },
    {
      "inputs": [],
      "name": "metadata",
      "outputs": [
        {
          "internalType": "string",
          "name": "",
          "type": "string"
        }
      ],
      "stateMutability": "view",
      "type": "function"
    },
    {
      "inputs": [],
      "name": "childOf",
      "outputs": [
        {
          "internalType": "address",
          "name": "",
          "type": "address"
        }
      ],
      "stateMutability": "view",
      "type": "function"
    },
    {
      "inputs": [
        {
          "internalType": "address",
          "name": "newOwner",
          "type": "address"
        }
      ],
      "name": "transferTo",
      "outputs": [],
      "stateMutability": "nonpayable",
      "type": "function"
    },
    {
      "inputs": [],
      "name": "dao",
      "outputs": [
        {
          "internalType": "string",
          "name": "",
          "type": "string"
        },
        {
          "internalType": "address",
          "name": "",
          "type": "address"
        },
        {
          "internalType": "address",
          "name": "",
          "type": "address"
        },
        {
          "internalType": "address",
          "name": "",
          "type": "address"
        },
        {
          "internalType": "address",
          "name": "",
          "type": "address"
        },
        {
          "internalType": "address",
          "name": "",
          "type": "address"
        },
        {
          "internalType": "uint256",
          "name": "",
          "type": "uint256"
        },
        {
          "internalType": "bool",
          "name": "",
          "type": "bool"
        },
        {
          "internalType": "address",
          "name": "",
          "type": "address"
        }
      ],
      "stateMutability": "view",
      "type": "function"
    }
  ],
  "bytecode": "0x60806040908082523462000573576200432480380380916200002282856200058e565b833981019061012081830312620005735780516001600160401b0381116200057357810182601f82011215620005735780516001600160401b038111620003b057845190601f19926200007e602085601f85011601846200058e565b8183528560208383010111620005735760005b82811062000578575050602060009183010152620000b260208401620005b2565b92858101519261ffff841684036200057357606082015192608083015195620000de60a08501620005c7565b9760c0850151948515158603620005735760e08101516001600160401b038111620005735781019180601f8401121562000573578251926001600160401b038411620003b0578360051b908d51946200013b60208401876200058e565b85526020808601928201019283116200057357602001905b82821062000558575050506101006200016d9101620005b2565b600080546001600160a01b0319166001600160a01b039094169390931790925582516001600160401b038111620003b0576001948554948686811c961680156200054d575b6020871014620005375785601f889711620004dc575b50602091601f8411600114620004745750600091908362000468575b5050600019600383901b1c191690841b1783555b42600255600380546001600160a81b03191660089390931b610100600160a81b03169290921782556000925b620003d1575b505087519150610baa90508082016001600160401b03811183821017620003b05782916200377a833903906000f08015620003c657600580546001600160a01b0319166001600160a01b03929092169190911790558551946116d494858701936001600160401b03851188861017620003b05761ffff889660a098620016e089391685526020850152878401526001600160401b03166060830152151560808201520301906000f08015620003a557600680546001600160a01b0319166001600160a01b0392909216919091179055805161058c8082016001600160401b03811183821017620003b0578291620031ee833903906000f08015620003a557600780546001600160a01b0319166001600160a01b0392909216919091179055805161043a8082016001600160401b03811183821017620003b057829162002db4833903906000f08015620003a557600880546001600160a01b0319166001600160a01b039290921691909117905551610ff89081620006e88239f35b50513d6000823e3d90fd5b634e487b7160e01b600052604160045260246000fd5b86513d6000823e3d90fd5b8051831015620004625760018060a01b0360208460051b830101511660ff8354166200042e576200040290620005dc565b5060001983146200041857838093019262000224565b634e487b7160e01b600052601160045260246000fd5b8a5162461bcd60e51b815260206004820152600d60248201526c111053d7d254d7d4105554d151609a1b6044820152606490fd5b6200022a565b015190503880620001e4565b6000878152602081209392918516905b818110620004c357509084889594939210620004a9575b505050811b018355620001f8565b015160001960f88460031b161c191690553880806200049b565b8284015185558998909401936020938401930162000484565b9091929394956000526020600020601f850160051c810191602086106200052c575b90601f89989796959493920160051c01905b8181106200051f5750620001c8565b6000815588970162000510565b9091508190620004fe565b634e487b7160e01b600052602260045260246000fd5b95607f1695620001b2565b602080916200056784620005b2565b81520191019062000153565b600080fd5b8060208092840101518282870101520162000091565b601f909101601f19168101906001600160401b03821190821017620003b057604052565b51906001600160a01b03821682036200057357565b51906001600160401b03821682036200057357565b6001600160a01b0390811660008115620006e157604051639a1789e560e01b8152602093908481600481875afa908115620006d657839162000695575b506001600160401b0316825260048452604082205416156200067a5760405162461bcd60e51b815260048101849052601760248201527f554e52454749535445525f504c5547494e5f46495253540000000000000000006044820152606490fd5b6040902080546001600160a01b031916909117905550600190565b90508481813d8311620006ce575b620006af81836200058e565b81010312620006ca57620006c390620005c7565b3862000619565b8280fd5b503d620006a3565b6040513d85823e3d90fd5b9150509056fe6040608081526004908136101561001557600080fd5b600091823560e01c9081630eb2189e14610c1a578382632210c38414610a2d57508163392f37e9146109f85781634162169f1461096757816351a4b38e1461090b5781638456cb59146108d95781638985f94e146108865781638d684f76146105905781639545850f146101a9578163a03fa7e31461015a578163bab7957e1461011557508063ce4fefc2146100e35763f1fb8a98146100b457600080fd5b346100df57816003193601126100df57600354905160089190911c6001600160a01b03168152602090f35b5080fd5b823461011257806003193601126101125780546001600160a01b031633036101125760ff196003541660035580f35b80fd5b8284346101125760203660031901126101125782359267ffffffffffffffff84168094036100df5792815260209283528190205490516001600160a01b039091168152f35b8390346100df5760203660031901126100df57356001600160a01b03818116918290036101a55782541633036100df576bffffffffffffffffffffffff60a01b600054161760005580f35b8280fd5b8383346100df5760a03660031901126100df5767ffffffffffffffff90833582811161058c576101dc9036908601610cb8565b93608435838111610588576101f49036908301610cb8565b61020360ff6003541615610d4f565b82516020918282018281108782111761057357855286825284519761012096878a019081118a82101761055e5791859391879384528a52848a0191428352838b019a6024358c52606081016044358152608082018c815260a083019133835260c0840194855260e084019e8f606435905261010085019687526102b160018060a01b039e8f968d88600654169c519d8e63fb87069560e01b81520152519060248d01526101448c0190610d0f565b975160448b01525160648a01525160848901525160a4880152511660c4860152519960231992838682030160e487015286808d5192838152019c01908b5b81811061054857505050898561031f829d82968a9896849651610104860152519084830301610124850152610d0f565b03925af1801561053e57610511575b506103e860005260046020527f290f3bb17f303edd0f106ab04bdb0515d193106e8c2b48d993115d216da01cb1546001600160a01b0316610416575b506103eb60005260046020527f1b84f6af436db5c331ae1833ed116ed7356a9fe5b70b87d8e5d507ff943441c5546001600160a01b0316806103aa578480f35b8360085416803b156104125785928360649286519788958694635622a36560e11b86523390860152600160248601521660448401525af190811561040957506103f5575b8080808480f35b6103fe90610c6c565b6101125780826103ee565b513d84823e3d90fd5b8580fd5b818460075416918086600654168651938480926392b3584b60e01b82525afa9182156105075787926104d0575b5083906103e8885252848487205416823b156104cc57845163bb8a550560e01b81523385820190815260208101939093526001600160a01b0390911660408301529186918391908290819060600103915afa80156104c2579085916104a9575b5061036a565b6104b290610c6c565b6104bd5783866104a3565b505050fd5b83513d87823e3d90fd5b8680fd5b809750818093503d8311610500575b6104e98183610c96565b810103126104fb579451869583610443565b600080fd5b503d6104df565b85513d89823e3d90fd5b818096503d8311610537575b6105278183610c96565b810103126104fb5784938661032e565b503d61051d565b84513d88823e3d90fd5b82518c168e529c88019c918801916001016102ef565b604186634e487b7160e01b6000525260246000fd5b604185634e487b7160e01b6000525260246000fd5b8480fd5b8380fd5b839150346100df5760603660031901126100df5780359260243591600383101561058c576044356105c660ff6003541615610d4f565b6006546001600160a01b039490851690813b156104cc5786916064839287519485938492635ed3583760e11b84528d8a85015233602485015260448401525af1801561053e57908691610872575b50506103e860005260046020527f290f3bb17f303edd0f106ab04bdb0515d193106e8c2b48d993115d216da01cb1546001600160a01b031690816106e3575b50506103eb60005260046020527f1b84f6af436db5c331ae1833ed116ed7356a9fe5b70b87d8e5d507ff943441c55493945084936001600160a01b031680610699578480f35b8360085416803b15610412578592836064928651978895869463ee38d08560e01b86523390860152600160248601521660448401525af190811561040957506103f5578080808480f35b8460065416968451809863948ad00160e01b8252818660209b8c935afa90811561086857889161083b575b5082106107f8578697848760075416916103e88a5252868689205416813b156107f457865163bb8a550560e01b815233878201908152602081018690526001600160a01b039092166040830152908990829081906060010381855afa80156107ea579089916107d6575b5050803b156107d2578792836084928989519788968795637852e4d760e01b8752338c880152602487015260448601521660648401525af180156104c25790859115610653576107c790610c6c565b6104bd578386610653565b8780fd5b6107df90610c6c565b6107d257878a610778565b87513d8b823e3d90fd5b8880fd5b845162461bcd60e51b8152808501899052601960248201527f494e53554646494349454e545f564f54494e475f504f574552000000000000006044820152606490fd5b90508881813d8311610861575b6108528183610c96565b810103126104fb57518961070e565b503d610848565b86513d8a823e3d90fd5b61087b90610c6c565b610588578487610614565b905082346101125760203660031901126101125781359067ffffffffffffffff82168092036101125750600090815260209182528290205482516001600160a01b03909116801515825291810191909152f35b833461011257806003193601126101125780546001600160a01b0316330361011257600160ff19600354161760035580f35b9050346101a55760203660031901126101a55735916001600160a01b0380841684036100df578154163303610112575061095e60209261095960ff600354161561095481610d4f565b610d4f565b610d8b565b90519015158152f35b5050346100df57816003193601126100df576109c29160018060a01b03809154169080600554168160065416826008541683600754169060025492600354946109ae610eda565b9880519a8b9a610120808d528c0190610d0f565b9860208b01528901526060880152608087015260a086015260c085015260ff8116151560e085015260081c166101008301520390f35b5050346100df57816003193601126100df57610a2990610a16610eda565b9051918291602083526020830190610d0f565b0390f35b9150346100df57826003193601126100df5780359260243567ffffffffffffffff811161058c57610a619036908401610cb8565b83546001600160a01b039081163303610588578493816006541696845197630d61b51960e01b895281838a01528860248160209a8b945af1908115610c105787988798969792610bdf575b506103e860005260046020527f290f3bb17f303edd0f106ab04bdb0515d193106e8c2b48d993115d216da01cb1546001600160a01b031680610b6c575b505095606091610b1c978460055416948354168851998a978896879563991e0b0b60e01b87528601526064850190610d0f565b916024840152604483015203925af1908115610b635750610b3b578280f35b813d8311610b5c575b610b4e8183610c96565b810103126104fb5738808280f35b503d610b44565b513d85823e3d90fd5b9092949697919380965060075416803b156101a5578693836044928b5196879586946370fd458160e11b86528b8601521660248401525af1801561086857610bbd575b918693918389979694610ae9565b869391610b1c96959398610bd2606093610c6c565b9893959650919350610baf565b8681979293503d8311610c09575b610bf78183610c96565b810103126104cc578794519038610aac565b503d610bed565b85513d88823e3d90fd5b9050346101a55760203660031901126101a557359167ffffffffffffffff831683036101125780546001600160a01b03163303610112575061095e602092610c6760ff6003541615610d4f565b610e97565b67ffffffffffffffff8111610c8057604052565b634e487b7160e01b600052604160045260246000fd5b90601f8019910116810190811067ffffffffffffffff821117610c8057604052565b81601f820112156104fb5780359067ffffffffffffffff8211610c805760405192610ced601f8401601f191660200185610c96565b828452602083830101116104fb57816000926020809301838601378301015290565b919082519283825260005b848110610d3b575050826000602080949584010152601f8019910116010190565b602081830181015184830182015201610d1a565b15610d5657565b60405162461bcd60e51b815260206004820152600d60248201526c111053d7d254d7d4105554d151609a1b6044820152606490fd5b6001600160a01b0390811660008115610e9157604051639a1789e560e01b8152602093908481600481875afa8015610e86578390610e40575b67ffffffffffffffff168352506004845260408220541615610e255760405162461bcd60e51b815260048101849052601760248201527f554e52454749535445525f504c5547494e5f46495253540000000000000000006044820152606490fd5b6040902080546001600160a01b031916909117905550600190565b508481813d8311610e7f575b610e568183610c96565b810103126101a5575167ffffffffffffffff811681036101a55767ffffffffffffffff90610dc4565b503d610e4c565b6040513d85823e3d90fd5b91505090565b67ffffffffffffffff166000908152600460205260409020546001600160a01b0316610ec257600090565b604060002080546001600160a01b0319169055600190565b60405190600060019081549182811c90808416938415610fb8575b6020948584108114610fa45783885287949392918115610f845750600114610f28575b5050610f2692500383610c96565b565b60008181527fb10e2d527612073b26eecdfd717e6a320cf44b4afac2b0732d9fcbe2b7fa0cf695935091905b818310610f6c575050610f2693508201013880610f18565b85548884018501529485019487945091830191610f54565b915050610f2694925060ff191682840152151560051b8201013880610f18565b634e487b7160e01b85526022600452602485fd5b91607f1691610ef556fea2646970667358221220f73d6f4ca79e49aa31a31dc672bfb60794ca00b0565634683f0cfdd226e01bf964736f6c63430008110033608034610111576001600160401b03601f6116d438819003918201601f1916840191838311858410176101165780859260a0946040528339810103126101115781519061ffff8216820361011157602083015192604081015190606081015192831680930361011157608001518015158091036101115760015460008054336001600160a01b03198216811783556040519868ff00000000000000009694909390926001600160a01b0316907f8be0079c531659141344cd1fd0a4f28419497f9722a3daafe3b4186f6b6457e09080a36004549661ffff60a01b9060a01b169060018060b01b0319161760015560025560035560401b169160018060481b03191617176004556115a7908161012d8239f35b600080fd5b634e487b7160e01b600052604160045260246000fdfe6080604052600436101561001257600080fd5b60003560e01c80630d61b51914610f9c5780631c6d088d14610e365780633c59405914610e0557806342cde4e814610de05780635671576114610db9578063715018a614610d5457806379ba509714610c915780637e7b1d4214610c6b5780638da5cb5b14610c4257806392b3584b14610c24578063948ad00114610c06578063a07bd40014610bcb578063bda6b06e1461099c578063c1292cc31461097e578063c7f758a8146107cc578063e30c3978146107a3578063f2fde38b14610735578063fb870695146101d45763fdd27543146100ed57600080fd5b346101cf5760403660031901126101cf57600435610109611153565b90610112611267565b6000818152600660208181526040808420600783528185206001600160a01b039788168087529352908420805460ff1916905590910193915b845481101561019d578083808461016561017c958a61132c565b929054600393841b1c1614610181575b505061131d565b61014b565b61018b838961132c565b81939154921b1b191690558338610175565b7fc6144a45e022cb94c4885caaa3891357ba846b3180269552533eab99e88dd9076040838682519182526020820152a1005b600080fd5b346101cf576003196020368201126101cf576001600160401b03600435116101cf576101208091600435360301126101cf576040519081018181106001600160401b038211176105c857604052600435600401356001600160401b0381116101cf576102479060043691813501016111fa565b8152600435602481013560208301526044810135604083015260648101356060830152608481013560808301526102809060a401611169565b60a082015260c460043501356001600160401b0381116101cf5736602382600435010112156101cf5760048181350101356102ba81611250565b916102c860405193846111d9565b81835260208301903660248460051b83600435010101116101cf57906024826004350101915b60248460051b82600435010101831061071957858560c082015260e4600435013560e082015261010460043501356001600160401b0381116101cf5761033b9060043691813501016111fa565b610100820152610349611267565b6001600554019081600555606081015160408201518103908111610703576001600160401b03600454169062015180918083029283040361070357106106be5781600052600660205260406000209181519283516001600160401b0381116105c8576103b582546112bf565b601f811161068c575b506020601f8211600114610623578192939495600092610618575b50508160011b916000199060031b1c19161781555b602083015160018201556040830151600282015560608301516003820155608083015160048201556005810160018060a01b0360a0850151166001600160601b0360a01b82541617905560c08301518051906001600160401b0382116105c857600160401b82116105c8576020600684019182548484558085106105fb575b500190600052602060002060005b8381106105de5760e0870151600786015561010087015180519087600888016001600160401b0384116105c8576020936104b582546112bf565b601f811161058d575b508493601f821160011461052a57938192939460009261051f575b50508160011b916000199060031b1c19161790555b7fc2c021f5d73c63c481d336fbbafec58f694fc45095f00b02d2deb8cca59afe0782604051838152a1604051908152f35b0151905085806104d9565b601f1982169483600052866000209160005b87811061057657508360019596971061055d575b505050811b0190556104ee565b015160001960f88460031b161c19169055858080610550565b91928860018192868501518155019401920161053c565b6105b8908360005286600020601f840160051c8101918885106105be575b601f0160051c01906112f9565b856104be565b90915081906105ab565b634e487b7160e01b600052604160045260246000fd5b82516001600160a01b03168183015560209092019160010161047b565b6106129084600052858460002091820191016112f9565b8761046d565b0151905085806103d9565b8260005260206000209060005b601f1984168110610674575060019394959683601f1981161061065b575b505050811b0181556103ee565b015160001960f88460031b161c1916905585808061064e565b9091602060018192858b015181550193019101610630565b6106b890836000526020600020601f840160051c810191602085106105be57601f0160051c01906112f9565b856103be565b60405162461bcd60e51b815260206004820152601760248201527f564f54494e475f504552494f445f544f4f5f53484f52540000000000000000006044820152606490fd5b634e487b7160e01b600052601160045260246000fd5b60208060249361072886611169565b81520193019291506102ee565b346101cf5760203660031901126101cf576004356001600160a01b03818116918290036101cf57610764611267565b816001600160601b0360a01b6001541617600155600054167f38d16b8cac22d99fc7c124b9cd0de2d3fa1faef420bfe791d8c362d765e22700600080a3005b346101cf5760003660031901126101cf576001546040516001600160a01b039091168152602090f35b346101cf5760203660031901126101cf5760606101006040516107ee816111bd565b828152600060208201526000604082015260008382015260006080820152600060a08201528260c0820152600060e08201520152600435600052600660205260406000206108ab600860405192610844846111bd565b61084d8161135a565b84526001810154602085015260028101546040850152600381015460608501526004810154608085015260058101546001600160a01b031660a085015261089660068201611400565b60c0850152600781015460e08501520161135a565b610100820152604051602081526108d08251610120602084015261014083019061117d565b602083015160408301526040830151606083015260608301516080830152608083015160a083015260018060a01b0360a08401511660c083015260c083015192601f1991828482030160e08501526020808651928381520195019060005b81811061095f57858061095b89886101008960e0810151828701520151908483030161012085015261117d565b0390f35b82516001600160a01b031687526020968701969092019160010161092e565b346101cf5760003660031901126101cf576020600554604051908152f35b346101cf5760603660031901126101cf576004356109b8611153565b906044803591600392838110156101cf576109d1611267565b81600052602091600683526040600020926002840154421115610b8f5742868501541115610b59576004840154610b165760069390930180546001600160a01b039788169591949160005b828110610abc5750505081600052600781526040600020856000528152604060002060ff1981541660ff8516179055835496600160401b8810156105c85785606097610a928a610ab99860017f4c68323514d6b86d416ee2a5e60ce9be8500a4df7577ee6078da86f2934421589d01815561132c565b81949154921b90811b9283911b169119161790556040519485528401526040830190611146565ba1005b878a610ac8838a61132c565b9054908c1b1c1614610ae257610add9061131d565b610a1c565b60405162461bcd60e51b815260048101859052600d60248201526c1053149150511657d593d51151609a1b81840152606490fd5b6064907f50524f504f53414c5f4841535f4245454e5f4558454355544544000000000000866040519262461bcd60e51b84526004840152601a6024840152820152fd5b6064906f1593d5125391d7d21054d7d15391115160821b866040519262461bcd60e51b8452600484015260106024840152820152fd5b606490751593d5125391d7d21054d7d393d517d4d5105495115160521b866040519262461bcd60e51b8452600484015260166024840152820152fd5b346101cf5760203660031901126101cf57610be4611267565b6004356000526006602052600360406000200180544211610c0157005b429055005b346101cf5760003660031901126101cf576020600254604051908152f35b346101cf5760003660031901126101cf576020600354604051908152f35b346101cf5760003660031901126101cf576000546040516001600160a01b039091168152602090f35b346101cf5760003660031901126101cf57602060ff60045460401c166040519015158152f35b346101cf5760003660031901126101cf576001546001600160a01b033381831603610cfd576001600160601b0360a01b8092166001556000549133908316176000553391167f8be0079c531659141344cd1fd0a4f28419497f9722a3daafe3b4186f6b6457e0600080a3005b60405162461bcd60e51b815260206004820152602960248201527f4f776e61626c6532537465703a2063616c6c6572206973206e6f7420746865206044820152683732bb9037bbb732b960b91b6064820152608490fd5b346101cf5760003660031901126101cf57610d6d611267565b600180546001600160a01b0319908116909155600080549182168155906001600160a01b03167f8be0079c531659141344cd1fd0a4f28419497f9722a3daafe3b4186f6b6457e08280a3005b346101cf5760003660031901126101cf5760206001600160401b0360045416604051908152f35b346101cf5760003660031901126101cf57602061ffff60015460a01c16604051908152f35b346101cf5760203660031901126101cf576060610e2360043561146c565b9060405192835260208301526040820152f35b346101cf576020806003193601126101cf576004358060005260068252610e636006604060002001611400565b805192610e88610e7285611250565b94610e8060405196876111d9565b808652611250565b8482019390601f190136853760005b8351811015610f0957600082815260078452604090206001600160a01b03610ebf8387611458565b5116600052835260ff6040600020541690610eda8188611458565b916003811015610ef357610eee925261131d565b610e97565b634e487b7160e01b600052602160045260246000fd5b50506040805181815283519181018290529485949360608601929084019060005b818110610f7c575050508482038584015251808252908201929160005b828110610f5657505050500390f35b9193839550908082610f6c600194839751611146565b0195019101918594939192610f47565b82516001600160a01b031685528897509385019391850191600101610f2a565b346101cf576020806003193601126101cf57600435610fb9611267565b806000526006825260406000209060048201805461110e57610fea90610fef610fe18461146c565b91949085611310565b611310565b9060ff60045460401c16156110c9575b60038501805442116110c0575b504290556064820291808304606414901517156107035780156110aa5761ffff60015460a01c1691041061107157907f712ae1383f79ac853f8d882153778e0260ef8f03b504e2866e0593e04d2b291f83600793604051908152a10154604051908152f35b60405162461bcd60e51b81526004810184905260116024820152701512149154d213d31117d393d517d35155607a1b6044820152606490fd5b634e487b7160e01b600052601260045260246000fd5b4290558661100c565b60038501544211610fff5760405162461bcd60e51b8152600481018790526012602482015271141493d413d4d05317d393d517d15391115160721b6044820152606490fd5b60405162461bcd60e51b815260048101859052601060248201526f1053149150511657d1561150d555115160821b6044820152606490fd5b906003821015610ef35752565b602435906001600160a01b03821682036101cf57565b35906001600160a01b03821682036101cf57565b919082519283825260005b8481106111a9575050826000602080949584010152601f8019910116010190565b602081830181015184830182015201611188565b61012081019081106001600160401b038211176105c857604052565b90601f801991011681019081106001600160401b038211176105c857604052565b81601f820112156101cf578035906001600160401b0382116105c8576040519261122e601f8401601f1916602001856111d9565b828452602083830101116101cf57816000926020809301838601378301015290565b6001600160401b0381116105c85760051b60200190565b6000546001600160a01b0316330361127b57565b606460405162461bcd60e51b815260206004820152602060248201527f4f776e61626c653a2063616c6c6572206973206e6f7420746865206f776e65726044820152fd5b90600182811c921680156112ef575b60208310146112d957565b634e487b7160e01b600052602260045260246000fd5b91607f16916112ce565b818110611304575050565b600081556001016112f9565b9190820180921161070357565b60001981146107035760010190565b80548210156113445760005260206000200190600090565b634e487b7160e01b600052603260045260246000fd5b906040519182600082549261136e846112bf565b9081845260019485811690816000146113dd575060011461139a575b5050611398925003836111d9565b565b9093915060005260209081600020936000915b8183106113c55750506113989350820101388061138a565b855488840185015294850194879450918301916113ad565b91505061139894506020925060ff191682840152151560051b820101388061138a565b9060405191828154918282526020928383019160005283600020936000905b82821061143557505050611398925003836111d9565b85546001600160a01b03168452600195860195889550938101939091019061141f565b80518210156113445760209160051b010190565b9060009160008080838152602060068152604061148d600682852001611400565b83985b81518a1015611566576001600160a01b036114ab8b84611458565b5116888652600790818652848720818852865260ff908186892054169260039384811015611552576114f357505050506114e76114ed9161131d565b9961131d565b98611490565b8b899e9b959e528752858820908852865284872054169081101561153e5760010361152a576115246114ed9161131d565b9661131d565b95946115386114ed9161131d565b9561131d565b634e487b7160e01b86526021600452602486fd5b634e487b7160e01b8a52602160045260248afd5b98505050505091509156fea2646970667358221220a188614aebfdfe7c60eeece3837a7a6e2d4b790041c3833a9240d182e067698664736f6c63430008110033608080604052346100165761041e908161001c8239f35b600080fdfe60806040818152600436101561001457600080fd5b600090813560e01c92836308ae4b0c146100ec575082630d4d15131461006d5750508063ac4546ca14610064578063d1064469146100645763ee38d0851461005c575b600080fd5b61005761030e565b5061005761030e565b8190346100e95761007d366102da565b9193916001600160a01b0316803b156100e55783516398041ea360e01b81526001600160a01b0395909516600486015260248501919091528390604490829084905af19081156100dc57506100d0575080f35b6100d990610384565b80f35b513d84823e3d90fd5b8280fd5b50fd5b346100e5576020806003193601126102a8576001600160a01b0393600435858116908190036102cc5783600481849363bdd4d18d60e01b82525afa9384156102d057819382956101b9575b509392909184519585879687019087528351809152826060880194019185905b82821061019c5750505050848203818601528080855193848152019401925b82811061018557505050500390f35b835185528695509381019392810192600101610176565b835181168652899850948401949284019260019190910190610157565b935093503d8082853e6101cc81856103ae565b83019284818503126102cc57805167ffffffffffffffff908181116102a85782019185601f840112156102a857825192610205846103d0565b93610212895195866103ae565b808552868086019160051b830101918883116102c8578701905b8282106102ac57505050848101519182116102a857019380601f860112156100e5578451610259816103d0565b95610266885197886103ae565b818752858088019260051b8201019283116102a45785809101915b8383106102945750505050929386610137565b8251815291810191869101610281565b8480fd5b8380fd5b81518b811681036102c457815290870190870161022c565b8780fd5b8680fd5b5080fd5b51903d90823e3d90fd5b6060906003190112610057576001600160a01b03600435818116810361005757916024359160443590811681036100575790565b50346100575761031d366102da565b6001600160a01b03169190823b15610057576040516310b3879160e11b81526001600160a01b039290921660048301526024820152906000908290604490829084905af180156103785761036d57005b61037690610384565b005b6040513d6000823e3d90fd5b67ffffffffffffffff811161039857604052565b634e487b7160e01b600052604160045260246000fd5b90601f8019910116810190811067ffffffffffffffff82111761039857604052565b67ffffffffffffffff81116103985760051b6020019056fea2646970667358221220258b210786b29298b4e41435bb8b97491f57f3c7dcaa2e5d772e15a1b54ba06064736f6c634300081100336080806040523461001657610570908161001c8239f35b600080fdfe608060408181526004908136101561001657600080fd5b600092833560e01c90816308ae4b0c146102a75750806309e1001d1461022b5780637852e4d7146101ae578063bb8a550514610102578063d1064469146100ed5763e1fa8b021461006657600080fd5b346100e957806003193601126100e9576024356001600160a01b03811691908290036100e4578392823b156100df578392602484928451958693849263278ecde160e01b84528035908401525af19081156100d657506100c35750f35b6100cc906104d6565b6100d35780f35b80fd5b513d84823e3d90fd5b505050fd5b600080fd5b8280fd5b83346100d3576100fc366104a2565b50505080f35b5090346100e957602061014b91610118366104a2565b865163ba60b6c360e01b81526001600160a01b039093169383019384526020840191909152909384928391829160400190565b03916001600160a01b03165afa9182156100d657508291610170575b50156100d35780f35b90506020813d82116101a6575b8161018a60209383610500565b810103126101a2575180151581036101a25738610167565b5080fd5b3d915061017d565b5090346100e95760803660031901126100e9576101c961048c565b6064356001600160a01b038181169492918590036100e4578486953b156102275785928360649286519788958694632a54a04f60e11b86521690840152602435602484015260443560448401525af19081156100d657506100c35750f35b8580fd5b50346100e9578261023b366104a2565b90916001600160a01b0390911690813b156102a35784516398041ea360e01b81526001600160a01b039091169581019586526020860192909252909384919082908490829060400103925af19081156100d65750610297575080f35b6102a0906104d6565b80f35b8380fd5b905083346100d357602090816003193601126100d3576001600160a01b03948190849081886102d461048c565b63bdd4d18d60e01b8352165afa9384156104825781938295610373575b509392909184519585879687019087528351809152826060880194019185905b8282106103565750505050848203818601528080855193848152019401925b82811061033f57505050500390f35b835185528695509381019392810192600101610330565b835181168652899850948401949284019260019190910190610311565b935093503d8082853e6103868185610500565b83019284818503126101a257805167ffffffffffffffff908181116102a35782019185601f840112156102a3578251926103bf84610522565b936103cc89519586610500565b808552868086019160051b8301019188831161047e578701905b82821061046257505050848101519182116102a357019380601f860112156100e957845161041381610522565b9561042088519788610500565b818752858088019260051b82010192831161045e5785809101915b83831061044e57505050509293866102f1565b825181529181019186910161043b565b8480fd5b81518b8116810361047a5781529087019087016103e6565b8780fd5b8680fd5b51903d90823e3d90fd5b600435906001600160a01b03821682036100e457565b60609060031901126100e4576001600160a01b0360043581811681036100e457916024359160443590811681036100e45790565b67ffffffffffffffff81116104ea57604052565b634e487b7160e01b600052604160045260246000fd5b90601f8019910116810190811067ffffffffffffffff8211176104ea57604052565b67ffffffffffffffff81116104ea5760051b6020019056fea2646970667358221220897181e914e0bf7fd44c035ac5724ed321f8de6c2dc5320c7e7b798d4774ae9364736f6c634300081100336080806040523461006357600180546001600160a01b03199081169091556000805433928116831782556001600160a01b0316907f8be0079c531659141344cd1fd0a4f28419497f9722a3daafe3b4186f6b6457e09080a3610b4190816100698239f35b600080fdfe60806040908082526004908136101561001757600080fd5b600092833560e01c91826337a7b7d81461070557508163715018a6146106a057816379ba5097146105e057816380bd542e146103985781638da5cb5b14610370578163991e0b0b14610306578163c1292cc3146102e7578163c8691b2a1461012e578163e30c397814610105575063f2fde38b1461009457600080fd5b3461010157602036600319011261010157356001600160a01b03818116918290036100fd576100c16107d7565b600180546001600160a01b031916831790558254167f38d16b8cac22d99fc7c124b9cd0de2d3fa1faef420bfe791d8c362d765e227008380a380f35b8280fd5b5080fd5b83903461010157816003193601126101015760015490516001600160a01b039091168152602090f35b905082346102e457602080600319360112610101578160a0845161015181610727565b8281528284820152606086820152826060820152826080820152015283358252600581528282209280519361018585610727565b805485526001958682015492848701938452600283019080519187998154916101ad8361082f565b808652928281169081156102c15750600114610288575b5050509291906101dc816005969a9998990382610759565b8387019081526003830154916060880192835260018060a01b0395868092860154169460808a019586520154169360a088019485528051998a98888a5251888a01525190880152519460c060608801528551958660e0890152885b8781106102705750505061010085870181019790975251608086015251821660a0850152511660c0830152601f01601f19168101030190f35b8181018301518b820161010001528a98508201610237565b8952878920989a508a985b828c106102ae575050509781018501976101dc8260056101c4565b8054858d018a01529a88019a8101610293565b60ff1916868b01525050501515600590811b8301870199506101dc9083906101c4565b80fd5b919050346100fd57826003193601126100fd5760209250549051908152f35b919050346100fd5760603660031901126100fd5780359067ffffffffffffffff821161036c576103389136910161077b565b604435926001600160a01b03841684036102e457506020926103659161035c6107d7565b60243590610869565b9051908152f35b8380fd5b839034610101578160031936011261010157905490516001600160a01b039091168152602090f35b839150602092836003193601126100fd5767ffffffffffffffff928135848111610101576103c9903690840161077b565b9160019283825401958683558551946103e186610727565b348652888601924284528787019081526060870191868352608088019333855260a08901953087528b895260058d528a892099518a5551828a015560028901925180519182116105cd578c610436855461082f565b601f8111610585575b50508c908d601f841160011461052257509282939183928b94610517575b50501b916000199060031b1c19161790555b51600386015582850190600560018060a01b03968780935116936bffffffffffffffffffffffff60a01b9485825416179055019251169082541617905560025490348201809211610504575060025554825191166001600160a01b031681523460208201527fda1785fe1dec267c363b06ae3e02c3e086123f9d611399f7a1cc98492518372e9080604081010390a151908152f35b634e487b7160e01b835260119052602482fd5b015192508e8061045d565b919083601f198116878d52848d20948d905b8883831061056b5750505010610552575b505050811b01905561046f565b015160001960f88460031b161c191690558c8080610545565b858701518855909601959485019487935090810190610534565b858b52818b2090601f850160051c82019285106105c3575b601f0160051c019084905b8281106105b857508e915061043f565b8b81550184906105a8565b909150819061059d565b634e487b7160e01b895260418852602489fd5b9050346100fd57826003193601126100fd57600154916001600160a01b0391338385160361064b5750506001600160a01b031991821660015582543392811683178455167f8be0079c531659141344cd1fd0a4f28419497f9722a3daafe3b4186f6b6457e08380a380f35b906020608492519162461bcd60e51b8352820152602960248201527f4f776e61626c6532537465703a2063616c6c6572206973206e6f7420746865206044820152683732bb9037bbb732b960b91b6064820152fd5b83346102e457806003193601126102e4576106b96107d7565b600180546001600160a01b03199081169091558154908116825581906001600160a01b03167f8be0079c531659141344cd1fd0a4f28419497f9722a3daafe3b4186f6b6457e08280a380f35b84346102e457806003193601126102e457506002546003549082526020820152f35b60c0810190811067ffffffffffffffff82111761074357604052565b634e487b7160e01b600052604160045260246000fd5b90601f8019910116810190811067ffffffffffffffff82111761074357604052565b81601f820112156107d25780359067ffffffffffffffff821161074357604051926107b0601f8401601f191660200185610759565b828452602083830101116107d257816000926020809301838601378301015290565b600080fd5b6000546001600160a01b031633036107eb57565b606460405162461bcd60e51b815260206004820152602060248201527f4f776e61626c653a2063616c6c6572206973206e6f7420746865206f776e65726044820152fd5b90600182811c9216801561085f575b602083101461084957565b634e487b7160e01b600052602260045260246000fd5b91607f169161083e565b918115610b03576001600481815401948582558460025410610ac9579085929160405161089581610727565b86815260209384820194428652604083019384526060830192828452608081019330855260a082019560018060a01b0394858c16998a895260009b8c526005865260408c209451855551818501556002840191519081519167ffffffffffffffff8311610ab6578c87610908865461082f565b91601f8311610a6e575b9150505086908d601f8511600114610a0257600598509284929091836109f7575b50501b916000199060031b1c19161790555b51600382015582868201945116936bffffffffffffffffffffffff60a01b94858254161790550192511690825416179055600254908582039182116109e457508280868194829460025582f1156109d85750604080516001600160a01b0392909216825260208201929092527fcb5c61dfad2463718f598ef78a7e049d5c17df11b1ac33dcb492261a45eee8979190a190565b604051903d90823e3d90fd5b634e487b7160e01b845260119052602483fd5b015192503880610933565b9294959697601f1985169087855280852094905b828210610a5757505090846005999897969594939210610a3e575b505050811b019055610945565b015160001960f88460031b161c19169055388080610a31565b808886978294978701518155019601940190610a16565b86815220601f850160051c810191898610610aac575b601f0160051c019083908f5b838210610aa1579050899150610912565b81550183908f610a90565b9091508190610a84565b634e487b7160e01b8d5260418b5260248dfd5b60405162461bcd60e51b81526020818401526013602482015272125394d551919250d251539517d05353d55395606a1b6044820152606490fd5b50505060009056fea2646970667358221220da9fe8828f9436b977985d5e6b433fe8898772895265f4ad12a8c31ddcea4f6564736f6c63430008110033",
  "immutableReferences": {},
  "source": "// SPDX-License-Identifier: MIT\r\npragma solidity ^0.8.17;\r\n\r\nimport \"./libraries/Enums.sol\";\r\nimport \"./libraries/Models.sol\";\r\nimport \"./libraries/PluginLib.sol\";\r\n\r\nimport \"./interfaces/IPlugin.sol\";\r\nimport \"./interfaces/ISpace.sol\";\r\n\r\nimport \"./SpaceTreasury.sol\";\r\nimport \"./SpaceGovernance.sol\";\r\nimport \"./SpaceMembership.sol\";\r\nimport \"./SpaceIncentives.sol\";\r\n\r\nimport \"@openzeppelin/contracts/utils/Context.sol\";\r\n\r\n/**\r\n * V1.0 Space DAO - For PEGO Hackathon\r\n * Author: Arogundade Ibrahim\r\n */\r\ncontract Space is ISpace, Context {\r\n    // dao properties\r\n    address private _owner;\r\n    string private _metadata;\r\n    uint256 private _createdOn;\r\n    bool private _paused;\r\n    address private _parentDao;\r\n\r\n    // maps plugin access code to plugin contract address\r\n    mapping(uint64 => address) private _plugins;\r\n\r\n    // dao features contracts\r\n    SpaceTreasury private _treasury;\r\n    SpaceGovernance private _governance;\r\n    SpaceMembership private _membership;\r\n    SpaceIncentives private _incentives;\r\n\r\n    constructor(\r\n        string memory metadata_,\r\n        address owner_,\r\n        uint16 threshold_,\r\n        uint256 minVoting_,\r\n        uint256 minPropose_,\r\n        uint64 minDuration_,\r\n        bool earlyExecution_,\r\n        address[] memory plugins_,\r\n        address parentDao_\r\n    ) {\r\n        _owner = owner_;\r\n        _metadata = metadata_;\r\n        _createdOn = block.timestamp;\r\n        _paused = false;\r\n        _parentDao = parentDao_;\r\n\r\n        // register the plugins\r\n        for (uint256 index = 0; index < plugins_.length; index++) {\r\n            _registerPlugin(plugins_[index]);\r\n        }\r\n\r\n        _treasury = new SpaceTreasury();\r\n\r\n        _governance = new SpaceGovernance(\r\n            threshold_,\r\n            minVoting_,\r\n            minPropose_,\r\n            minDuration_,\r\n            earlyExecution_\r\n        );\r\n\r\n        _membership = new SpaceMembership();\r\n\r\n        _incentives = new SpaceIncentives();\r\n    }\r\n\r\n    function createProposal(\r\n        string memory metadata_,\r\n        uint256 startedOn_,\r\n        uint256 endedOn_,\r\n        uint256 treasuryAmount_,\r\n        string memory treasurySummary_\r\n    ) external whenNotPaused {\r\n        Models.Proposal memory proposal = Models.Proposal({\r\n            metadata: metadata_,\r\n            createdOn: block.timestamp,\r\n            startedOn: startedOn_,\r\n            endedOn: endedOn_,\r\n            creator: _msgSender(),\r\n            treasuryAmount: treasuryAmount_,\r\n            treasurySummary: treasurySummary_,\r\n            voters: new address[](0),\r\n            executedOn: 0\r\n        });\r\n\r\n        _governance.createProposal(proposal);\r\n\r\n        (bool perm, address plugin) = getPlugin(PluginLib.MEMBERSHIP_CODE);\r\n        if (perm) {\r\n            _membership.beforeAction(\r\n                _msgSender(),\r\n                _governance.minPropose(),\r\n                forcePlugin(PluginLib.MEMBERSHIP_CODE)\r\n            );\r\n        }\r\n\r\n        (bool perm1, address plugin1) = getPlugin(PluginLib.INCENTIVES_CODE);\r\n        if (perm1) {\r\n            _incentives.onProposed(_msgSender(), 1, plugin1);\r\n        }\r\n    }\r\n\r\n    function voteProposal(\r\n        uint256 proposalId,\r\n        Enums.VoteEntry voteEntry,\r\n        uint256 amount\r\n    ) external whenNotPaused {\r\n        _governance.voteProposal(proposalId, _msgSender(), voteEntry);\r\n\r\n        (bool perm, address plugin) = getPlugin(PluginLib.MEMBERSHIP_CODE);\r\n        if (perm) {\r\n            require(\r\n                amount >= _governance.minVoting(),\r\n                \"INSUFFICIENT_VOTING_POWER\"\r\n            );\r\n            _membership.beforeAction(\r\n                _msgSender(),\r\n                amount,\r\n                forcePlugin(PluginLib.MEMBERSHIP_CODE)\r\n            );\r\n            _membership.onVoted(_msgSender(), amount, proposalId, plugin);\r\n        }\r\n\r\n        (bool perm1, address plugin1) = getPlugin(PluginLib.INCENTIVES_CODE);\r\n        if (perm1) {\r\n            _incentives.onVoted(_msgSender(), 1, plugin1);\r\n        }\r\n    }\r\n\r\n    function executeProposal(\r\n        uint256 proposalId,\r\n        string memory summary\r\n    ) external onlyOwner {\r\n        uint256 amount = _governance.executeProposal(proposalId);\r\n\r\n        (bool perm, address plugin) = getPlugin(PluginLib.MEMBERSHIP_CODE);\r\n        if (perm) {\r\n            _membership.distribute(proposalId, plugin);\r\n        }\r\n\r\n        _treasury.onExecute(summary, amount, _owner);\r\n    }\r\n\r\n    function registerPlugin(\r\n        address plugin_\r\n    ) public onlyOwner whenNotPaused returns (bool) {\r\n        return _registerPlugin(plugin_);\r\n    }\r\n\r\n    function _registerPlugin(\r\n        address plugin_\r\n    ) private whenNotPaused returns (bool) {\r\n        if (plugin_ == address(0)) return false;\r\n\r\n        IPlugin plugin = IPlugin(plugin_);\r\n        uint64 accessCode = plugin.accessCode();\r\n\r\n        if (_plugins[accessCode] == address(0)) {\r\n            _plugins[accessCode] = plugin_;\r\n            return true;\r\n        }\r\n\r\n        revert(\"UNREGISTER_PLUGIN_FIRST\");\r\n    }\r\n\r\n    function unRegisterPlugin(\r\n        uint64 accessCode\r\n    ) external onlyOwner whenNotPaused returns (bool) {\r\n        if (_plugins[accessCode] != address(0)) {\r\n            _plugins[accessCode] = address(0);\r\n            return true;\r\n        }\r\n\r\n        return false;\r\n    }\r\n\r\n    function pause() external onlyOwner {\r\n        _paused = true;\r\n    }\r\n\r\n    function upPause() external onlyOwner {\r\n        _paused = false;\r\n    }\r\n\r\n    function getPlugin(uint64 accessCode) public view returns (bool, address) {\r\n        return (_plugins[accessCode] != address(0), _plugins[accessCode]);\r\n    }\r\n\r\n    function forcePlugin(uint64 accessCode) public view returns (address) {\r\n        return _plugins[accessCode];\r\n    }\r\n\r\n    function metadata() external view returns (string memory) {\r\n        return _metadata;\r\n    }\r\n\r\n    function childOf() external view override returns (address) {\r\n        return _parentDao;\r\n    }\r\n\r\n    function transferTo(address newOwner) external override onlyOwner {\r\n        _owner = newOwner;\r\n    }\r\n\r\n    function dao()\r\n        external\r\n        view\r\n        returns (\r\n            string memory,\r\n            address,\r\n            address,\r\n            address,\r\n            address,\r\n            address,\r\n            uint256,\r\n            bool,\r\n            address\r\n        )\r\n    {\r\n        return (\r\n            _metadata,\r\n            _owner,\r\n            address(_treasury),\r\n            address(_governance),\r\n            address(_incentives),\r\n            address(_membership),\r\n            _createdOn,\r\n            _paused,\r\n            _parentDao\r\n        );\r\n    }\r\n\r\n    modifier onlyOwner() {\r\n        require(_msgSender() == _owner);\r\n        _;\r\n    }\r\n\r\n    modifier whenNotPaused() {\r\n        require(_paused == false, \"DAO_IS_PAUSED\");\r\n        _;\r\n    }\r\n}\r\n",
  "sourcePath": "C:\\Users\\DELL\\Documents\\space\\solidity\\contracts\\Space.sol",
  "compiler": {
    "name": "solc",
    "version": "0.8.17+commit.8df45f5f.Emscripten.clang"
  },
  "schemaVersion": "3.4.11",
  "updatedAt": "2023-09-27T08:27:53.266Z",
  "devdoc": {
    "kind": "dev",
    "methods": {},
    "version": 1
  },
  "userdoc": {
    "kind": "user",
    "methods": {},
    "notice": "V1.0 Space DAO - For PEGO Hackathon Author: Arogundade Ibrahim",
    "version": 1
  }
}