{
  "contractName": "PluginLib",
  "abi": [
    {
      "inputs": [],
      "name": "GOVERNANCE_CODE",
      "outputs": [
        {
          "internalType": "uint64",
          "name": "",
          "type": "uint64"
        }
      ],
      "stateMutability": "view",
      "type": "function"
    },
    {
      "inputs": [],
      "name": "INCENTIVES_CODE",
      "outputs": [
        {
          "internalType": "uint64",
          "name": "",
          "type": "uint64"
        }
      ],
      "stateMutability": "view",
      "type": "function"
    },
    {
      "inputs": [],
      "name": "MEMBERSHIP_CODE",
      "outputs": [
        {
          "internalType": "uint64",
          "name": "",
          "type": "uint64"
        }
      ],
      "stateMutability": "view",
      "type": "function"
    },
    {
      "inputs": [],
      "name": "TREASURY_CODE",
      "outputs": [
        {
          "internalType": "uint64",
          "name": "",
          "type": "uint64"
        }
      ],
      "stateMutability": "view",
      "type": "function"
    }
  ],
  "bytecode": "0x608080604052346100195760de908161001f823930815050f35b600080fdfe6080806040526004361015601257600080fd5b600090813560e01c908162c0de4014608e57508063010b9015146077578063d44d182b1460605763d8dbc26b14604757600080fd5b80600319360112605d5760206040516103e98152f35b80fd5b5080600319360112605d5760206040516103e88152f35b5080600319360112605d5760206040516103ea8152f35b90508160031936011260a457806103eb60209252f35b5080fdfea264697066735822122048c756970e88c6dca055817ca5b0be48fcdc6c00c58f320d922783b808b2102964736f6c63430008110033",
  "immutableReferences": {},
  "source": "// SPDX-License-Identifier: MIT\r\npragma solidity ^0.8.17;\r\n\r\nlibrary PluginLib {\r\n    uint64 public constant MEMBERSHIP_CODE = 1000;\r\n    uint64 public constant GOVERNANCE_CODE = 1001;\r\n    uint64 public constant TREASURY_CODE = 1002;\r\n    uint64 public constant INCENTIVES_CODE = 1003;\r\n}\r\n",
  "sourcePath": "C:\\Users\\DELL\\Documents\\space\\solidity\\contracts\\libraries\\PluginLib.sol",
  "compiler": {
    "name": "solc",
    "version": "0.8.17+commit.8df45f5f.Emscripten.clang"
  },
  "schemaVersion": "3.4.11",
  "updatedAt": "2023-09-27T08:27:53.308Z",
  "devdoc": {
    "kind": "dev",
    "methods": {},
    "version": 1
  },
  "userdoc": {
    "kind": "user",
    "methods": {},
    "version": 1
  }
}