{
  "contractName": "PluginManager",
  "abi": [
    {
      "inputs": [
        {
          "internalType": "uint8",
          "name": "membership",
          "type": "uint8"
        },
        {
          "internalType": "uint8",
          "name": "incentives",
          "type": "uint8"
        },
        {
          "internalType": "string",
          "name": "tokenName",
          "type": "string"
        },
        {
          "internalType": "string",
          "name": "tokenSymbol",
          "type": "string"
        },
        {
          "internalType": "address[]",
          "name": "holders",
          "type": "address[]"
        },
        {
          "internalType": "uint256[]",
          "name": "allocations",
          "type": "uint256[]"
        },
        {
          "internalType": "string",
          "name": "tokenURI",
          "type": "string"
        }
      ],
      "name": "create",
      "outputs": [
        {
          "internalType": "address",
          "name": "",
          "type": "address"
        }
      ],
      "stateMutability": "nonpayable",
      "type": "function"
    }
  ],
  "bytecode": "0x6080806040523461001657614698908161001c8239f35b600080fdfe604060808152600490813610156200001657600080fd5b6000803560e01c63b9220b06146200002d57600080fd5b34620003ac5760e0366003190112620003ac5782359260ff8416809403620003a857602490813560ff811603620003a45767ffffffffffffffff90604435828111620003a057620000829036908301620003ec565b6064358381116200039c576200009c9036908401620003ec565b966084359784891162000398573660238a01121562000398578884013592620000cf620000c98562000449565b620003af565b998a94808c52886020809d019160051b8301019136831162000394578901905b828210620003735750505060a435948686116200036f57366023870112156200036f57858101359562000126620000c98862000449565b96898d89838152019160051b830101913683116200036b57908a8e9201905b8382106200035b575050505060c43587811162000357576200016b9036908301620003ec565b9380620002385750909192508851966117d3918289019789891090891117620002275750509289620001cb620001f49694620001bd620001e5958b9a9862002e908c3960a0895260a0890190620004a1565b9087820384890152620004a1565b81868203808d8901528b8352016060870152019062000462565b916080818403910152620004e3565b039082f09081156200021c57506001600160a01b0316905b516001600160a01b039091168152f35b8251903d90823e3d90fd5b634e487b7160e01b8a526041905288fd5b60010362000301578951976120ab91828a01988a8a10908a1117620002f0575050620002d395938b6200029a620002c4956200028c8c9b9996620002b5968d62000de5903960c08b5260c08b0190620004a1565b90898203848b0152620004a1565b818d89830380918b01528d83520160608901520190620004a1565b90848203608086015262000462565b9160a0818403910152620004e3565b039082f09081156200021c57506001600160a01b0316906200020c565b634e487b7160e01b8b526041905289fd5b939594505050508551936108cb91828601938685109085111762000346575050916060620002d39285946200051a863987815286888201528189820152019062000462565b634e487b7160e01b87526041905285fd5b8980fd5b8135815290820190820162000145565b8b80fd5b8880fd5b81356001600160a01b03811681036200036b578152908c01908c01620000ef565b8a80fd5b8680fd5b8580fd5b8480fd5b8280fd5b5080fd5b80fd5b6040519190601f01601f1916820167ffffffffffffffff811183821017620003d657604052565b634e487b7160e01b600052604160045260246000fd5b81601f82011215620004445780359067ffffffffffffffff8211620003d65762000420601f8301601f1916602001620003af565b92828452602083830101116200044457816000926020809301838601378301015290565b600080fd5b67ffffffffffffffff8111620003d65760051b60200190565b90815180825260208080930193019160005b82811062000483575050505090565b83516001600160a01b03168552938101939281019260010162000474565b919082519283825260005b848110620004ce575050826000602080949584010152601f8019910116010190565b602081830181015184830182015201620004ac565b90815180825260208080930193019160005b82811062000504575050505090565b835185529381019392810192600101620004f556fe60a060405234620002f457620008cb803803806200001d816200030e565b928339810190604081830312620002f45780516001600160401b039190828111620002f4578101601f93808583011215620002f457815194848611620001ed57602093601f199662000075868985840116016200030e565b9481865284878383010111620002f457869060005b838110620002f9575050600091860101528481015190868211620002f4570192828285011215620002f457835192868411620001ed578360051b9486620000d38188016200030e565b809681520190878297820101928311620002f4578701905b828210620002d3575050506103e8608052805191868311620001ed57600054916001988984811c94168015620002c8575b88851014620002b257838386951162000275575b50879284116001146200020f575060009262000203575b5050600019600383901b1c191690861b176000555b51928311620001ed57680100000000000000008311620001ed578354838555808410620001cd575b5090836000528060002060005b848110620001b25760405161057d90816200034e8239608051816101fc0152f35b83516001600160a01b03168282015592820192850162000191565b620001e690856000528484600020918201910162000334565b3862000184565b634e487b7160e01b600052604160045260246000fd5b01519050388062000147565b8994929192169160008052876000209260005b898282106200025e575050841162000244575b505050811b016000556200015c565b015160001960f88460031b161c1916905538808062000235565b8385015186558c9790950194938401930162000222565b620002a19060008052896000208580880160051c8201928c8910620002a8575b0160051c019062000334565b3862000130565b9250819262000295565b634e487b7160e01b600052602260045260246000fd5b93607f16936200011c565b81516001600160a01b0381168103620002f4578152908701908701620000eb565b600080fd5b8181018301518882018401528892016200008a565b6040519190601f01601f191682016001600160401b03811183821017620001ed57604052565b81811062000340575050565b600081556001016200033456fe6080604090808252600436101561001557600080fd5b600090813560e01c9081630b1ca49a1461042757816321670f221461040e578163278ecde1146103f9578163392f37e9146102b35750806354a9409e1461029557806398041ea3146102205780639a1789e5146101db578063ba60b6c3146101a95763bdd4d18d1461008657600080fd5b346101a657806003193601126101a6578151906020908183019183831067ffffffffffffffff8411176101925782859395528184528251908194600194828654948581520180948787527fb10e2d527612073b26eecdfd717e6a320cf44b4afac2b0732d9fcbe2b7fa0cf690875b818110610176575050508761010a910388610458565b80519681880191885251809152606087019390855b81811061015a57505050858303868301525180835291810195925b8281106101475785870386f35b835187529581019592810192840161013a565b82516001600160a01b031686529484019491840191870161011f565b82546001600160a01b03168452928601929189019189016100f4565b634e487b7160e01b82526041600452602482fd5b80fd5b5090346101d757806003193601126101d7576020906101ce6101c961043d565b6104dd565b90519015158152f35b5080fd5b5090346101d757816003193601126101d7576020905167ffffffffffffffff7f0000000000000000000000000000000000000000000000000000000000000000168152f35b5090346101d7573660031901126101a65761023961043d565b600154680100000000000000008110156102815780600161025d9201600155610490565b819291549060031b9160018060a01b039283811b93849216901b1691191617905580f35b634e487b7160e01b83526041600452602483fd5b50346101a65760603660031901126101a6576102af61043d565b5080f35b839150346103f557826003193601126103f55782805493600185811c908087169687156103eb575b60209788841081146103d7579183918995938895865290816000146103b6575060011461035b575b50506103159250959392950382610458565b82519382859384528251928382860152825b84811061034557505050828201840152601f01601f19168101030190f35b8181018301518882018801528795508201610327565b8580527f290decd9548b62a8d60345a988386fc84ba6bc95484008f6362f93160ef3e5639492508591905b81831061039e57508894505082010161031588610303565b85548884018501529485019487945091830191610386565b91505061031594925060ff191682840152151560051b820101869288610303565b634e487b7160e01b86526022600452602486fd5b91607f16916102db565b8280fd5b82346101a65760203660031901126101a65780f35b8284346101d7573660031901126101a6576102af61043d565b82346101a65760203660031901126101a6576102af5b600435906001600160a01b038216820361045357565b600080fd5b90601f8019910116810190811067ffffffffffffffff82111761047a57604052565b634e487b7160e01b600052604160045260246000fd5b6001548110156104c75760016000527fb10e2d527612073b26eecdfd717e6a320cf44b4afac2b0732d9fcbe2b7fa0cf60190600090565b634e487b7160e01b600052603260045260246000fd5b60006001918254915b8281106104f65750505050600090565b6104ff81610490565b905460039190911b1c6001600160a01b039081169083161461054157600019811461052b5783016104e6565b634e487b7160e01b600052601160045260246000fd5b5050509056fea2646970667358221220cc2bf2d7e838e8ce38457e6f391fe609bd26a75aef7c49a4ac27c273d329264f64736f6c63430008110033604060a0815234620008ef57620020ab90813803806200001f8162000916565b93843982019060c083830312620008ef5782516001600160401b038111620008ef57826200004f9185016200093c565b60208401519093906001600160401b038111620008ef5783620000749183016200093c565b818301516001600160401b038111620008ef5784620000959184016200093c565b60608301519091906001600160401b038111620008ef5785620000ba9185016200093c565b60808401519096906001600160401b038111620008ef5784019386601f86011215620008ef578451620000f7620000f182620009ae565b62000916565b9560208088848152019260051b82010190898211620008ef57602001915b818310620008f45750505060a0810151906001600160401b038211620008ef57019580601f88011215620008ef57865162000154620000f182620009ae565b976020808a848152019260051b820101928311620008ef57602001905b828210620008de57505081519190506001600160401b038211620004225760005490600182811c92168015620008d3575b6020831014620005e15781601f84931162000870575b50602090601f8311600114620007f857600092620007ec575b50508160011b916000199060031b1c1916176000555b8051906001600160401b038211620004225760015490600182811c92168015620007e1575b6020831014620005e15781601f8493116200077d575b50602090601f83116001146200070357600092620006f7575b50508160011b916000199060031b1c1916176001555b6103e86080528051906001600160401b038211620004225760065490600182811c92168015620006ec575b6020831014620005e15781601f84931162000688575b50602090601f83116001146200060e5760009262000602575b50508160011b916000199060031b1c1916176006555b60005b81518110156200047b576001600160a01b0380620002e38385620009c6565b511690620002f28387620009c6565b518215620004385760008181526002602052604090205462000321906001600160a01b031615155b15620009db565b60008181526002602052604090205462000346906001600160a01b031615156200031a565b600083815260036020908152878220805460010190558282526002905286812080546001600160a01b0319908116861790915593907fddf252ad1be2c89b69c2b068fc378daa952ba7f163c4a11628f55a4df523b3ef8180a4620003ab8385620009c6565b51166007805490680100000000000000008210156200042257600182018082558210156200040c57600052602060002001918254161790556000198114620003f657600101620002c4565b634e487b7160e01b600052601160045260246000fd5b634e487b7160e01b600052603260045260246000fd5b634e487b7160e01b600052604160045260246000fd5b6064865162461bcd60e51b815260206004820152602060248201527f4552433732313a206d696e7420746f20746865207a65726f20616464726573736044820152fd5b8451859084906001600160401b0381116200042257600854600181811c91168015620005f7575b6020821014620005e157601f811162000577575b50602092601f82116001146200050c579281929360009262000500575b50508160011b916000199060031b1c1916176008555b51611622908162000a298239608051816105f20152f35b015190508380620004d3565b601f19821693600860005260206000209160005b8681106200055e575083600195961062000544575b505050811b01600855620004e9565b015160001960f88460031b161c1916905583808062000535565b9192602060018192868501518155019401920162000520565b60086000527ff3f7a9fe364faab93b216da50a3214154f22a0a2b415b23a84c8169e8b636ee3601f830160051c81019160208410620005d6575b601f0160051c01905b818110620005c95750620004b6565b60008155600101620005ba565b9091508190620005b1565b634e487b7160e01b600052602260045260246000fd5b90607f1690620004a2565b015190503880620002ab565b600660009081526000805160206200208b8339815191529350601f198516905b8181106200066f575090846001959493921062000655575b505050811b01600655620002c1565b015160001960f88460031b161c1916905538808062000646565b929360206001819287860151815501950193016200062e565b60066000529091506000805160206200208b833981519152601f840160051c81019160208510620006e1575b90601f859493920160051c01905b818110620006d1575062000292565b60008155849350600101620006c2565b9091508190620006b4565b91607f16916200027c565b0151905038806200023b565b600160009081526000805160206200206b8339815191529350601f198516905b8181106200076457509084600195949392106200074a575b505050811b0160015562000251565b015160001960f88460031b161c191690553880806200073b565b9293602060018192878601518155019501930162000723565b60016000529091506000805160206200206b833981519152601f840160051c81019160208510620007d6575b90601f859493920160051c01905b818110620007c6575062000222565b60008155849350600101620007b7565b9091508190620007a9565b91607f16916200020c565b015190503880620001d1565b60008080526000805160206200204b8339815191529350601f198516905b8181106200085757509084600195949392106200083d575b505050811b01600055620001e7565b015160001960f88460031b161c191690553880806200082e565b9293602060018192878601518155019501930162000816565b600080529091506000805160206200204b833981519152601f840160051c81019160208510620008c8575b90601f859493920160051c01905b818110620008b85750620001b8565b60008155849350600101620008a9565b90915081906200089b565b91607f1691620001a2565b815181526020918201910162000171565b600080fd5b82516001600160a01b0381168103620008ef5781526020928301920162000115565b6040519190601f01601f191682016001600160401b038111838210176200042257604052565b919080601f84011215620008ef5782516001600160401b038111620004225760209062000972601f8201601f1916830162000916565b92818452828287010111620008ef5760005b8181106200099a57508260009394955001015290565b858101830151848201840152820162000984565b6001600160401b038111620004225760051b60200190565b80518210156200040c5760209160051b010190565b15620009e357565b60405162461bcd60e51b815260206004820152601c60248201527f4552433732313a20746f6b656e20616c7265616479206d696e746564000000006044820152606490fdfe608060408181526004918236101561001657600080fd5b600092833560e01c91826301ffc9a714610d8f5750816306fdde0314610cc4578163081812fc14610ca4578163095ea7b314610b365781630b1ca49a14610b1c57816321670f2214610aff57816323b872dd14610ad5578163278ecde114610a58578163392f37e91461098b57816342842e0e1461093d57816354a9409e146108c35781636352211e1461089257816370a082311461086a57816395d89b411461079b57816398041ea3146106165781639a1789e5146105d1578163a22cb46514610501578163b88d4fde14610477578163ba60b6c314610447578163bdd4d18d14610286578163c87b56dd14610167575063e985e9c51461011757600080fd5b3461016357806003193601126101635760ff81602093610135610e3a565b61013d610e55565b6001600160a01b0391821683526005875283832091168252855220549151911615158152f35b5080fd5b838334610163576020908160031936011261028257805192806008549060019082821c928281168015610278575b8785108114610265578899509688969785829a52918260001461023e5750506001146101e2575b5050506101de92916101cf910385610ea0565b51928284938452830190610dfa565b0390f35b9190869350600883527ff3f7a9fe364faab93b216da50a3214154f22a0a2b415b23a84c8169e8b636ee35b82841061022657505050820101816101cf6101de6101bc565b8054848a01860152889550879490930192810161020d565b60ff19168782015293151560051b860190930193508492506101cf91506101de90506101bc565b634e487b7160e01b835260228a52602483fd5b93607f1693610195565b8280fd5b83915034610163578160031936011261016357600754916102a6836115d4565b926102b385519485610ea0565b8084526102bf816115d4565b6020858101949091601f1901368637835b8381106103b75750508551948186848152018093600786527fa66cc928b5edb82af9bd49922954155ab7b0942694bea4ce44661d9a8736c68890865b81811061039a5750505086610322910387610ea0565b865196879681880191885251809152606087019390855b81811061037a57505050858303868301525180835291810193925b82811061036357505050500390f35b835185528695509381019392810192600101610354565b82516001600160a01b031686528998509484019491840191600101610339565b82546001600160a01b03168452928501926001928301920161030c565b6103e06103c9829894969597986112cc565b905460039190911b1c6001600160a01b0316610ef4565b670de0b6b3a764000090818102918183041490151715610434578351821015610421579061041691868260051b860101526112a7565b9594929391956102d0565b634e487b7160e01b855260328352602485fd5b634e487b7160e01b855260118352602485fd5b505034610163578060031936011261016357602090600161046e610469610e3a565b610ef4565b10159051908152f35b9190503461028257608036600319011261028257610493610e3a565b61049b610e55565b846064359467ffffffffffffffff8611610163573660238701121561016357850135946104d36104ca87610ed8565b95519586610ea0565b858552366024878301011161016357856104fe9660246020930183880137850101526044359161107d565b80f35b9190503461028257806003193601126102825761051c610e3a565b90602435918215158093036105cd576001600160a01b03169233841461058b5750338452600560205280842083855260205280842060ff1981541660ff8416179055519081527f17307eab39ab6107e8899845ad3d59bd9653f200f220920489ca2b5937696c3160203392a380f35b6020606492519162461bcd60e51b8352820152601960248201527f4552433732313a20617070726f766520746f2063616c6c6572000000000000006044820152fd5b8480fd5b5050346101635781600319360112610163576020905167ffffffffffffffff7f0000000000000000000000000000000000000000000000000000000000000000168152f35b91905034610282578060031936011261028257610631610e3a565b600a8054600101908190556001600160a01b0393918416929083156107585760008181526002602052604090205461070b92919061067b906001600160a01b031615155b15611588565b60008181526002602052604090205461069e906001600160a01b03161515610675565b8487526003602052818720600181540190558087526002602052818720856bffffffffffffffffffffffff60a01b82541617905584877fddf252ad1be2c89b69c2b068fc378daa952ba7f163c4a11628f55a4df523b3ef8180a483865260096020528520600a5490611331565b60075490600160401b821015610745575080600161072c92016007556112cc565b909283549160031b90811b9283911b1691191617905580f35b634e487b7160e01b855260419052602484fd5b815162461bcd60e51b8152602081850181905260248201527f4552433732313a206d696e7420746f20746865207a65726f20616464726573736044820152606490fd5b8284346108675780600319360112610867578151918160019283549384811c9181861695861561085d575b6020968785108114610265578899509688969785829a52918260001461023e575050600114610802575050506101de92916101cf910385610ea0565b91908693508083527fb10e2d527612073b26eecdfd717e6a320cf44b4afac2b0732d9fcbe2b7fa0cf65b82841061084557505050820101816101cf6101de6101bc565b8054848a01860152889550879490930192810161082c565b92607f16926107c6565b80fd5b5050346101635760203660031901126101635760209061088b610469610e3a565b9051908152f35b82843461086757602036600319011261086757506108b260209235610fb7565b90516001600160a01b039091168152f35b91905034610282576060366003190112610282576108df610e3a565b9160018060a01b0383169081855260096020528285209081541561092a57508452610911602085205480943090611368565b6044358452600b60205281842090845260205282205580f35b634e487b7160e01b865260329052602485fd5b8383346101635761094d36610e6b565b91835193602085019085821067ffffffffffffffff831117610978576104fe9697505285845261107d565b634e487b7160e01b875260418852602487fd5b8284346108675780600319360112610867578151918160065492600184811c91818616958615610a4e575b6020968785108114610265578899509688969785829a52918260001461023e5750506001146109f2575050506101de92916101cf910385610ea0565b9190869350600683527ff652222313e28459528d920b65115c16c04f3efc82aaedc97be59f3f377c0d3f5b828410610a3657505050820101816101cf6101de6101bc565b8054848a018601528895508794909301928101610a1d565b92607f16926109b6565b8284346108675760209283600319360112610163573591815b600754811015610ad15780610a88610acc926112cc565b60018060a01b0391549060031b1c16858552600b8088528486208287528852610ab5858720548330611368565b8686528752838520908552865283838120556112a7565b610a71565b8280f35b8334610867576104fe610ae736610e6b565b91610afa610af58433611118565b61101b565b611368565b5050346101635736600319011261086757610b18610e3a565b5080f35b833461086757602036600319011261086757610b18610e3a565b905034610282578160031936011261028257610b50610e3a565b6024359290916001600160a01b0391908280610b6b87610fb7565b16941693808514610c5757803314908115610c38575b5015610bd057848652602052842080546001600160a01b03191683179055610ba883610fb7565b167f8c5be1e5ebec7d5bd14f71427d1e84f3dd0314c0f7b2291e5b200ac8c7c3b9258480a480f35b6020608492519162461bcd60e51b8352820152603d60248201527f4552433732313a20617070726f76652063616c6c6572206973206e6f7420746f60448201527f6b656e206f776e6572206f7220617070726f76656420666f7220616c6c0000006064820152fd5b90508652600560205281862033875260205260ff828720541638610b81565b506020608492519162461bcd60e51b8352820152602160248201527f4552433732313a20617070726f76616c20746f2063757272656e74206f776e656044820152603960f91b6064820152fd5b82843461086757602036600319011261086757506108b260209235610fdd565b82843461086757806003193601126108675781519181825492600184811c91818616958615610d85575b6020968785108114610265578899509688969785829a52918260001461023e575050600114610d2a575050506101de92916101cf910385610ea0565b91908693508280527f290decd9548b62a8d60345a988386fc84ba6bc95484008f6362f93160ef3e5635b828410610d6d57505050820101816101cf6101de6101bc565b8054848a018601528895508794909301928101610d54565b92607f1692610cee565b849134610282576020366003190112610282573563ffffffff60e01b811680910361028257602092506380ac58cd60e01b8114908115610de9575b8115610dd8575b5015158152f35b6301ffc9a760e01b14905083610dd1565b635b5e139f60e01b81149150610dca565b919082519283825260005b848110610e26575050826000602080949584010152601f8019910116010190565b602081830181015184830182015201610e05565b600435906001600160a01b0382168203610e5057565b600080fd5b602435906001600160a01b0382168203610e5057565b6060906003190112610e50576001600160a01b03906004358281168103610e5057916024359081168103610e50579060443590565b90601f8019910116810190811067ffffffffffffffff821117610ec257604052565b634e487b7160e01b600052604160045260246000fd5b67ffffffffffffffff8111610ec257601f01601f191660200190565b6001600160a01b03168015610f1457600052600360205260406000205490565b60405162461bcd60e51b815260206004820152602960248201527f4552433732313a2061646472657373207a65726f206973206e6f7420612076616044820152683634b21037bbb732b960b91b6064820152608490fd5b15610f7257565b60405162461bcd60e51b815260206004820152601860248201527f4552433732313a20696e76616c696420746f6b656e20494400000000000000006044820152606490fd5b6000908152600260205260409020546001600160a01b0316610fda811515610f6b565b90565b600081815260026020526040902054611000906001600160a01b03161515610f6b565b6000908152600460205260409020546001600160a01b031690565b1561102257565b60405162461bcd60e51b815260206004820152602d60248201527f4552433732313a2063616c6c6572206973206e6f7420746f6b656e206f776e6560448201526c1c881bdc88185c1c1c9bdd9959609a1b6064820152608490fd5b906110a1939291611091610af58433611118565b61109c838383611368565b611186565b156110a857565b60405162461bcd60e51b8152806110c1600482016110c5565b0390fd5b60809060208152603260208201527f4552433732313a207472616e7366657220746f206e6f6e20455243373231526560408201527131b2b4bb32b91034b6b83632b6b2b73a32b960711b60608201520190565b906001600160a01b03808061112c84610fb7565b1693169183831493841561115f575b508315611149575b50505090565b61115591929350610fdd565b1614388080611143565b909350600052600560205260406000208260005260205260ff60406000205416923861113b565b9293600093909291803b1561129c579484916111e09660405180948193630a85bd0160e11b9788845233600485015260018060a01b0380921660248501526044840152608060648401528260209b8c976084830190610dfa565b0393165af184918161125c575b5061124b575050503d600014611243573d61120781610ed8565b906112156040519283610ea0565b81528091833d92013e5b805191826112405760405162461bcd60e51b8152806110c1600482016110c5565b01fd5b50606061121f565b6001600160e01b0319161492509050565b9091508581813d8311611295575b6112748183610ea0565b810103126105cd57516001600160e01b0319811681036105cd5790386111ed565b503d61126a565b505050915050600190565b60001981146112b65760010190565b634e487b7160e01b600052601160045260246000fd5b6007548110156113035760076000527fa66cc928b5edb82af9bd49922954155ab7b0942694bea4ce44661d9a8736c6880190600090565b634e487b7160e01b600052603260045260246000fd5b80548210156113035760005260206000200190600090565b8054600160401b811015610ec25761134e91600182018155611319565b819291549060031b600019811b9283911b16911916179055565b9160005b60018060a01b038085169081600052600960208181526040928360002054861015611409579183918793846113a9896113c49a9998600020611319565b919054600392831b1c146113c9575b505050505050506112a7565b61136c565b6113fd966000528383526113e08886600020611319565b9091825491600019911b1b19169055891660005252600020611331565b388381808080806113b8565b50505050505091906114389161141e84610fb7565b6001600160a01b039391841692849290918316841461152e565b169182156114dd57816114559161144e86610fb7565b161461152e565b82600052600460205260406000206bffffffffffffffffffffffff60a01b908181541690558160005260036020526040600020600019815401905582600052604060002060018154019055836000526002602052826040600020918254161790557fddf252ad1be2c89b69c2b068fc378daa952ba7f163c4a11628f55a4df523b3ef600080a4565b60405162461bcd60e51b8152602060048201526024808201527f4552433732313a207472616e7366657220746f20746865207a65726f206164646044820152637265737360e01b6064820152608490fd5b1561153557565b60405162461bcd60e51b815260206004820152602560248201527f4552433732313a207472616e736665722066726f6d20696e636f72726563742060448201526437bbb732b960d91b6064820152608490fd5b1561158f57565b60405162461bcd60e51b815260206004820152601c60248201527f4552433732313a20746f6b656e20616c7265616479206d696e746564000000006044820152606490fd5b67ffffffffffffffff8111610ec25760051b6020019056fea26469706673582212205acaf2c0f6262374dca0c0e0aea34bfded3bc31a81717f81d78ce4bf6d2f062c64736f6c63430008110033290decd9548b62a8d60345a988386fc84ba6bc95484008f6362f93160ef3e563b10e2d527612073b26eecdfd717e6a320cf44b4afac2b0732d9fcbe2b7fa0cf6f652222313e28459528d920b65115c16c04f3efc82aaedc97be59f3f377c0d3f60a0604052346200071457620017d3803803806200001d816200073b565b92833981019060a081830312620007145780516001600160401b0381116200071457826200004d91830162000761565b60208201519092906001600160401b0381116200071457816200007291840162000761565b60408301519093906001600160401b0381116200071457826200009791850162000761565b60608401519094906001600160401b038111620007145784019383601f8601121562000714578451620000d4620000ce82620007d3565b6200073b565b9560208088848152019260051b820101908682116200071457602001915b81831062000719575050506080810151906001600160401b0382116200071457019280601f850112156200071457835162000131620000ce82620007d3565b9460208087848152019260051b8201019283116200071457602001905b82821062000703575050825190506001600160401b038111620003b257600392835490600182811c92168015620006f8575b6020831014620004ef5781601f849311620006a0575b50602090601f831160011462000636576000926200062a575b50508160011b9160001990851b1c19161782555b8051906001600160401b038211620003b25760045490600182811c921680156200061f575b6020831014620004ef5781601f849311620005aa575b50602090601f83116001146200051c5760009262000510575b50508160011b9160001990841b1c1916176004555b6103e86080528351906001600160401b038211620003b257600554600181811c9116801562000505575b6020821014620004ef57601f8111620004a1575b50602094601f83116001146200043257948293949560009362000426575b50508260011b92600019911b1c1916176005555b60005b82518110156200040d576001600160a01b0380620002be8386620007eb565b5116620002cc8385620007eb565b518115620003c857600280549082820180921162000386576000927fddf252ad1be2c89b69c2b068fc378daa952ba7f163c4a11628f55a4df523b3ef926020925584845283825260408420818154019055604051908152a3620003308285620007eb565b5116600680549068010000000000000000821015620003b257600182018082558210156200039c576000908152602090200180546001600160a01b0319169091179055600019811462000386576001016200029f565b634e487b7160e01b600052601160045260246000fd5b634e487b7160e01b600052603260045260246000fd5b634e487b7160e01b600052604160045260246000fd5b60405162461bcd60e51b815260206004820152601f60248201527f45524332303a206d696e7420746f20746865207a65726f2061646472657373006044820152606490fd5b604051610fd29081620008018239608051816104220152f35b01519150388062000288565b90601f19831695600560005260206000209260005b888110620004885750846001969798106200046d575b50505050811b016005556200029c565b01519060f884600019921b161c19169055388080806200045d565b9193602060018192878501518155019501920162000447565b60056000526020600020601f840160051c81019160208510620004e4575b601f0160051c01905b818110620004d757506200026a565b60008155600101620004c8565b9091508190620004bf565b634e487b7160e01b600052602260045260246000fd5b90607f169062000256565b01519050388062000217565b6004600090815293507f8a35acfbc15ff81a39ae7d344fd709f28e8600b4aa8c65c6b64bfe7fe36bd19b91905b601f19841685106200058e576001945083601f1981161062000575575b505050811b016004556200022c565b015160001983861b60f8161c1916905538808062000566565b8181015183556020948501946001909301929091019062000549565b60046000529091507f8a35acfbc15ff81a39ae7d344fd709f28e8600b4aa8c65c6b64bfe7fe36bd19b601f840160051c8101916020851062000614575b90601f859493920160051c01905b818110620006045750620001fe565b60008155849350600101620005f5565b9091508190620005e7565b91607f1691620001e8565b015190503880620001af565b6000868152602081209350601f198516905b8181106200068757509084600195949392106200066e575b505050811b018255620001c3565b015160001983871b60f8161c1916905538808062000660565b9293602060018192878601518155019501930162000648565b909150846000526020600020601f840160051c81019160208510620006ed575b90601f859493920160051c01905b818110620006dd575062000196565b60008155849350600101620006ce565b9091508190620006c0565b91607f169162000180565b81518152602091820191016200014e565b600080fd5b82516001600160a01b03811681036200071457815260209283019201620000f2565b6040519190601f01601f191682016001600160401b03811183821017620003b257604052565b919080601f84011215620007145782516001600160401b038111620003b25760209062000797601f8201601f191683016200073b565b92818452828287010111620007145760005b818110620007bf57508260009394955001015290565b8581018301518482018401528201620007a9565b6001600160401b038111620003b25760051b60200190565b80518210156200039c5760209160051b01019056fe608060408181526004918236101561001657600080fd5b600092833560e01c91826306fdde0314610b2457508163095ea7b314610afa5781630b1ca49a146109d257816318160ddd146109b357816321670f221461099657816323b872dd146108cc578163278ecde11461084f578163313ce56714610833578163392f37e91461073e57816339509351146106ee57816354a9409e146106a057816370a082311461065d57816395d89b411461055a57816398041ea3146104465781639a1789e514610401578163a457c2d714610359578163a9059cbb14610328578163ba60b6c3146102ed578163bdd4d18d1461014c575063dd62ed3e1461010157600080fd5b346101485780600319360112610148578060209261011d610c2c565b610125610c47565b6001600160a01b0391821683526001865283832091168252845220549051908152f35b5080fd5b839150346101485781600319360112610148576006549161016c83610f84565b9261017985519485610c5d565b80845261018581610f84565b6020858101949091601f1901368637835b83811061027d5750508551948186848152018093600686527ff652222313e28459528d920b65115c16c04f3efc82aaedc97be59f3f377c0d3f90865b81811061026057505050866101e8910387610c5d565b865196879681880191885251809152606087019390855b81811061024057505050858303868301525180835291810193925b82811061022957505050500390f35b83518552869550938101939281019260010161021a565b82516001600160a01b0316865289985094840194918401916001016101ff565b82546001600160a01b0316845292850192600192830192016101d2565b6102b361028f82989496959798610f28565b905460039190911b1c6001600160a01b031660009081526020819052604090205490565b83518210156102da57906102cf91868260051b86010152610f75565b959492939195610196565b634e487b7160e01b855260328352602485fd5b5050346101485780600319360112610148576020916001600160a01b03610312610c2c565b1681528083528160243591205410159051908152f35b505034610148578060031936011261014857602090610352610348610c2c565b6024359033610cb8565b5160018152f35b905082346103fe57826003193601126103fe57610374610c2c565b918360243592338152600160205281812060018060a01b03861682526020522054908282106103ad576020856103528585038733610e26565b608490602086519162461bcd60e51b8352820152602560248201527f45524332303a2064656372656173656420616c6c6f77616e63652062656c6f77604482015264207a65726f60d81b6064820152fd5b80fd5b5050346101485781600319360112610148576020905167ffffffffffffffff7f0000000000000000000000000000000000000000000000000000000000000000168152f35b91905034610556578060031936011261055657610461610c2c565b6001600160a01b039290831691602435908315610514577fddf252ad1be2c89b69c2b068fc378daa952ba7f163c4a11628f55a4df523b3ef60208388936104ab8896600254610c95565b60025585855284835280852082815401905551908152a3600654906801000000000000000082101561050157508060016104e89201600655610f28565b909283549160031b90811b9283911b1691191617905580f35b634e487b7160e01b855260419052602484fd5b5162461bcd60e51b8152602081840152601f60248201527f45524332303a206d696e7420746f20746865207a65726f2061646472657373006044820152606490fd5b8280fd5b838334610148578160031936011261014857805191809380549160019083821c92828516948515610653575b60209586861081146106405785895290811561061c57506001146105c4575b6105c087876105b6828c0383610c5d565b5191829182610be3565b0390f35b81529295507f8a35acfbc15ff81a39ae7d344fd709f28e8600b4aa8c65c6b64bfe7fe36bd19b5b82841061060957505050826105c0946105b6928201019486806105a5565b80548685018801529286019281016105eb565b60ff19168887015250505050151560051b83010192506105b6826105c086806105a5565b634e487b7160e01b845260228352602484fd5b93607f1693610586565b5050346101485760203660031901126101485760209061069961067e610c2c565b6001600160a01b031660009081526020819052604090205490565b9051908152f35b505034610148576060366003190112610148576106bb610c2c565b90602435916106cb833083610cb8565b6044358452600760209081528285206001600160a01b0390921685525282205580f35b505034610148578060031936011261014857610352602092610737610711610c2c565b338352600186528483206001600160a01b03821684528652918490205460243590610c95565b9033610e26565b91905034610556578260031936011261055657805191836005549060019082821c928281168015610829575b602095868610821461081657508488529081156107f4575060011461079b575b6105c086866105b6828b0383610c5d565b929550600583527f036b6384b5eca791c62761152d0c79bb0604c104a5fb6f4eb0703f3154bb3db05b8284106107e157505050826105c0946105b692820101943861078a565b80548685018801529286019281016107c4565b60ff191687860152505050151560051b83010192506105b6826105c03861078a565b634e487b7160e01b845260229052602483fd5b93607f169361076a565b5050346101485781600319360112610148576020905160128152f35b8284346103fe5760209283600319360112610148573591815b6006548110156108c8578061087f6108c392610f28565b60018060a01b0391549060031b1c16858552600780885284862082875288526108ac858720548330610cb8565b868652875283852090855286528383812055610f75565b610868565b8280f35b83915034610148576060366003190112610148576108e8610c2c565b6108f0610c47565b91846044359460018060a01b03841681526001602052818120338252602052205490600019820361092a575b602086610352878787610cb8565b84821061095357509183916109486020969561035295033383610e26565b91939481935061091c565b606490602087519162461bcd60e51b8352820152601d60248201527f45524332303a20696e73756666696369656e7420616c6c6f77616e63650000006044820152fd5b505034610148573660031901126103fe576109af610c2c565b5080f35b5050346101485781600319360112610148576020906002549051908152f35b8391503461014857602080600319360112610556576001600160a01b036109f7610c2c565b169182845283825284842054908315610aad578385528483528585205490828210610a5f5750908495817fddf252ad1be2c89b69c2b068fc378daa952ba7f163c4a11628f55a4df523b3ef94938688528785520381872055816002540360025551908152a380f35b865162461bcd60e51b8152908101849052602260248201527f45524332303a206275726e20616d6f756e7420657863656564732062616c616e604482015261636560f01b6064820152608490fd5b855162461bcd60e51b8152908101839052602160248201527f45524332303a206275726e2066726f6d20746865207a65726f206164647265736044820152607360f81b6064820152608490fd5b505034610148578060031936011261014857602090610352610b1a610c2c565b6024359033610e26565b92915034610bdf5783600319360112610bdf57600354600181811c9186908281168015610bd5575b602095868610821461081657508488529081156107f45750600114610b7c576105c086866105b6828b0383610c5d565b929550600383527fc2575a0e9e593c00f959f8c92f12db2869c3395a3b0502d05e2516446f71f85b5b828410610bc257505050826105c0946105b692820101943861078a565b8054868501880152928601928101610ba5565b93607f1693610b4c565b8380fd5b6020808252825181830181905290939260005b828110610c1857505060409293506000838284010152601f8019910116010190565b818101860151848201604001528501610bf6565b600435906001600160a01b0382168203610c4257565b600080fd5b602435906001600160a01b0382168203610c4257565b90601f8019910116810190811067ffffffffffffffff821117610c7f57604052565b634e487b7160e01b600052604160045260246000fd5b91908201809211610ca257565b634e487b7160e01b600052601160045260246000fd5b6001600160a01b03908116918215610dd35716918215610d8257600082815280602052604081205491808310610d2e57604082827fddf252ad1be2c89b69c2b068fc378daa952ba7f163c4a11628f55a4df523b3ef958760209652828652038282205586815220818154019055604051908152a3565b60405162461bcd60e51b815260206004820152602660248201527f45524332303a207472616e7366657220616d6f756e7420657863656564732062604482015265616c616e636560d01b6064820152608490fd5b60405162461bcd60e51b815260206004820152602360248201527f45524332303a207472616e7366657220746f20746865207a65726f206164647260448201526265737360e81b6064820152608490fd5b60405162461bcd60e51b815260206004820152602560248201527f45524332303a207472616e736665722066726f6d20746865207a65726f206164604482015264647265737360d81b6064820152608490fd5b6001600160a01b03908116918215610ed75716918215610e875760207f8c5be1e5ebec7d5bd14f71427d1e84f3dd0314c0f7b2291e5b200ac8c7c3b925918360005260018252604060002085600052825280604060002055604051908152a3565b60405162461bcd60e51b815260206004820152602260248201527f45524332303a20617070726f766520746f20746865207a65726f206164647265604482015261737360f01b6064820152608490fd5b60405162461bcd60e51b8152602060048201526024808201527f45524332303a20617070726f76652066726f6d20746865207a65726f206164646044820152637265737360e01b6064820152608490fd5b600654811015610f5f5760066000527ff652222313e28459528d920b65115c16c04f3efc82aaedc97be59f3f377c0d3f0190600090565b634e487b7160e01b600052603260045260246000fd5b6000198114610ca25760010190565b67ffffffffffffffff8111610c7f5760051b6020019056fea264697066735822122069d81192d7a6a3c3f18a95209c54174dd0817470180a9926ab6c6d92f9c5921964736f6c63430008110033a26469706673582212201a979f7f3fde433c7aea0232770b6136194ab177b85f21dbff6e2262abda927564736f6c63430008110033",
  "immutableReferences": {},
  "source": "// SPDX-License-Identifier: MIT\r\npragma solidity ^0.8.17;\r\n\r\nimport \"./interfaces/IPluginManager.sol\";\r\n\r\n// Space plugins\r\nimport \"./Space-plugins/SpaceVotingNFT.sol\";\r\nimport \"./Space-plugins/SpaceVotingToken.sol\";\r\nimport \"./Space-plugins/SpaceVotingMultisig.sol\";\r\n\r\ncontract PluginManager is IPluginManager {\r\n    function create(\r\n        uint8 membership,\r\n        uint8 incentives,\r\n        string memory tokenName,\r\n        string memory tokenSymbol,\r\n        address[] memory holders,\r\n        uint256[] memory allocations,\r\n        string memory tokenURI\r\n    ) external override returns (address) {\r\n        address plugin;\r\n\r\n        // membership access code plugin\r\n        if (membership == 0) {\r\n            SpaceVotingToken votingToken = new SpaceVotingToken(\r\n                tokenName,\r\n                tokenSymbol,\r\n                \"\",\r\n                holders,\r\n                allocations\r\n            );\r\n            plugin = address(votingToken);\r\n        } else if (membership == 1) {\r\n            SpaceVotingNFT votingNFT = new SpaceVotingNFT(\r\n                tokenName,\r\n                tokenSymbol,\r\n                \"\",\r\n                tokenURI,\r\n                holders,\r\n                allocations\r\n            );\r\n            plugin = address(votingNFT);\r\n        } else {\r\n            SpaceVotingMultisig multisig = new SpaceVotingMultisig(\"\", holders);\r\n            plugin = address(multisig);\r\n        }\r\n\r\n        return plugin;\r\n    }\r\n}\r\n",
  "sourcePath": "C:\\Users\\DELL\\Documents\\space\\solidity\\contracts\\PluginManager.sol",
  "compiler": {
    "name": "solc",
    "version": "0.8.17+commit.8df45f5f.Emscripten.clang"
  },
  "schemaVersion": "3.4.11",
  "updatedAt": "2023-09-08T20:04:31.150Z",
  "networkType": "ethereum",
  "devdoc": {
    "kind": "dev",
    "methods": {},
    "version": 1
  },
  "userdoc": {
    "kind": "user",
    "methods": {},
    "version": 1
  }
}