{
  "contractName": "SpaceIncentives",
  "abi": [
    {
      "inputs": [
        {
          "internalType": "address",
          "name": "voter",
          "type": "address"
        },
        {
          "internalType": "uint256",
          "name": "amount",
          "type": "uint256"
        },
        {
          "internalType": "address",
          "name": "plugin",
          "type": "address"
        }
      ],
      "name": "onVoted",
      "outputs": [],
      "stateMutability": "nonpayable",
      "type": "function"
    },
    {
      "inputs": [
        {
          "internalType": "address",
          "name": "voter",
          "type": "address"
        },
        {
          "internalType": "uint256",
          "name": "amount",
          "type": "uint256"
        },
        {
          "internalType": "address",
          "name": "plugin",
          "type": "address"
        }
      ],
      "name": "onUnVoted",
      "outputs": [],
      "stateMutability": "nonpayable",
      "type": "function"
    },
    {
      "inputs": [
        {
          "internalType": "address",
          "name": "voter",
          "type": "address"
        },
        {
          "internalType": "uint256",
          "name": "amount",
          "type": "uint256"
        },
        {
          "internalType": "address",
          "name": "plugin",
          "type": "address"
        }
      ],
      "name": "onProposed",
      "outputs": [],
      "stateMutability": "nonpayable",
      "type": "function"
    },
    {
      "inputs": [
        {
          "internalType": "address",
          "name": "plugin",
          "type": "address"
        }
      ],
      "name": "members",
      "outputs": [
        {
          "internalType": "address[]",
          "name": "",
          "type": "address[]"
        },
        {
          "internalType": "uint256[]",
          "name": "",
          "type": "uint256[]"
        }
      ],
      "stateMutability": "view",
      "type": "function"
    },
    {
      "inputs": [
        {
          "internalType": "address",
          "name": "holder",
          "type": "address"
        },
        {
          "internalType": "uint256",
          "name": "allocation",
          "type": "uint256"
        },
        {
          "internalType": "address",
          "name": "plugin",
          "type": "address"
        }
      ],
      "name": "mint",
      "outputs": [],
      "stateMutability": "nonpayable",
      "type": "function"
    }
  ],
  "bytecode": "0x608080604052346100165761041e908161001c8239f35b600080fdfe60806040818152600436101561001457600080fd5b600090813560e01c92836308ae4b0c146100ec575082630d4d15131461006d5750508063ac4546ca14610064578063d1064469146100645763ee38d0851461005c575b600080fd5b61005761030e565b5061005761030e565b8190346100e95761007d366102da565b9193916001600160a01b0316803b156100e55783516398041ea360e01b81526001600160a01b0395909516600486015260248501919091528390604490829084905af19081156100dc57506100d0575080f35b6100d990610384565b80f35b513d84823e3d90fd5b8280fd5b50fd5b346100e5576020806003193601126102a8576001600160a01b0393600435858116908190036102cc5783600481849363bdd4d18d60e01b82525afa9384156102d057819382956101b9575b509392909184519585879687019087528351809152826060880194019185905b82821061019c5750505050848203818601528080855193848152019401925b82811061018557505050500390f35b835185528695509381019392810192600101610176565b835181168652899850948401949284019260019190910190610157565b935093503d8082853e6101cc81856103ae565b83019284818503126102cc57805167ffffffffffffffff908181116102a85782019185601f840112156102a857825192610205846103d0565b93610212895195866103ae565b808552868086019160051b830101918883116102c8578701905b8282106102ac57505050848101519182116102a857019380601f860112156100e5578451610259816103d0565b95610266885197886103ae565b818752858088019260051b8201019283116102a45785809101915b8383106102945750505050929386610137565b8251815291810191869101610281565b8480fd5b8380fd5b81518b811681036102c457815290870190870161022c565b8780fd5b8680fd5b5080fd5b51903d90823e3d90fd5b6060906003190112610057576001600160a01b03600435818116810361005757916024359160443590811681036100575790565b50346100575761031d366102da565b6001600160a01b03169190823b15610057576040516310b3879160e11b81526001600160a01b039290921660048301526024820152906000908290604490829084905af180156103785761036d57005b61037690610384565b005b6040513d6000823e3d90fd5b67ffffffffffffffff811161039857604052565b634e487b7160e01b600052604160045260246000fd5b90601f8019910116810190811067ffffffffffffffff82111761039857604052565b67ffffffffffffffff81116103985760051b6020019056fea2646970667358221220258b210786b29298b4e41435bb8b97491f57f3c7dcaa2e5d772e15a1b54ba06064736f6c63430008110033",
  "immutableReferences": {},
  "source": "// SPDX-License-Identifier: MIT\r\npragma solidity ^0.8.17;\r\n\r\nimport \"./interfaces/IPlugin.sol\";\r\n\r\nimport \"./interfaces/IIncentives.sol\";\r\n\r\ncontract SpaceIncentives is IIncentives {\r\n    function onVoted(\r\n        address voter,\r\n        uint256 amount,\r\n        address plugin\r\n    ) external override {\r\n        IPlugin(plugin).reward(voter, amount);\r\n    }\r\n\r\n    function onUnVoted(\r\n        address voter,\r\n        uint256 amount,\r\n        address plugin\r\n    ) external override {\r\n        IPlugin(plugin).reward(voter, amount);\r\n    }\r\n\r\n    function onProposed(\r\n        address voter,\r\n        uint256 amount,\r\n        address plugin\r\n    ) external override {\r\n        IPlugin(plugin).reward(voter, amount);\r\n    }\r\n\r\n    function members(\r\n        address plugin\r\n    ) external view override returns (address[] memory, uint256[] memory) {\r\n        return IPlugin(plugin).members();\r\n    }\r\n\r\n    function mint(\r\n        address holder,\r\n        uint256 allocation,\r\n        address plugin\r\n    ) external override {\r\n        IPlugin(plugin).addMember(holder, allocation);\r\n    }\r\n}\r\n",
  "sourcePath": "C:\\Users\\DELL\\Documents\\space\\solidity\\contracts\\SpaceIncentives.sol",
  "compiler": {
    "name": "solc",
    "version": "0.8.17+commit.8df45f5f.Emscripten.clang"
  },
  "schemaVersion": "3.4.11",
  "updatedAt": "2023-09-27T08:27:53.284Z",
  "devdoc": {
    "kind": "dev",
    "methods": {},
    "version": 1
  },
  "userdoc": {
    "kind": "user",
    "methods": {},
    "version": 1
  }
}