{
  "contractName": "SpaceVotingNFT",
  "abi": [
    {
      "inputs": [
        {
          "internalType": "string",
          "name": "name_",
          "type": "string"
        },
        {
          "internalType": "string",
          "name": "symbol_",
          "type": "string"
        },
        {
          "internalType": "string",
          "name": "pluginMetadata_",
          "type": "string"
        },
        {
          "internalType": "string",
          "name": "tokenURI_",
          "type": "string"
        },
        {
          "internalType": "address[]",
          "name": "holders_",
          "type": "address[]"
        },
        {
          "internalType": "uint256[]",
          "name": "allocations_",
          "type": "uint256[]"
        }
      ],
      "stateMutability": "nonpayable",
      "type": "constructor"
    },
    {
      "anonymous": false,
      "inputs": [
        {
          "indexed": true,
          "internalType": "address",
          "name": "owner",
          "type": "address"
        },
        {
          "indexed": true,
          "internalType": "address",
          "name": "approved",
          "type": "address"
        },
        {
          "indexed": true,
          "internalType": "uint256",
          "name": "tokenId",
          "type": "uint256"
        }
      ],
      "name": "Approval",
      "type": "event"
    },
    {
      "anonymous": false,
      "inputs": [
        {
          "indexed": true,
          "internalType": "address",
          "name": "owner",
          "type": "address"
        },
        {
          "indexed": true,
          "internalType": "address",
          "name": "operator",
          "type": "address"
        },
        {
          "indexed": false,
          "internalType": "bool",
          "name": "approved",
          "type": "bool"
        }
      ],
      "name": "ApprovalForAll",
      "type": "event"
    },
    {
      "anonymous": false,
      "inputs": [
        {
          "indexed": true,
          "internalType": "address",
          "name": "from",
          "type": "address"
        },
        {
          "indexed": true,
          "internalType": "address",
          "name": "to",
          "type": "address"
        },
        {
          "indexed": true,
          "internalType": "uint256",
          "name": "tokenId",
          "type": "uint256"
        }
      ],
      "name": "Transfer",
      "type": "event"
    },
    {
      "inputs": [],
      "name": "accessCode",
      "outputs": [
        {
          "internalType": "uint64",
          "name": "",
          "type": "uint64"
        }
      ],
      "stateMutability": "view",
      "type": "function"
    },
    {
      "inputs": [
        {
          "internalType": "address",
          "name": "to",
          "type": "address"
        },
        {
          "internalType": "uint256",
          "name": "tokenId",
          "type": "uint256"
        }
      ],
      "name": "approve",
      "outputs": [],
      "stateMutability": "nonpayable",
      "type": "function"
    },
    {
      "inputs": [
        {
          "internalType": "address",
          "name": "owner",
          "type": "address"
        }
      ],
      "name": "balanceOf",
      "outputs": [
        {
          "internalType": "uint256",
          "name": "",
          "type": "uint256"
        }
      ],
      "stateMutability": "view",
      "type": "function"
    },
    {
      "inputs": [
        {
          "internalType": "uint256",
          "name": "tokenId",
          "type": "uint256"
        }
      ],
      "name": "getApproved",
      "outputs": [
        {
          "internalType": "address",
          "name": "",
          "type": "address"
        }
      ],
      "stateMutability": "view",
      "type": "function"
    },
    {
      "inputs": [
        {
          "internalType": "address",
          "name": "owner",
          "type": "address"
        },
        {
          "internalType": "address",
          "name": "operator",
          "type": "address"
        }
      ],
      "name": "isApprovedForAll",
      "outputs": [
        {
          "internalType": "bool",
          "name": "",
          "type": "bool"
        }
      ],
      "stateMutability": "view",
      "type": "function"
    },
    {
      "inputs": [],
      "name": "metadata",
      "outputs": [
        {
          "internalType": "string",
          "name": "",
          "type": "string"
        }
      ],
      "stateMutability": "view",
      "type": "function"
    },
    {
      "inputs": [],
      "name": "name",
      "outputs": [
        {
          "internalType": "string",
          "name": "",
          "type": "string"
        }
      ],
      "stateMutability": "view",
      "type": "function"
    },
    {
      "inputs": [
        {
          "internalType": "uint256",
          "name": "tokenId",
          "type": "uint256"
        }
      ],
      "name": "ownerOf",
      "outputs": [
        {
          "internalType": "address",
          "name": "",
          "type": "address"
        }
      ],
      "stateMutability": "view",
      "type": "function"
    },
    {
      "inputs": [
        {
          "internalType": "address",
          "name": "from",
          "type": "address"
        },
        {
          "internalType": "address",
          "name": "to",
          "type": "address"
        },
        {
          "internalType": "uint256",
          "name": "tokenId",
          "type": "uint256"
        }
      ],
      "name": "safeTransferFrom",
      "outputs": [],
      "stateMutability": "nonpayable",
      "type": "function"
    },
    {
      "inputs": [
        {
          "internalType": "address",
          "name": "from",
          "type": "address"
        },
        {
          "internalType": "address",
          "name": "to",
          "type": "address"
        },
        {
          "internalType": "uint256",
          "name": "tokenId",
          "type": "uint256"
        },
        {
          "internalType": "bytes",
          "name": "data",
          "type": "bytes"
        }
      ],
      "name": "safeTransferFrom",
      "outputs": [],
      "stateMutability": "nonpayable",
      "type": "function"
    },
    {
      "inputs": [
        {
          "internalType": "address",
          "name": "operator",
          "type": "address"
        },
        {
          "internalType": "bool",
          "name": "approved",
          "type": "bool"
        }
      ],
      "name": "setApprovalForAll",
      "outputs": [],
      "stateMutability": "nonpayable",
      "type": "function"
    },
    {
      "inputs": [
        {
          "internalType": "bytes4",
          "name": "interfaceId",
          "type": "bytes4"
        }
      ],
      "name": "supportsInterface",
      "outputs": [
        {
          "internalType": "bool",
          "name": "",
          "type": "bool"
        }
      ],
      "stateMutability": "view",
      "type": "function"
    },
    {
      "inputs": [],
      "name": "symbol",
      "outputs": [
        {
          "internalType": "string",
          "name": "",
          "type": "string"
        }
      ],
      "stateMutability": "view",
      "type": "function"
    },
    {
      "inputs": [
        {
          "internalType": "address",
          "name": "from",
          "type": "address"
        },
        {
          "internalType": "address",
          "name": "to",
          "type": "address"
        },
        {
          "internalType": "uint256",
          "name": "tokenId",
          "type": "uint256"
        }
      ],
      "name": "transferFrom",
      "outputs": [],
      "stateMutability": "nonpayable",
      "type": "function"
    },
    {
      "inputs": [
        {
          "internalType": "uint256",
          "name": "tokenId",
          "type": "uint256"
        }
      ],
      "name": "tokenURI",
      "outputs": [
        {
          "internalType": "string",
          "name": "",
          "type": "string"
        }
      ],
      "stateMutability": "view",
      "type": "function"
    },
    {
      "inputs": [
        {
          "internalType": "address",
          "name": "holder",
          "type": "address"
        },
        {
          "internalType": "uint256",
          "name": "allocation",
          "type": "uint256"
        }
      ],
      "name": "addMember",
      "outputs": [],
      "stateMutability": "nonpayable",
      "type": "function"
    },
    {
      "inputs": [
        {
          "internalType": "address",
          "name": "holder",
          "type": "address"
        }
      ],
      "name": "removeMember",
      "outputs": [],
      "stateMutability": "nonpayable",
      "type": "function"
    },
    {
      "inputs": [
        {
          "internalType": "address",
          "name": "from",
          "type": "address"
        },
        {
          "internalType": "uint256",
          "name": "amount",
          "type": "uint256"
        },
        {
          "internalType": "uint256",
          "name": "proposalId",
          "type": "uint256"
        }
      ],
      "name": "charge",
      "outputs": [],
      "stateMutability": "nonpayable",
      "type": "function"
    },
    {
      "inputs": [
        {
          "internalType": "uint256",
          "name": "proposalId",
          "type": "uint256"
        }
      ],
      "name": "refund",
      "outputs": [],
      "stateMutability": "nonpayable",
      "type": "function"
    },
    {
      "inputs": [
        {
          "internalType": "address",
          "name": "holder",
          "type": "address"
        },
        {
          "internalType": "uint256",
          "name": "amount",
          "type": "uint256"
        }
      ],
      "name": "holding",
      "outputs": [
        {
          "internalType": "bool",
          "name": "",
          "type": "bool"
        }
      ],
      "stateMutability": "view",
      "type": "function"
    },
    {
      "inputs": [],
      "name": "members",
      "outputs": [
        {
          "internalType": "address[]",
          "name": "",
          "type": "address[]"
        },
        {
          "internalType": "uint256[]",
          "name": "",
          "type": "uint256[]"
        }
      ],
      "stateMutability": "view",
      "type": "function"
    },
    {
      "inputs": [
        {
          "internalType": "address",
          "name": "to",
          "type": "address"
        },
        {
          "internalType": "uint256",
          "name": "amount",
          "type": "uint256"
        }
      ],
      "name": "reward",
      "outputs": [],
      "stateMutability": "nonpayable",
      "type": "function"
    }
  ],
  "bytecode": "0x604060a0815234620008ef57620020ab90813803806200001f8162000916565b93843982019060c083830312620008ef5782516001600160401b038111620008ef57826200004f9185016200093c565b60208401519093906001600160401b038111620008ef5783620000749183016200093c565b818301516001600160401b038111620008ef5784620000959184016200093c565b60608301519091906001600160401b038111620008ef5785620000ba9185016200093c565b60808401519096906001600160401b038111620008ef5784019386601f86011215620008ef578451620000f7620000f182620009ae565b62000916565b9560208088848152019260051b82010190898211620008ef57602001915b818310620008f45750505060a0810151906001600160401b038211620008ef57019580601f88011215620008ef57865162000154620000f182620009ae565b976020808a848152019260051b820101928311620008ef57602001905b828210620008de57505081519190506001600160401b038211620004225760005490600182811c92168015620008d3575b6020831014620005e15781601f84931162000870575b50602090601f8311600114620007f857600092620007ec575b50508160011b916000199060031b1c1916176000555b8051906001600160401b038211620004225760015490600182811c92168015620007e1575b6020831014620005e15781601f8493116200077d575b50602090601f83116001146200070357600092620006f7575b50508160011b916000199060031b1c1916176001555b6103e86080528051906001600160401b038211620004225760065490600182811c92168015620006ec575b6020831014620005e15781601f84931162000688575b50602090601f83116001146200060e5760009262000602575b50508160011b916000199060031b1c1916176006555b60005b81518110156200047b576001600160a01b0380620002e38385620009c6565b511690620002f28387620009c6565b518215620004385760008181526002602052604090205462000321906001600160a01b031615155b15620009db565b60008181526002602052604090205462000346906001600160a01b031615156200031a565b600083815260036020908152878220805460010190558282526002905286812080546001600160a01b0319908116861790915593907fddf252ad1be2c89b69c2b068fc378daa952ba7f163c4a11628f55a4df523b3ef8180a4620003ab8385620009c6565b51166007805490680100000000000000008210156200042257600182018082558210156200040c57600052602060002001918254161790556000198114620003f657600101620002c4565b634e487b7160e01b600052601160045260246000fd5b634e487b7160e01b600052603260045260246000fd5b634e487b7160e01b600052604160045260246000fd5b6064865162461bcd60e51b815260206004820152602060248201527f4552433732313a206d696e7420746f20746865207a65726f20616464726573736044820152fd5b8451859084906001600160401b0381116200042257600854600181811c91168015620005f7575b6020821014620005e157601f811162000577575b50602092601f82116001146200050c579281929360009262000500575b50508160011b916000199060031b1c1916176008555b51611622908162000a298239608051816105f20152f35b015190508380620004d3565b601f19821693600860005260206000209160005b8681106200055e575083600195961062000544575b505050811b01600855620004e9565b015160001960f88460031b161c1916905583808062000535565b9192602060018192868501518155019401920162000520565b60086000527ff3f7a9fe364faab93b216da50a3214154f22a0a2b415b23a84c8169e8b636ee3601f830160051c81019160208410620005d6575b601f0160051c01905b818110620005c95750620004b6565b60008155600101620005ba565b9091508190620005b1565b634e487b7160e01b600052602260045260246000fd5b90607f1690620004a2565b015190503880620002ab565b600660009081526000805160206200208b8339815191529350601f198516905b8181106200066f575090846001959493921062000655575b505050811b01600655620002c1565b015160001960f88460031b161c1916905538808062000646565b929360206001819287860151815501950193016200062e565b60066000529091506000805160206200208b833981519152601f840160051c81019160208510620006e1575b90601f859493920160051c01905b818110620006d1575062000292565b60008155849350600101620006c2565b9091508190620006b4565b91607f16916200027c565b0151905038806200023b565b600160009081526000805160206200206b8339815191529350601f198516905b8181106200076457509084600195949392106200074a575b505050811b0160015562000251565b015160001960f88460031b161c191690553880806200073b565b9293602060018192878601518155019501930162000723565b60016000529091506000805160206200206b833981519152601f840160051c81019160208510620007d6575b90601f859493920160051c01905b818110620007c6575062000222565b60008155849350600101620007b7565b9091508190620007a9565b91607f16916200020c565b015190503880620001d1565b60008080526000805160206200204b8339815191529350601f198516905b8181106200085757509084600195949392106200083d575b505050811b01600055620001e7565b015160001960f88460031b161c191690553880806200082e565b9293602060018192878601518155019501930162000816565b600080529091506000805160206200204b833981519152601f840160051c81019160208510620008c8575b90601f859493920160051c01905b818110620008b85750620001b8565b60008155849350600101620008a9565b90915081906200089b565b91607f1691620001a2565b815181526020918201910162000171565b600080fd5b82516001600160a01b0381168103620008ef5781526020928301920162000115565b6040519190601f01601f191682016001600160401b038111838210176200042257604052565b919080601f84011215620008ef5782516001600160401b038111620004225760209062000972601f8201601f1916830162000916565b92818452828287010111620008ef5760005b8181106200099a57508260009394955001015290565b858101830151848201840152820162000984565b6001600160401b038111620004225760051b60200190565b80518210156200040c5760209160051b010190565b15620009e357565b60405162461bcd60e51b815260206004820152601c60248201527f4552433732313a20746f6b656e20616c7265616479206d696e746564000000006044820152606490fdfe608060408181526004918236101561001657600080fd5b600092833560e01c91826301ffc9a714610d8f5750816306fdde0314610cc4578163081812fc14610ca4578163095ea7b314610b365781630b1ca49a14610b1c57816321670f2214610aff57816323b872dd14610ad5578163278ecde114610a58578163392f37e91461098b57816342842e0e1461093d57816354a9409e146108c35781636352211e1461089257816370a082311461086a57816395d89b411461079b57816398041ea3146106165781639a1789e5146105d1578163a22cb46514610501578163b88d4fde14610477578163ba60b6c314610447578163bdd4d18d14610286578163c87b56dd14610167575063e985e9c51461011757600080fd5b3461016357806003193601126101635760ff81602093610135610e3a565b61013d610e55565b6001600160a01b0391821683526005875283832091168252855220549151911615158152f35b5080fd5b838334610163576020908160031936011261028257805192806008549060019082821c928281168015610278575b8785108114610265578899509688969785829a52918260001461023e5750506001146101e2575b5050506101de92916101cf910385610ea0565b51928284938452830190610dfa565b0390f35b9190869350600883527ff3f7a9fe364faab93b216da50a3214154f22a0a2b415b23a84c8169e8b636ee35b82841061022657505050820101816101cf6101de6101bc565b8054848a01860152889550879490930192810161020d565b60ff19168782015293151560051b860190930193508492506101cf91506101de90506101bc565b634e487b7160e01b835260228a52602483fd5b93607f1693610195565b8280fd5b83915034610163578160031936011261016357600754916102a6836115d4565b926102b385519485610ea0565b8084526102bf816115d4565b6020858101949091601f1901368637835b8381106103b75750508551948186848152018093600786527fa66cc928b5edb82af9bd49922954155ab7b0942694bea4ce44661d9a8736c68890865b81811061039a5750505086610322910387610ea0565b865196879681880191885251809152606087019390855b81811061037a57505050858303868301525180835291810193925b82811061036357505050500390f35b835185528695509381019392810192600101610354565b82516001600160a01b031686528998509484019491840191600101610339565b82546001600160a01b03168452928501926001928301920161030c565b6103e06103c9829894969597986112cc565b905460039190911b1c6001600160a01b0316610ef4565b670de0b6b3a764000090818102918183041490151715610434578351821015610421579061041691868260051b860101526112a7565b9594929391956102d0565b634e487b7160e01b855260328352602485fd5b634e487b7160e01b855260118352602485fd5b505034610163578060031936011261016357602090600161046e610469610e3a565b610ef4565b10159051908152f35b9190503461028257608036600319011261028257610493610e3a565b61049b610e55565b846064359467ffffffffffffffff8611610163573660238701121561016357850135946104d36104ca87610ed8565b95519586610ea0565b858552366024878301011161016357856104fe9660246020930183880137850101526044359161107d565b80f35b9190503461028257806003193601126102825761051c610e3a565b90602435918215158093036105cd576001600160a01b03169233841461058b5750338452600560205280842083855260205280842060ff1981541660ff8416179055519081527f17307eab39ab6107e8899845ad3d59bd9653f200f220920489ca2b5937696c3160203392a380f35b6020606492519162461bcd60e51b8352820152601960248201527f4552433732313a20617070726f766520746f2063616c6c6572000000000000006044820152fd5b8480fd5b5050346101635781600319360112610163576020905167ffffffffffffffff7f0000000000000000000000000000000000000000000000000000000000000000168152f35b91905034610282578060031936011261028257610631610e3a565b600a8054600101908190556001600160a01b0393918416929083156107585760008181526002602052604090205461070b92919061067b906001600160a01b031615155b15611588565b60008181526002602052604090205461069e906001600160a01b03161515610675565b8487526003602052818720600181540190558087526002602052818720856bffffffffffffffffffffffff60a01b82541617905584877fddf252ad1be2c89b69c2b068fc378daa952ba7f163c4a11628f55a4df523b3ef8180a483865260096020528520600a5490611331565b60075490600160401b821015610745575080600161072c92016007556112cc565b909283549160031b90811b9283911b1691191617905580f35b634e487b7160e01b855260419052602484fd5b815162461bcd60e51b8152602081850181905260248201527f4552433732313a206d696e7420746f20746865207a65726f20616464726573736044820152606490fd5b8284346108675780600319360112610867578151918160019283549384811c9181861695861561085d575b6020968785108114610265578899509688969785829a52918260001461023e575050600114610802575050506101de92916101cf910385610ea0565b91908693508083527fb10e2d527612073b26eecdfd717e6a320cf44b4afac2b0732d9fcbe2b7fa0cf65b82841061084557505050820101816101cf6101de6101bc565b8054848a01860152889550879490930192810161082c565b92607f16926107c6565b80fd5b5050346101635760203660031901126101635760209061088b610469610e3a565b9051908152f35b82843461086757602036600319011261086757506108b260209235610fb7565b90516001600160a01b039091168152f35b91905034610282576060366003190112610282576108df610e3a565b9160018060a01b0383169081855260096020528285209081541561092a57508452610911602085205480943090611368565b6044358452600b60205281842090845260205282205580f35b634e487b7160e01b865260329052602485fd5b8383346101635761094d36610e6b565b91835193602085019085821067ffffffffffffffff831117610978576104fe9697505285845261107d565b634e487b7160e01b875260418852602487fd5b8284346108675780600319360112610867578151918160065492600184811c91818616958615610a4e575b6020968785108114610265578899509688969785829a52918260001461023e5750506001146109f2575050506101de92916101cf910385610ea0565b9190869350600683527ff652222313e28459528d920b65115c16c04f3efc82aaedc97be59f3f377c0d3f5b828410610a3657505050820101816101cf6101de6101bc565b8054848a018601528895508794909301928101610a1d565b92607f16926109b6565b8284346108675760209283600319360112610163573591815b600754811015610ad15780610a88610acc926112cc565b60018060a01b0391549060031b1c16858552600b8088528486208287528852610ab5858720548330611368565b8686528752838520908552865283838120556112a7565b610a71565b8280f35b8334610867576104fe610ae736610e6b565b91610afa610af58433611118565b61101b565b611368565b5050346101635736600319011261086757610b18610e3a565b5080f35b833461086757602036600319011261086757610b18610e3a565b905034610282578160031936011261028257610b50610e3a565b6024359290916001600160a01b0391908280610b6b87610fb7565b16941693808514610c5757803314908115610c38575b5015610bd057848652602052842080546001600160a01b03191683179055610ba883610fb7565b167f8c5be1e5ebec7d5bd14f71427d1e84f3dd0314c0f7b2291e5b200ac8c7c3b9258480a480f35b6020608492519162461bcd60e51b8352820152603d60248201527f4552433732313a20617070726f76652063616c6c6572206973206e6f7420746f60448201527f6b656e206f776e6572206f7220617070726f76656420666f7220616c6c0000006064820152fd5b90508652600560205281862033875260205260ff828720541638610b81565b506020608492519162461bcd60e51b8352820152602160248201527f4552433732313a20617070726f76616c20746f2063757272656e74206f776e656044820152603960f91b6064820152fd5b82843461086757602036600319011261086757506108b260209235610fdd565b82843461086757806003193601126108675781519181825492600184811c91818616958615610d85575b6020968785108114610265578899509688969785829a52918260001461023e575050600114610d2a575050506101de92916101cf910385610ea0565b91908693508280527f290decd9548b62a8d60345a988386fc84ba6bc95484008f6362f93160ef3e5635b828410610d6d57505050820101816101cf6101de6101bc565b8054848a018601528895508794909301928101610d54565b92607f1692610cee565b849134610282576020366003190112610282573563ffffffff60e01b811680910361028257602092506380ac58cd60e01b8114908115610de9575b8115610dd8575b5015158152f35b6301ffc9a760e01b14905083610dd1565b635b5e139f60e01b81149150610dca565b919082519283825260005b848110610e26575050826000602080949584010152601f8019910116010190565b602081830181015184830182015201610e05565b600435906001600160a01b0382168203610e5057565b600080fd5b602435906001600160a01b0382168203610e5057565b6060906003190112610e50576001600160a01b03906004358281168103610e5057916024359081168103610e50579060443590565b90601f8019910116810190811067ffffffffffffffff821117610ec257604052565b634e487b7160e01b600052604160045260246000fd5b67ffffffffffffffff8111610ec257601f01601f191660200190565b6001600160a01b03168015610f1457600052600360205260406000205490565b60405162461bcd60e51b815260206004820152602960248201527f4552433732313a2061646472657373207a65726f206973206e6f7420612076616044820152683634b21037bbb732b960b91b6064820152608490fd5b15610f7257565b60405162461bcd60e51b815260206004820152601860248201527f4552433732313a20696e76616c696420746f6b656e20494400000000000000006044820152606490fd5b6000908152600260205260409020546001600160a01b0316610fda811515610f6b565b90565b600081815260026020526040902054611000906001600160a01b03161515610f6b565b6000908152600460205260409020546001600160a01b031690565b1561102257565b60405162461bcd60e51b815260206004820152602d60248201527f4552433732313a2063616c6c6572206973206e6f7420746f6b656e206f776e6560448201526c1c881bdc88185c1c1c9bdd9959609a1b6064820152608490fd5b906110a1939291611091610af58433611118565b61109c838383611368565b611186565b156110a857565b60405162461bcd60e51b8152806110c1600482016110c5565b0390fd5b60809060208152603260208201527f4552433732313a207472616e7366657220746f206e6f6e20455243373231526560408201527131b2b4bb32b91034b6b83632b6b2b73a32b960711b60608201520190565b906001600160a01b03808061112c84610fb7565b1693169183831493841561115f575b508315611149575b50505090565b61115591929350610fdd565b1614388080611143565b909350600052600560205260406000208260005260205260ff60406000205416923861113b565b9293600093909291803b1561129c579484916111e09660405180948193630a85bd0160e11b9788845233600485015260018060a01b0380921660248501526044840152608060648401528260209b8c976084830190610dfa565b0393165af184918161125c575b5061124b575050503d600014611243573d61120781610ed8565b906112156040519283610ea0565b81528091833d92013e5b805191826112405760405162461bcd60e51b8152806110c1600482016110c5565b01fd5b50606061121f565b6001600160e01b0319161492509050565b9091508581813d8311611295575b6112748183610ea0565b810103126105cd57516001600160e01b0319811681036105cd5790386111ed565b503d61126a565b505050915050600190565b60001981146112b65760010190565b634e487b7160e01b600052601160045260246000fd5b6007548110156113035760076000527fa66cc928b5edb82af9bd49922954155ab7b0942694bea4ce44661d9a8736c6880190600090565b634e487b7160e01b600052603260045260246000fd5b80548210156113035760005260206000200190600090565b8054600160401b811015610ec25761134e91600182018155611319565b819291549060031b600019811b9283911b16911916179055565b9160005b60018060a01b038085169081600052600960208181526040928360002054861015611409579183918793846113a9896113c49a9998600020611319565b919054600392831b1c146113c9575b505050505050506112a7565b61136c565b6113fd966000528383526113e08886600020611319565b9091825491600019911b1b19169055891660005252600020611331565b388381808080806113b8565b50505050505091906114389161141e84610fb7565b6001600160a01b039391841692849290918316841461152e565b169182156114dd57816114559161144e86610fb7565b161461152e565b82600052600460205260406000206bffffffffffffffffffffffff60a01b908181541690558160005260036020526040600020600019815401905582600052604060002060018154019055836000526002602052826040600020918254161790557fddf252ad1be2c89b69c2b068fc378daa952ba7f163c4a11628f55a4df523b3ef600080a4565b60405162461bcd60e51b8152602060048201526024808201527f4552433732313a207472616e7366657220746f20746865207a65726f206164646044820152637265737360e01b6064820152608490fd5b1561153557565b60405162461bcd60e51b815260206004820152602560248201527f4552433732313a207472616e736665722066726f6d20696e636f72726563742060448201526437bbb732b960d91b6064820152608490fd5b1561158f57565b60405162461bcd60e51b815260206004820152601c60248201527f4552433732313a20746f6b656e20616c7265616479206d696e746564000000006044820152606490fd5b67ffffffffffffffff8111610ec25760051b6020019056fea2646970667358221220b7f4168c67ddb8b78aad511dd7fc799d6b01e756eff28678a9c6132db47bd01864736f6c63430008110033290decd9548b62a8d60345a988386fc84ba6bc95484008f6362f93160ef3e563b10e2d527612073b26eecdfd717e6a320cf44b4afac2b0732d9fcbe2b7fa0cf6f652222313e28459528d920b65115c16c04f3efc82aaedc97be59f3f377c0d3f",
  "immutableReferences": {
    "3644": [
      {
        "length": 32,
        "start": 1522
      }
    ]
  },
  "source": "// SPDX-License-Identifier: MIT\r\npragma solidity ^0.8.17;\r\n\r\nimport \"./../Plugin.sol\";\r\nimport \"./../libraries/PluginLib.sol\";\r\nimport \"@openzeppelin/contracts/utils/Counters.sol\";\r\nimport \"@openzeppelin/contracts/token/ERC721/ERC721.sol\";\r\n\r\ncontract SpaceVotingNFT is ERC721, Plugin {\r\n    using Counters for Counters.Counter;\r\n\r\n    address[] private _holders;\r\n\r\n    string private _tokenURI;\r\n    mapping(address => uint256[]) private _holderTokens;\r\n\r\n    Counters.Counter private _tokenID;\r\n\r\n    mapping(uint256 => mapping(address => uint256)) _lockeds;\r\n\r\n    constructor(\r\n        string memory name_,\r\n        string memory symbol_,\r\n        string memory pluginMetadata_,\r\n        string memory tokenURI_,\r\n        address[] memory holders_,\r\n        uint256[] memory allocations_\r\n    )\r\n        ERC721(name_, symbol_)\r\n        Plugin(PluginLib.MEMBERSHIP_CODE, pluginMetadata_)\r\n    {\r\n        for (uint256 index = 0; index < holders_.length; index++) {\r\n            _mint(holders_[index], allocations_[index]);\r\n            _holders.push(holders_[index]);\r\n        }\r\n        _tokenURI = tokenURI_;\r\n    }\r\n\r\n    function tokenURI(\r\n        uint256 tokenId\r\n    ) public view virtual override returns (string memory) {\r\n        return _tokenURI;\r\n    }\r\n\r\n    function _transfer(\r\n        address from,\r\n        address to,\r\n        uint256 tokenId\r\n    ) internal override {\r\n        for (uint256 index = 0; index < _holderTokens[from].length; index++) {\r\n            if (_holderTokens[from][index] == tokenId) {\r\n                delete _holderTokens[from][index];\r\n                _holderTokens[to].push(tokenId);\r\n            }\r\n        }\r\n        super._transfer(from, to, tokenId);\r\n    }\r\n\r\n    function addMember(address holder, uint256 allocation) external override {\r\n        // EXPERIMENTAL\r\n        // for (uint256 index = 0; index < allocation; index++) {\r\n        //     _tokenID.increment();\r\n        //     _mint(holder, _tokenID.current());\r\n        //     _holders.push(holder);\r\n        // }\r\n        _tokenID.increment();\r\n        _mint(holder, _tokenID.current());\r\n        _holderTokens[holder].push(_tokenID.current());\r\n        _holders.push(holder);\r\n    }\r\n\r\n    function removeMember(address holder) external override {}\r\n\r\n    function charge(address from, uint256 amount, uint256 proposalId) external {\r\n        uint256 tokenId = _holderTokens[from][0];\r\n        _transfer(from, address(this), tokenId);\r\n        _lockeds[proposalId][from] = tokenId;\r\n    }\r\n\r\n    function refund(uint256 proposalId) external override {\r\n        for (uint256 index = 0; index < _holders.length; index++) {\r\n            address holder = _holders[index];\r\n            uint256 tokenId = _lockeds[proposalId][holder];\r\n            _transfer(address(this), holder, tokenId);\r\n            delete _lockeds[proposalId][holder];\r\n        }\r\n    }\r\n\r\n    function holding(\r\n        address holder,\r\n        uint256 amount\r\n    ) external view override returns (bool) {\r\n        return balanceOf(holder) >= 1;\r\n    }\r\n\r\n    function members()\r\n        external\r\n        view\r\n        override\r\n        returns (address[] memory, uint256[] memory)\r\n    {\r\n        uint256[] memory _allocations = new uint256[](_holders.length);\r\n\r\n        for (uint256 index = 0; index < _holders.length; index++) {\r\n            _allocations[index] = _toWei(balanceOf(_holders[index]));\r\n        }\r\n\r\n        return (_holders, _allocations);\r\n    }\r\n\r\n    function _toWei(uint256 amount) private view returns (uint256) {\r\n        return (amount * 10 ** 18);\r\n    }\r\n\r\n    // UNUSED METHODS\r\n    function reward(address to, uint256 amount) external override {}\r\n}\r\n",
  "sourcePath": "C:\\Users\\DELL\\Documents\\space\\solidity\\contracts\\space-plugins\\SpaceVotingNFT.sol",
  "compiler": {
    "name": "solc",
    "version": "0.8.17+commit.8df45f5f.Emscripten.clang"
  },
  "schemaVersion": "3.4.11",
  "updatedAt": "2023-09-27T08:27:53.257Z",
  "devdoc": {
    "kind": "dev",
    "methods": {
      "approve(address,uint256)": {
        "details": "See {IERC721-approve}."
      },
      "balanceOf(address)": {
        "details": "See {IERC721-balanceOf}."
      },
      "getApproved(uint256)": {
        "details": "See {IERC721-getApproved}."
      },
      "isApprovedForAll(address,address)": {
        "details": "See {IERC721-isApprovedForAll}."
      },
      "name()": {
        "details": "See {IERC721Metadata-name}."
      },
      "ownerOf(uint256)": {
        "details": "See {IERC721-ownerOf}."
      },
      "safeTransferFrom(address,address,uint256)": {
        "details": "See {IERC721-safeTransferFrom}."
      },
      "safeTransferFrom(address,address,uint256,bytes)": {
        "details": "See {IERC721-safeTransferFrom}."
      },
      "setApprovalForAll(address,bool)": {
        "details": "See {IERC721-setApprovalForAll}."
      },
      "supportsInterface(bytes4)": {
        "details": "See {IERC165-supportsInterface}."
      },
      "symbol()": {
        "details": "See {IERC721Metadata-symbol}."
      },
      "tokenURI(uint256)": {
        "details": "See {IERC721Metadata-tokenURI}."
      },
      "transferFrom(address,address,uint256)": {
        "details": "See {IERC721-transferFrom}."
      }
    },
    "version": 1
  },
  "userdoc": {
    "kind": "user",
    "methods": {},
    "version": 1
  }
}