{
  "contractName": "SpaceRewardNFT",
  "abi": [
    {
      "inputs": [
        {
          "internalType": "string",
          "name": "name_",
          "type": "string"
        },
        {
          "internalType": "string",
          "name": "symbol_",
          "type": "string"
        },
        {
          "internalType": "string",
          "name": "pluginMetadata_",
          "type": "string"
        },
        {
          "internalType": "string",
          "name": "rewardURI_",
          "type": "string"
        }
      ],
      "stateMutability": "nonpayable",
      "type": "constructor"
    },
    {
      "anonymous": false,
      "inputs": [
        {
          "indexed": true,
          "internalType": "address",
          "name": "owner",
          "type": "address"
        },
        {
          "indexed": true,
          "internalType": "address",
          "name": "approved",
          "type": "address"
        },
        {
          "indexed": true,
          "internalType": "uint256",
          "name": "tokenId",
          "type": "uint256"
        }
      ],
      "name": "Approval",
      "type": "event"
    },
    {
      "anonymous": false,
      "inputs": [
        {
          "indexed": true,
          "internalType": "address",
          "name": "owner",
          "type": "address"
        },
        {
          "indexed": true,
          "internalType": "address",
          "name": "operator",
          "type": "address"
        },
        {
          "indexed": false,
          "internalType": "bool",
          "name": "approved",
          "type": "bool"
        }
      ],
      "name": "ApprovalForAll",
      "type": "event"
    },
    {
      "anonymous": false,
      "inputs": [
        {
          "indexed": true,
          "internalType": "address",
          "name": "from",
          "type": "address"
        },
        {
          "indexed": true,
          "internalType": "address",
          "name": "to",
          "type": "address"
        },
        {
          "indexed": true,
          "internalType": "uint256",
          "name": "tokenId",
          "type": "uint256"
        }
      ],
      "name": "Transfer",
      "type": "event"
    },
    {
      "inputs": [],
      "name": "accessCode",
      "outputs": [
        {
          "internalType": "uint64",
          "name": "",
          "type": "uint64"
        }
      ],
      "stateMutability": "view",
      "type": "function"
    },
    {
      "inputs": [
        {
          "internalType": "address",
          "name": "to",
          "type": "address"
        },
        {
          "internalType": "uint256",
          "name": "tokenId",
          "type": "uint256"
        }
      ],
      "name": "approve",
      "outputs": [],
      "stateMutability": "nonpayable",
      "type": "function"
    },
    {
      "inputs": [
        {
          "internalType": "address",
          "name": "owner",
          "type": "address"
        }
      ],
      "name": "balanceOf",
      "outputs": [
        {
          "internalType": "uint256",
          "name": "",
          "type": "uint256"
        }
      ],
      "stateMutability": "view",
      "type": "function"
    },
    {
      "inputs": [
        {
          "internalType": "uint256",
          "name": "tokenId",
          "type": "uint256"
        }
      ],
      "name": "getApproved",
      "outputs": [
        {
          "internalType": "address",
          "name": "",
          "type": "address"
        }
      ],
      "stateMutability": "view",
      "type": "function"
    },
    {
      "inputs": [
        {
          "internalType": "address",
          "name": "owner",
          "type": "address"
        },
        {
          "internalType": "address",
          "name": "operator",
          "type": "address"
        }
      ],
      "name": "isApprovedForAll",
      "outputs": [
        {
          "internalType": "bool",
          "name": "",
          "type": "bool"
        }
      ],
      "stateMutability": "view",
      "type": "function"
    },
    {
      "inputs": [],
      "name": "metadata",
      "outputs": [
        {
          "internalType": "string",
          "name": "",
          "type": "string"
        }
      ],
      "stateMutability": "view",
      "type": "function"
    },
    {
      "inputs": [],
      "name": "name",
      "outputs": [
        {
          "internalType": "string",
          "name": "",
          "type": "string"
        }
      ],
      "stateMutability": "view",
      "type": "function"
    },
    {
      "inputs": [
        {
          "internalType": "uint256",
          "name": "tokenId",
          "type": "uint256"
        }
      ],
      "name": "ownerOf",
      "outputs": [
        {
          "internalType": "address",
          "name": "",
          "type": "address"
        }
      ],
      "stateMutability": "view",
      "type": "function"
    },
    {
      "inputs": [
        {
          "internalType": "address",
          "name": "from",
          "type": "address"
        },
        {
          "internalType": "address",
          "name": "to",
          "type": "address"
        },
        {
          "internalType": "uint256",
          "name": "tokenId",
          "type": "uint256"
        }
      ],
      "name": "safeTransferFrom",
      "outputs": [],
      "stateMutability": "nonpayable",
      "type": "function"
    },
    {
      "inputs": [
        {
          "internalType": "address",
          "name": "from",
          "type": "address"
        },
        {
          "internalType": "address",
          "name": "to",
          "type": "address"
        },
        {
          "internalType": "uint256",
          "name": "tokenId",
          "type": "uint256"
        },
        {
          "internalType": "bytes",
          "name": "data",
          "type": "bytes"
        }
      ],
      "name": "safeTransferFrom",
      "outputs": [],
      "stateMutability": "nonpayable",
      "type": "function"
    },
    {
      "inputs": [
        {
          "internalType": "address",
          "name": "operator",
          "type": "address"
        },
        {
          "internalType": "bool",
          "name": "approved",
          "type": "bool"
        }
      ],
      "name": "setApprovalForAll",
      "outputs": [],
      "stateMutability": "nonpayable",
      "type": "function"
    },
    {
      "inputs": [
        {
          "internalType": "bytes4",
          "name": "interfaceId",
          "type": "bytes4"
        }
      ],
      "name": "supportsInterface",
      "outputs": [
        {
          "internalType": "bool",
          "name": "",
          "type": "bool"
        }
      ],
      "stateMutability": "view",
      "type": "function"
    },
    {
      "inputs": [],
      "name": "symbol",
      "outputs": [
        {
          "internalType": "string",
          "name": "",
          "type": "string"
        }
      ],
      "stateMutability": "view",
      "type": "function"
    },
    {
      "inputs": [
        {
          "internalType": "address",
          "name": "from",
          "type": "address"
        },
        {
          "internalType": "address",
          "name": "to",
          "type": "address"
        },
        {
          "internalType": "uint256",
          "name": "tokenId",
          "type": "uint256"
        }
      ],
      "name": "transferFrom",
      "outputs": [],
      "stateMutability": "nonpayable",
      "type": "function"
    },
    {
      "inputs": [
        {
          "internalType": "uint256",
          "name": "tokenId",
          "type": "uint256"
        }
      ],
      "name": "tokenURI",
      "outputs": [
        {
          "internalType": "string",
          "name": "",
          "type": "string"
        }
      ],
      "stateMutability": "view",
      "type": "function"
    },
    {
      "inputs": [
        {
          "internalType": "address",
          "name": "to",
          "type": "address"
        },
        {
          "internalType": "uint256",
          "name": "amount",
          "type": "uint256"
        }
      ],
      "name": "reward",
      "outputs": [],
      "stateMutability": "nonpayable",
      "type": "function"
    },
    {
      "inputs": [
        {
          "internalType": "address",
          "name": "holder",
          "type": "address"
        },
        {
          "internalType": "uint256",
          "name": "allocation",
          "type": "uint256"
        }
      ],
      "name": "addMember",
      "outputs": [],
      "stateMutability": "nonpayable",
      "type": "function"
    },
    {
      "inputs": [
        {
          "internalType": "address",
          "name": "holder",
          "type": "address"
        }
      ],
      "name": "removeMember",
      "outputs": [],
      "stateMutability": "nonpayable",
      "type": "function"
    },
    {
      "inputs": [
        {
          "internalType": "address",
          "name": "from",
          "type": "address"
        },
        {
          "internalType": "uint256",
          "name": "amount",
          "type": "uint256"
        },
        {
          "internalType": "uint256",
          "name": "proposalId",
          "type": "uint256"
        }
      ],
      "name": "charge",
      "outputs": [],
      "stateMutability": "nonpayable",
      "type": "function"
    },
    {
      "inputs": [
        {
          "internalType": "uint256",
          "name": "proposalId",
          "type": "uint256"
        }
      ],
      "name": "refund",
      "outputs": [],
      "stateMutability": "nonpayable",
      "type": "function"
    },
    {
      "inputs": [
        {
          "internalType": "address",
          "name": "holder",
          "type": "address"
        },
        {
          "internalType": "uint256",
          "name": "amount",
          "type": "uint256"
        }
      ],
      "name": "holding",
      "outputs": [
        {
          "internalType": "bool",
          "name": "",
          "type": "bool"
        }
      ],
      "stateMutability": "view",
      "type": "function"
    },
    {
      "inputs": [],
      "name": "members",
      "outputs": [
        {
          "internalType": "address[]",
          "name": "",
          "type": "address[]"
        },
        {
          "internalType": "uint256[]",
          "name": "",
          "type": "uint256[]"
        }
      ],
      "stateMutability": "view",
      "type": "function"
    }
  ],
  "bytecode": "0x60a060405234620005fc57620019e5803803806200001d8162000601565b9283398101608082820312620005fc5781516001600160401b039190828111620005fc57816200004f91850162000627565b9060209384810151848111620005fc57826200006d91830162000627565b906040810151858111620005fc57836200008991830162000627565b926060820151868111620005fc57620000a3920162000627565b90835192858411620005e6576000918254946001968787811c97168015620005db575b8a881014620004e4578190601f9788811162000588575b508a908883116001146200052357869262000517575b5050600019600383901b1c191690871b1783555b805190878211620005035786548781811c91168015620004f8575b8a821014620004e45790818784931162000491575b5089908783116001146200042d57859262000421575b5050600019600383901b1c191690861b1785555b6103eb6080528051908682116200040d576006548681811c9116801562000402575b89821014620003ee579081868493116200039a575b5088908683116001146200033457849262000328575b5050600019600383901b1c191690851b176006555b815194851162000314576007548481811c9116801562000309575b87821014620002f557838111620002ac575b50859285116001146200024357939450849291908362000237575b50501b916000199060031b1c1916176007555b60405161134b90816200069a82396080518161058a0152f35b0151925038806200020b565b6007815285812093958591601f198316915b8883831062000291575050501062000277575b505050811b016007556200021e565b015160001960f88460031b161c1916905538808062000268565b85870151885590960195948501948793509081019062000255565b600782528682208480880160051c820192898910620002eb575b0160051c019085905b828110620002df575050620001f0565b838155018590620002cf565b92508192620002c6565b634e487b7160e01b82526022600452602482fd5b90607f1690620001de565b634e487b7160e01b81526041600452602490fd5b015190503880620001ae565b600685528985208894509190601f198416865b8c82821062000383575050841162000369575b505050811b01600655620001c3565b015160001960f88460031b161c191690553880806200035a565b8385015186558b9790950194938401930162000347565b909150600684528884208680850160051c8201928b8610620003e4575b918991869594930160051c01915b828110620003d557505062000198565b868155859450899101620003c5565b92508192620003b7565b634e487b7160e01b84526022600452602484fd5b90607f169062000183565b634e487b7160e01b83526041600452602483fd5b0151905038806200014d565b8886528a86208994509190601f198416875b8d8282106200047a575050841162000460575b505050811b01855562000161565b015160001960f88460031b161c1916905538808062000452565b8385015186558c979095019493840193016200043f565b9091508785528985208780850160051c8201928c8610620004da575b918a91869594930160051c01915b828110620004cb57505062000137565b8781558594508a9101620004bb565b92508192620004ad565b634e487b7160e01b85526022600452602485fd5b90607f169062000122565b634e487b7160e01b84526041600452602484fd5b015190503880620000f3565b8680528b87208a94509190601f198416888e5b82821062000570575050841162000556575b505050811b01835562000107565b015160001960f88460031b161c1916905538808062000548565b8385015186558d979095019493840193018e62000536565b9091508580528a86208880850160051c8201928d8610620005d1575b918b91869594930160051c01915b828110620005c2575050620000dd565b8881558594508b9101620005b2565b92508192620005a4565b96607f1696620000c6565b634e487b7160e01b600052604160045260246000fd5b600080fd5b6040519190601f01601f191682016001600160401b03811183821017620005e657604052565b919080601f84011215620005fc5782516001600160401b038111620005e6576020906200065d601f8201601f1916830162000601565b92818452828287010111620005fc5760005b8181106200068557508260009394955001015290565b85810183015184820184015282016200066f56fe608060408181526004918236101561001657600080fd5b600092833560e01c91826301ffc9a714610b3b5750816306fdde0314610a70578163081812fc14610a50578163095ea7b3146108e25781630b1ca49a146108c857816321670f22146105ae57816323b872dd1461089e578163278ecde114610889578163392f37e9146107bc57816342842e0e1461076e57816354a9409e146107505781636352211e1461071f57816370a082311461068957816395d89b41146105ba57816398041ea3146105ae5781639a1789e514610569578163a22cb46514610499578163b88d4fde1461040f578163ba60b6c3146103ea578163bdd4d18d14610287578163c87b56dd14610168575063e985e9c514610118575b600080fd5b3461016457806003193601126101645760ff81602093610136610be6565b61013e610bfc565b6001600160a01b0391821683526005875283832091168252855220549151911615158152f35b5080fd5b838334610164576020908160031936011261028357805192806007549060019082821c928281168015610279575b8785108114610266578899509688969785829a52918260001461023f5750506001146101e3575b5050506101df92916101d0910385610d8c565b51928284938452830190610ba6565b0390f35b9190869350600783527fa66cc928b5edb82af9bd49922954155ab7b0942694bea4ce44661d9a8736c6885b82841061022757505050820101816101d06101df6101bd565b8054848a01860152889550879490930192810161020e565b60ff19168782015293151560051b860190930193508492506101d091506101df90506101bd565b634e487b7160e01b835260228a52602483fd5b93607f1693610196565b8280fd5b905034610283578260031936011261028357600854926102a6846112fd565b926102b381519485610d8c565b8484526102bf856112fd565b9160209182860193601f1901368537600196875b818111156103835750508051908382019582871067ffffffffffffffff88111761037057509286949184878a965284825280519681880191885251809152606087019390855b81811061035457505050858303868301525180835291810195925b8281106103415785870386f35b8351875295810195928101928401610334565b82516001600160a01b0316865294840194918401918701610319565b634e487b7160e01b845260419052602483fd5b61038c81610e2c565b6000198201908282116103d75789518210156103c4576001600160a01b031660059190911b89018601526103bf9061128c565b6102d3565b634e487b7160e01b865260328952602486fd5b634e487b7160e01b865260118952602486fd5b50503461016457806003193601126101645790602091610408610be6565b5051908152f35b919050346102835760803660031901126102835761042b610be6565b610433610bfc565b846064359467ffffffffffffffff86116101645736602387011215610164578501359461046b61046287610dc4565b95519586610d8c565b8585523660248783010111610164578561049696602460209301838801378501015260443591610ef2565b80f35b919050346102835780600319360112610283576104b4610be6565b9060243591821515809303610565576001600160a01b0316923384146105235750338452600560205280842083855260205280842060ff1981541660ff8416179055519081527f17307eab39ab6107e8899845ad3d59bd9653f200f220920489ca2b5937696c3160203392a380f35b6020606492519162461bcd60e51b8352820152601960248201527f4552433732313a20617070726f766520746f2063616c6c6572000000000000006044820152fd5b8480fd5b5050346101645781600319360112610164576020905167ffffffffffffffff7f0000000000000000000000000000000000000000000000000000000000000000168152f35b50505050610113610c12565b8284346106865780600319360112610686578151918160019283549384811c9181861695861561067c575b6020968785108114610266578899509688969785829a52918260001461023f575050600114610621575050506101df92916101d0910385610d8c565b91908693508083527fb10e2d527612073b26eecdfd717e6a320cf44b4afac2b0732d9fcbe2b7fa0cf65b82841061066457505050820101816101d06101df6101bd565b8054848a01860152889550879490930192810161064b565b92607f16926105e5565b80fd5b83915034610164576020366003190112610164576001600160a01b036106ad610be6565b169081156106ca5760208480858581526003845220549051908152f35b608490602085519162461bcd60e51b8352820152602960248201527f4552433732313a2061646472657373207a65726f206973206e6f7420612076616044820152683634b21037bbb732b960b91b6064820152fd5b828434610686576020366003190112610686575061073f60209235610e2c565b90516001600160a01b039091168152f35b83346106865760603660031901126106865761076a610be6565b5080f35b8383346101645761077e36610d57565b91835193602085019085821067ffffffffffffffff8311176107a95761049696975052858452610ef2565b634e487b7160e01b875260418852602487fd5b8284346106865780600319360112610686578151918160065492600184811c9181861695861561087f575b6020968785108114610266578899509688969785829a52918260001461023f575050600114610823575050506101df92916101d0910385610d8c565b9190869350600683527ff652222313e28459528d920b65115c16c04f3efc82aaedc97be59f3f377c0d3f5b82841061086757505050820101816101d06101df6101bd565b8054848a01860152889550879490930192810161084e565b92607f16926107e7565b83346106865760203660031901126106865780f35b8334610686576104966108b036610d57565b916108c36108be8433610f8d565b610e90565b611055565b83346106865760203660031901126106865761076a610be6565b9050346102835781600319360112610283576108fc610be6565b6024359290916001600160a01b039190828061091787610e2c565b16941693808514610a03578033149081156109e4575b501561097c57848652602052842080546001600160a01b0319168317905561095483610e2c565b167f8c5be1e5ebec7d5bd14f71427d1e84f3dd0314c0f7b2291e5b200ac8c7c3b9258480a480f35b6020608492519162461bcd60e51b8352820152603d60248201527f4552433732313a20617070726f76652063616c6c6572206973206e6f7420746f60448201527f6b656e206f776e6572206f7220617070726f76656420666f7220616c6c0000006064820152fd5b90508652600560205281862033875260205260ff82872054163861092d565b506020608492519162461bcd60e51b8352820152602160248201527f4552433732313a20617070726f76616c20746f2063757272656e74206f776e656044820152603960f91b6064820152fd5b828434610686576020366003190112610686575061073f60209235610e52565b82843461068657806003193601126106865781519181825492600184811c91818616958615610b31575b6020968785108114610266578899509688969785829a52918260001461023f575050600114610ad6575050506101df92916101d0910385610d8c565b91908693508280527f290decd9548b62a8d60345a988386fc84ba6bc95484008f6362f93160ef3e5635b828410610b1957505050820101816101d06101df6101bd565b8054848a018601528895508794909301928101610b00565b92607f1692610a9a565b849134610283576020366003190112610283573563ffffffff60e01b811680910361028357602092506380ac58cd60e01b8114908115610b95575b8115610b84575b5015158152f35b6301ffc9a760e01b14905083610b7d565b635b5e139f60e01b81149150610b76565b919082519283825260005b848110610bd2575050826000602080949584010152601f8019910116010190565b602081830181015184830182015201610bb1565b600435906001600160a01b038216820361011357565b602435906001600160a01b038216820361011357565b50346101135760408060031936011261011357610c2d610be6565b60248035916001600160a01b031680159160005b848110610c4a57005b60016008908581835401809355610d1457906002610d0f9392610c8b610c8584600052600260205260018060a01b0360406000205416151590565b156112b1565b600083815260026020526040902054610cae906001600160a01b03161515610c85565b86600052602090600382528a600020908154019055826000525287600020856bffffffffffffffffffffffff60a01b8254161790558460007fddf252ad1be2c89b69c2b068fc378daa952ba7f163c4a11628f55a4df523b3ef8180a461128c565b610c41565b875162461bcd60e51b8152602060048201819052818601527f4552433732313a206d696e7420746f20746865207a65726f20616464726573736044820152606490fd5b6060906003190112610113576001600160a01b0390600435828116810361011357916024359081168103610113579060443590565b90601f8019910116810190811067ffffffffffffffff821117610dae57604052565b634e487b7160e01b600052604160045260246000fd5b67ffffffffffffffff8111610dae57601f01601f191660200190565b15610de757565b60405162461bcd60e51b815260206004820152601860248201527f4552433732313a20696e76616c696420746f6b656e20494400000000000000006044820152606490fd5b6000908152600260205260409020546001600160a01b0316610e4f811515610de0565b90565b600081815260026020526040902054610e75906001600160a01b03161515610de0565b6000908152600460205260409020546001600160a01b031690565b15610e9757565b60405162461bcd60e51b815260206004820152602d60248201527f4552433732313a2063616c6c6572206973206e6f7420746f6b656e206f776e6560448201526c1c881bdc88185c1c1c9bdd9959609a1b6064820152608490fd5b90610f16939291610f066108be8433610f8d565b610f11838383611055565b61116b565b15610f1d57565b60405162461bcd60e51b815280610f3660048201610f3a565b0390fd5b60809060208152603260208201527f4552433732313a207472616e7366657220746f206e6f6e20455243373231526560408201527131b2b4bb32b91034b6b83632b6b2b73a32b960711b60608201520190565b906001600160a01b038080610fa184610e2c565b16931691838314938415610fd4575b508315610fbe575b50505090565b610fca91929350610e52565b1614388080610fb8565b909350600052600560205260406000208260005260205260ff604060002054169238610fb0565b1561100257565b60405162461bcd60e51b815260206004820152602560248201527f4552433732313a207472616e736665722066726f6d20696e636f72726563742060448201526437bbb732b960d91b6064820152608490fd5b9061107d9161106384610e2c565b6001600160a01b0393918416928492909183168414610ffb565b1691821561111a578161109a9161109386610e2c565b1614610ffb565b7fddf252ad1be2c89b69c2b068fc378daa952ba7f163c4a11628f55a4df523b3ef60008481526004602052604081206bffffffffffffffffffffffff60a01b9081815416905583825260036020526040822060001981540190558482526040822060018154019055858252600260205284604083209182541617905580a4565b60405162461bcd60e51b8152602060048201526024808201527f4552433732313a207472616e7366657220746f20746865207a65726f206164646044820152637265737360e01b6064820152608490fd5b9293600093909291803b15611281579484916111c59660405180948193630a85bd0160e11b9788845233600485015260018060a01b0380921660248501526044840152608060648401528260209b8c976084830190610ba6565b0393165af1849181611241575b50611230575050503d600014611228573d6111ec81610dc4565b906111fa6040519283610d8c565b81528091833d92013e5b805191826112255760405162461bcd60e51b815280610f3660048201610f3a565b01fd5b506060611204565b6001600160e01b0319161492509050565b9091508581813d831161127a575b6112598183610d8c565b8101031261056557516001600160e01b0319811681036105655790386111d2565b503d61124f565b505050915050600190565b600019811461129b5760010190565b634e487b7160e01b600052601160045260246000fd5b156112b857565b60405162461bcd60e51b815260206004820152601c60248201527f4552433732313a20746f6b656e20616c7265616479206d696e746564000000006044820152606490fd5b67ffffffffffffffff8111610dae5760051b6020019056fea2646970667358221220ec831b740bdcfae0ebb91f77d6ed3ebbc81a3e439eabd725ac412dd12af0dd7064736f6c63430008110033",
  "immutableReferences": {
    "3644": [
      {
        "length": 32,
        "start": 1418
      }
    ]
  },
  "source": "// SPDX-License-Identifier: MIT\r\npragma solidity ^0.8.17;\r\n\r\nimport \"./../Plugin.sol\";\r\nimport \"./../libraries/PluginLib.sol\";\r\nimport \"@openzeppelin/contracts/utils/Counters.sol\";\r\nimport \"@openzeppelin/contracts/token/ERC721/ERC721.sol\";\r\n\r\ncontract SpaceRewardNFT is ERC721, Plugin {\r\n    using Counters for Counters.Counter;\r\n    string private _tokenURI;\r\n\r\n    Counters.Counter private _tokenID;\r\n\r\n    constructor(\r\n        string memory name_,\r\n        string memory symbol_,\r\n        string memory pluginMetadata_,\r\n        string memory rewardURI_\r\n    )\r\n        ERC721(name_, symbol_)\r\n        Plugin(PluginLib.INCENTIVES_CODE, pluginMetadata_)\r\n    {\r\n        _tokenURI = rewardURI_;\r\n    }\r\n\r\n    function tokenURI(\r\n        uint256 tokenId\r\n    ) public view virtual override returns (string memory) {\r\n        return _tokenURI;\r\n    }\r\n\r\n    function reward(address to, uint256 amount) external override {\r\n        for (uint256 index = 0; index < amount; index++) {\r\n            _tokenID.increment();\r\n            _mint(to, _tokenID.current());\r\n        }\r\n    }\r\n\r\n    function addMember(address holder, uint256 allocation) external override {\r\n        for (uint256 index = 0; index < allocation; index++) {\r\n            _tokenID.increment();\r\n            _mint(holder, _tokenID.current());\r\n        }\r\n    }\r\n\r\n    // UNUSED METHODS\r\n    function removeMember(address holder) external override {}\r\n\r\n    function charge(\r\n        address from,\r\n        uint256 amount,\r\n        uint256 proposalId\r\n    ) external override {}\r\n\r\n    function refund(uint256 proposalId) external override {}\r\n\r\n    function holding(\r\n        address holder,\r\n        uint256 amount\r\n    ) external view override returns (bool) {\r\n        return false;\r\n    }\r\n\r\n    function members()\r\n        external\r\n        view\r\n        override\r\n        returns (address[] memory, uint256[] memory)\r\n    {\r\n        address[] memory _holders = new address[](_tokenID.current());\r\n\r\n        for (uint256 index = 1; index <= _tokenID.current(); index++) {\r\n            _holders[index - 1] = ownerOf(index);\r\n        }\r\n\r\n        return (_holders, new uint256[](0));\r\n    }\r\n}\r\n",
  "sourcePath": "C:\\Users\\DELL\\Documents\\space\\solidity\\contracts\\space-plugins\\SpaceRewardNFT.sol",
  "compiler": {
    "name": "solc",
    "version": "0.8.17+commit.8df45f5f.Emscripten.clang"
  },
  "schemaVersion": "3.4.11",
  "updatedAt": "2023-09-08T19:17:07.031Z",
  "devdoc": {
    "kind": "dev",
    "methods": {
      "approve(address,uint256)": {
        "details": "See {IERC721-approve}."
      },
      "balanceOf(address)": {
        "details": "See {IERC721-balanceOf}."
      },
      "getApproved(uint256)": {
        "details": "See {IERC721-getApproved}."
      },
      "isApprovedForAll(address,address)": {
        "details": "See {IERC721-isApprovedForAll}."
      },
      "name()": {
        "details": "See {IERC721Metadata-name}."
      },
      "ownerOf(uint256)": {
        "details": "See {IERC721-ownerOf}."
      },
      "safeTransferFrom(address,address,uint256)": {
        "details": "See {IERC721-safeTransferFrom}."
      },
      "safeTransferFrom(address,address,uint256,bytes)": {
        "details": "See {IERC721-safeTransferFrom}."
      },
      "setApprovalForAll(address,bool)": {
        "details": "See {IERC721-setApprovalForAll}."
      },
      "supportsInterface(bytes4)": {
        "details": "See {IERC165-supportsInterface}."
      },
      "symbol()": {
        "details": "See {IERC721Metadata-symbol}."
      },
      "tokenURI(uint256)": {
        "details": "See {IERC721Metadata-tokenURI}."
      },
      "transferFrom(address,address,uint256)": {
        "details": "See {IERC721-transferFrom}."
      }
    },
    "version": 1
  },
  "userdoc": {
    "kind": "user",
    "methods": {},
    "version": 1
  }
}