{
  "contractName": "SpaceVotingMultisig",
  "abi": [
    {
      "inputs": [
        {
          "internalType": "string",
          "name": "pluginMetadata_",
          "type": "string"
        },
        {
          "internalType": "address[]",
          "name": "signers_",
          "type": "address[]"
        }
      ],
      "stateMutability": "nonpayable",
      "type": "constructor"
    },
    {
      "inputs": [],
      "name": "accessCode",
      "outputs": [
        {
          "internalType": "uint64",
          "name": "",
          "type": "uint64"
        }
      ],
      "stateMutability": "view",
      "type": "function"
    },
    {
      "inputs": [],
      "name": "metadata",
      "outputs": [
        {
          "internalType": "string",
          "name": "",
          "type": "string"
        }
      ],
      "stateMutability": "view",
      "type": "function"
    },
    {
      "inputs": [
        {
          "internalType": "address",
          "name": "holder",
          "type": "address"
        },
        {
          "internalType": "uint256",
          "name": "amount",
          "type": "uint256"
        }
      ],
      "name": "holding",
      "outputs": [
        {
          "internalType": "bool",
          "name": "",
          "type": "bool"
        }
      ],
      "stateMutability": "view",
      "type": "function"
    },
    {
      "inputs": [
        {
          "internalType": "address",
          "name": "holder",
          "type": "address"
        },
        {
          "internalType": "uint256",
          "name": "allocation",
          "type": "uint256"
        }
      ],
      "name": "addMember",
      "outputs": [],
      "stateMutability": "nonpayable",
      "type": "function"
    },
    {
      "inputs": [],
      "name": "members",
      "outputs": [
        {
          "internalType": "address[]",
          "name": "",
          "type": "address[]"
        },
        {
          "internalType": "uint256[]",
          "name": "",
          "type": "uint256[]"
        }
      ],
      "stateMutability": "view",
      "type": "function"
    },
    {
      "inputs": [
        {
          "internalType": "uint256",
          "name": "proposalId",
          "type": "uint256"
        }
      ],
      "name": "refund",
      "outputs": [],
      "stateMutability": "nonpayable",
      "type": "function"
    },
    {
      "inputs": [
        {
          "internalType": "address",
          "name": "holder",
          "type": "address"
        }
      ],
      "name": "removeMember",
      "outputs": [],
      "stateMutability": "nonpayable",
      "type": "function"
    },
    {
      "inputs": [
        {
          "internalType": "address",
          "name": "from",
          "type": "address"
        },
        {
          "internalType": "uint256",
          "name": "amount",
          "type": "uint256"
        },
        {
          "internalType": "uint256",
          "name": "proposalId",
          "type": "uint256"
        }
      ],
      "name": "charge",
      "outputs": [],
      "stateMutability": "nonpayable",
      "type": "function"
    },
    {
      "inputs": [
        {
          "internalType": "address",
          "name": "to",
          "type": "address"
        },
        {
          "internalType": "uint256",
          "name": "amount",
          "type": "uint256"
        }
      ],
      "name": "reward",
      "outputs": [],
      "stateMutability": "nonpayable",
      "type": "function"
    }
  ],
  "bytecode": "0x60a060405234620002f457620008cb803803806200001d816200030e565b928339810190604081830312620002f45780516001600160401b039190828111620002f4578101601f93808583011215620002f457815194848611620001ed57602093601f199662000075868985840116016200030e565b9481865284878383010111620002f457869060005b838110620002f9575050600091860101528481015190868211620002f4570192828285011215620002f457835192868411620001ed578360051b9486620000d38188016200030e565b809681520190878297820101928311620002f4578701905b828210620002d3575050506103e8608052805191868311620001ed57600054916001988984811c94168015620002c8575b88851014620002b257838386951162000275575b50879284116001146200020f575060009262000203575b5050600019600383901b1c191690861b176000555b51928311620001ed57680100000000000000008311620001ed578354838555808410620001cd575b5090836000528060002060005b848110620001b25760405161057d90816200034e8239608051816101fc0152f35b83516001600160a01b03168282015592820192850162000191565b620001e690856000528484600020918201910162000334565b3862000184565b634e487b7160e01b600052604160045260246000fd5b01519050388062000147565b8994929192169160008052876000209260005b898282106200025e575050841162000244575b505050811b016000556200015c565b015160001960f88460031b161c1916905538808062000235565b8385015186558c9790950194938401930162000222565b620002a19060008052896000208580880160051c8201928c8910620002a8575b0160051c019062000334565b3862000130565b9250819262000295565b634e487b7160e01b600052602260045260246000fd5b93607f16936200011c565b81516001600160a01b0381168103620002f4578152908701908701620000eb565b600080fd5b8181018301518882018401528892016200008a565b6040519190601f01601f191682016001600160401b03811183821017620001ed57604052565b81811062000340575050565b600081556001016200033456fe6080604090808252600436101561001557600080fd5b600090813560e01c9081630b1ca49a1461042757816321670f221461040e578163278ecde1146103f9578163392f37e9146102b35750806354a9409e1461029557806398041ea3146102205780639a1789e5146101db578063ba60b6c3146101a95763bdd4d18d1461008657600080fd5b346101a657806003193601126101a6578151906020908183019183831067ffffffffffffffff8411176101925782859395528184528251908194600194828654948581520180948787527fb10e2d527612073b26eecdfd717e6a320cf44b4afac2b0732d9fcbe2b7fa0cf690875b818110610176575050508761010a910388610458565b80519681880191885251809152606087019390855b81811061015a57505050858303868301525180835291810195925b8281106101475785870386f35b835187529581019592810192840161013a565b82516001600160a01b031686529484019491840191870161011f565b82546001600160a01b03168452928601929189019189016100f4565b634e487b7160e01b82526041600452602482fd5b80fd5b5090346101d757806003193601126101d7576020906101ce6101c961043d565b6104dd565b90519015158152f35b5080fd5b5090346101d757816003193601126101d7576020905167ffffffffffffffff7f0000000000000000000000000000000000000000000000000000000000000000168152f35b5090346101d7573660031901126101a65761023961043d565b600154680100000000000000008110156102815780600161025d9201600155610490565b819291549060031b9160018060a01b039283811b93849216901b1691191617905580f35b634e487b7160e01b83526041600452602483fd5b50346101a65760603660031901126101a6576102af61043d565b5080f35b839150346103f557826003193601126103f55782805493600185811c908087169687156103eb575b60209788841081146103d7579183918995938895865290816000146103b6575060011461035b575b50506103159250959392950382610458565b82519382859384528251928382860152825b84811061034557505050828201840152601f01601f19168101030190f35b8181018301518882018801528795508201610327565b8580527f290decd9548b62a8d60345a988386fc84ba6bc95484008f6362f93160ef3e5639492508591905b81831061039e57508894505082010161031588610303565b85548884018501529485019487945091830191610386565b91505061031594925060ff191682840152151560051b820101869288610303565b634e487b7160e01b86526022600452602486fd5b91607f16916102db565b8280fd5b82346101a65760203660031901126101a65780f35b8284346101d7573660031901126101a6576102af61043d565b82346101a65760203660031901126101a6576102af5b600435906001600160a01b038216820361045357565b600080fd5b90601f8019910116810190811067ffffffffffffffff82111761047a57604052565b634e487b7160e01b600052604160045260246000fd5b6001548110156104c75760016000527fb10e2d527612073b26eecdfd717e6a320cf44b4afac2b0732d9fcbe2b7fa0cf60190600090565b634e487b7160e01b600052603260045260246000fd5b60006001918254915b8281106104f65750505050600090565b6104ff81610490565b905460039190911b1c6001600160a01b039081169083161461054157600019811461052b5783016104e6565b634e487b7160e01b600052601160045260246000fd5b5050509056fea264697066735822122062278f770bc89dd0f695a1c74020ac6a02d9dd992d30f721927ec95ece3a1c5264736f6c63430008110033",
  "immutableReferences": {
    "3644": [
      {
        "length": 32,
        "start": 508
      }
    ]
  },
  "source": "// SPDX-License-Identifier: MIT\r\npragma solidity ^0.8.17;\r\n\r\nimport \"./../Plugin.sol\";\r\nimport \"./../libraries/PluginLib.sol\";\r\n\r\ncontract SpaceVotingMultisig is Plugin {\r\n    address[] private _signers;\r\n\r\n    constructor(\r\n        string memory pluginMetadata_,\r\n        address[] memory signers_\r\n    ) Plugin(PluginLib.MEMBERSHIP_CODE, pluginMetadata_) {\r\n        _signers = signers_;\r\n    }\r\n\r\n    function holding(\r\n        address holder,\r\n        uint256 amount\r\n    ) external view override returns (bool) {\r\n        for (uint256 index = 0; index < _signers.length; index++) {\r\n            if (_signers[index] == holder) {\r\n                return true;\r\n            }\r\n        }\r\n        return false;\r\n    }\r\n\r\n    function addMember(address holder, uint256 allocation) external override {\r\n        _signers.push(holder);\r\n    }\r\n\r\n    function members()\r\n        external\r\n        view\r\n        override\r\n        returns (address[] memory, uint256[] memory)\r\n    {\r\n        uint256[] memory _allocations = new uint256[](0);\r\n        return (_signers, _allocations);\r\n    }\r\n\r\n    // UNUSED METHODS\r\n    function refund(uint256 proposalId) external override {}\r\n\r\n    function removeMember(address holder) external override {}\r\n\r\n    function charge(address from, uint256 amount, uint256 proposalId) external override {}\r\n\r\n    function reward(address to, uint256 amount) external override {}\r\n}\r\n",
  "sourcePath": "C:\\Users\\DELL\\Documents\\space\\solidity\\contracts\\space-plugins\\SpaceVotingMultisig.sol",
  "compiler": {
    "name": "solc",
    "version": "0.8.17+commit.8df45f5f.Emscripten.clang"
  },
  "schemaVersion": "3.4.11",
  "updatedAt": "2023-09-08T19:17:07.035Z",
  "devdoc": {
    "kind": "dev",
    "methods": {},
    "version": 1
  },
  "userdoc": {
    "kind": "user",
    "methods": {},
    "version": 1
  }
}