{
  "contractName": "SpaceTreasury",
  "abi": [
    {
      "inputs": [],
      "stateMutability": "nonpayable",
      "type": "constructor"
    },
    {
      "anonymous": false,
      "inputs": [
        {
          "indexed": true,
          "internalType": "address",
          "name": "previousOwner",
          "type": "address"
        },
        {
          "indexed": true,
          "internalType": "address",
          "name": "newOwner",
          "type": "address"
        }
      ],
      "name": "OwnershipTransferStarted",
      "type": "event"
    },
    {
      "anonymous": false,
      "inputs": [
        {
          "indexed": true,
          "internalType": "address",
          "name": "previousOwner",
          "type": "address"
        },
        {
          "indexed": true,
          "internalType": "address",
          "name": "newOwner",
          "type": "address"
        }
      ],
      "name": "OwnershipTransferred",
      "type": "event"
    },
    {
      "anonymous": false,
      "inputs": [
        {
          "indexed": false,
          "internalType": "address",
          "name": "dao",
          "type": "address"
        },
        {
          "indexed": false,
          "internalType": "uint256",
          "name": "amount",
          "type": "uint256"
        }
      ],
      "name": "TreasuryFunded",
      "type": "event"
    },
    {
      "anonymous": false,
      "inputs": [
        {
          "indexed": false,
          "internalType": "address",
          "name": "dao",
          "type": "address"
        },
        {
          "indexed": false,
          "internalType": "uint256",
          "name": "amount",
          "type": "uint256"
        }
      ],
      "name": "TreasurySpent",
      "type": "event"
    },
    {
      "inputs": [],
      "name": "acceptOwnership",
      "outputs": [],
      "stateMutability": "nonpayable",
      "type": "function"
    },
    {
      "inputs": [],
      "name": "owner",
      "outputs": [
        {
          "internalType": "address",
          "name": "",
          "type": "address"
        }
      ],
      "stateMutability": "view",
      "type": "function"
    },
    {
      "inputs": [],
      "name": "pendingOwner",
      "outputs": [
        {
          "internalType": "address",
          "name": "",
          "type": "address"
        }
      ],
      "stateMutability": "view",
      "type": "function"
    },
    {
      "inputs": [],
      "name": "renounceOwnership",
      "outputs": [],
      "stateMutability": "nonpayable",
      "type": "function"
    },
    {
      "inputs": [
        {
          "internalType": "address",
          "name": "newOwner",
          "type": "address"
        }
      ],
      "name": "transferOwnership",
      "outputs": [],
      "stateMutability": "nonpayable",
      "type": "function"
    },
    {
      "inputs": [
        {
          "internalType": "string",
          "name": "summary",
          "type": "string"
        }
      ],
      "name": "fundEVM",
      "outputs": [
        {
          "internalType": "uint256",
          "name": "",
          "type": "uint256"
        }
      ],
      "stateMutability": "payable",
      "type": "function"
    },
    {
      "inputs": [
        {
          "internalType": "string",
          "name": "summary",
          "type": "string"
        },
        {
          "internalType": "uint256",
          "name": "amount",
          "type": "uint256"
        },
        {
          "internalType": "address",
          "name": "receiver",
          "type": "address"
        }
      ],
      "name": "onExecute",
      "outputs": [
        {
          "internalType": "uint256",
          "name": "",
          "type": "uint256"
        }
      ],
      "stateMutability": "nonpayable",
      "type": "function"
    },
    {
      "inputs": [],
      "name": "feed",
      "outputs": [
        {
          "internalType": "uint256",
          "name": "",
          "type": "uint256"
        },
        {
          "internalType": "uint256",
          "name": "",
          "type": "uint256"
        }
      ],
      "stateMutability": "view",
      "type": "function"
    },
    {
      "inputs": [
        {
          "internalType": "uint256",
          "name": "historyId",
          "type": "uint256"
        }
      ],
      "name": "getHistory",
      "outputs": [
        {
          "components": [
            {
              "internalType": "uint256",
              "name": "amount",
              "type": "uint256"
            },
            {
              "internalType": "uint256",
              "name": "timestamp",
              "type": "uint256"
            },
            {
              "internalType": "string",
              "name": "summary",
              "type": "string"
            },
            {
              "internalType": "uint256",
              "name": "direction",
              "type": "uint256"
            },
            {
              "internalType": "address",
              "name": "from",
              "type": "address"
            },
            {
              "internalType": "address",
              "name": "to",
              "type": "address"
            }
          ],
          "internalType": "struct Models.TreasureHistory",
          "name": "",
          "type": "tuple"
        }
      ],
      "stateMutability": "view",
      "type": "function"
    },
    {
      "inputs": [],
      "name": "lastId",
      "outputs": [
        {
          "internalType": "uint256",
          "name": "",
          "type": "uint256"
        }
      ],
      "stateMutability": "view",
      "type": "function"
    }
  ],
  "bytecode": "0x6080806040523461006357600180546001600160a01b03199081169091556000805433928116831782556001600160a01b0316907f8be0079c531659141344cd1fd0a4f28419497f9722a3daafe3b4186f6b6457e09080a3610b4190816100698239f35b600080fdfe60806040908082526004908136101561001757600080fd5b600092833560e01c91826337a7b7d81461070557508163715018a6146106a057816379ba5097146105e057816380bd542e146103985781638da5cb5b14610370578163991e0b0b14610306578163c1292cc3146102e7578163c8691b2a1461012e578163e30c397814610105575063f2fde38b1461009457600080fd5b3461010157602036600319011261010157356001600160a01b03818116918290036100fd576100c16107d7565b600180546001600160a01b031916831790558254167f38d16b8cac22d99fc7c124b9cd0de2d3fa1faef420bfe791d8c362d765e227008380a380f35b8280fd5b5080fd5b83903461010157816003193601126101015760015490516001600160a01b039091168152602090f35b905082346102e457602080600319360112610101578160a0845161015181610727565b8281528284820152606086820152826060820152826080820152015283358252600581528282209280519361018585610727565b805485526001958682015492848701938452600283019080519187998154916101ad8361082f565b808652928281169081156102c15750600114610288575b5050509291906101dc816005969a9998990382610759565b8387019081526003830154916060880192835260018060a01b0395868092860154169460808a019586520154169360a088019485528051998a98888a5251888a01525190880152519460c060608801528551958660e0890152885b8781106102705750505061010085870181019790975251608086015251821660a0850152511660c0830152601f01601f19168101030190f35b8181018301518b820161010001528a98508201610237565b8952878920989a508a985b828c106102ae575050509781018501976101dc8260056101c4565b8054858d018a01529a88019a8101610293565b60ff1916868b01525050501515600590811b8301870199506101dc9083906101c4565b80fd5b919050346100fd57826003193601126100fd5760209250549051908152f35b919050346100fd5760603660031901126100fd5780359067ffffffffffffffff821161036c576103389136910161077b565b604435926001600160a01b03841684036102e457506020926103659161035c6107d7565b60243590610869565b9051908152f35b8380fd5b839034610101578160031936011261010157905490516001600160a01b039091168152602090f35b839150602092836003193601126100fd5767ffffffffffffffff928135848111610101576103c9903690840161077b565b9160019283825401958683558551946103e186610727565b348652888601924284528787019081526060870191868352608088019333855260a08901953087528b895260058d528a892099518a5551828a015560028901925180519182116105cd578c610436855461082f565b601f8111610585575b50508c908d601f841160011461052257509282939183928b94610517575b50501b916000199060031b1c19161790555b51600386015582850190600560018060a01b03968780935116936bffffffffffffffffffffffff60a01b9485825416179055019251169082541617905560025490348201809211610504575060025554825191166001600160a01b031681523460208201527fda1785fe1dec267c363b06ae3e02c3e086123f9d611399f7a1cc98492518372e9080604081010390a151908152f35b634e487b7160e01b835260119052602482fd5b015192508e8061045d565b919083601f198116878d52848d20948d905b8883831061056b5750505010610552575b505050811b01905561046f565b015160001960f88460031b161c191690558c8080610545565b858701518855909601959485019487935090810190610534565b858b52818b2090601f850160051c82019285106105c3575b601f0160051c019084905b8281106105b857508e915061043f565b8b81550184906105a8565b909150819061059d565b634e487b7160e01b895260418852602489fd5b9050346100fd57826003193601126100fd57600154916001600160a01b0391338385160361064b5750506001600160a01b031991821660015582543392811683178455167f8be0079c531659141344cd1fd0a4f28419497f9722a3daafe3b4186f6b6457e08380a380f35b906020608492519162461bcd60e51b8352820152602960248201527f4f776e61626c6532537465703a2063616c6c6572206973206e6f7420746865206044820152683732bb9037bbb732b960b91b6064820152fd5b83346102e457806003193601126102e4576106b96107d7565b600180546001600160a01b03199081169091558154908116825581906001600160a01b03167f8be0079c531659141344cd1fd0a4f28419497f9722a3daafe3b4186f6b6457e08280a380f35b84346102e457806003193601126102e457506002546003549082526020820152f35b60c0810190811067ffffffffffffffff82111761074357604052565b634e487b7160e01b600052604160045260246000fd5b90601f8019910116810190811067ffffffffffffffff82111761074357604052565b81601f820112156107d25780359067ffffffffffffffff821161074357604051926107b0601f8401601f191660200185610759565b828452602083830101116107d257816000926020809301838601378301015290565b600080fd5b6000546001600160a01b031633036107eb57565b606460405162461bcd60e51b815260206004820152602060248201527f4f776e61626c653a2063616c6c6572206973206e6f7420746865206f776e65726044820152fd5b90600182811c9216801561085f575b602083101461084957565b634e487b7160e01b600052602260045260246000fd5b91607f169161083e565b918115610b03576001600481815401948582558460025410610ac9579085929160405161089581610727565b86815260209384820194428652604083019384526060830192828452608081019330855260a082019560018060a01b0394858c16998a895260009b8c526005865260408c209451855551818501556002840191519081519167ffffffffffffffff8311610ab6578c87610908865461082f565b91601f8311610a6e575b9150505086908d601f8511600114610a0257600598509284929091836109f7575b50501b916000199060031b1c19161790555b51600382015582868201945116936bffffffffffffffffffffffff60a01b94858254161790550192511690825416179055600254908582039182116109e457508280868194829460025582f1156109d85750604080516001600160a01b0392909216825260208201929092527fcb5c61dfad2463718f598ef78a7e049d5c17df11b1ac33dcb492261a45eee8979190a190565b604051903d90823e3d90fd5b634e487b7160e01b845260119052602483fd5b015192503880610933565b9294959697601f1985169087855280852094905b828210610a5757505090846005999897969594939210610a3e575b505050811b019055610945565b015160001960f88460031b161c19169055388080610a31565b808886978294978701518155019601940190610a16565b86815220601f850160051c810191898610610aac575b601f0160051c019083908f5b838210610aa1579050899150610912565b81550183908f610a90565b9091508190610a84565b634e487b7160e01b8d5260418b5260248dfd5b60405162461bcd60e51b81526020818401526013602482015272125394d551919250d251539517d05353d55395606a1b6044820152606490fd5b50505060009056fea2646970667358221220da9fe8828f9436b977985d5e6b433fe8898772895265f4ad12a8c31ddcea4f6564736f6c63430008110033",
  "immutableReferences": {},
  "source": "// SPDX-License-Identifier: MIT\r\npragma solidity ^0.8.17;\r\n\r\nimport \"./libraries/Models.sol\";\r\n\r\nimport \"./interfaces/ITreasury.sol\";\r\n\r\nimport \"@openzeppelin/contracts/access/Ownable2Step.sol\";\r\nimport \"@openzeppelin/contracts/utils/Counters.sol\";\r\n\r\ncontract SpaceTreasury is ITreasury, Ownable2Step {\r\n    using Counters for Counters.Counter;\r\n\r\n    uint256 private _balance;\r\n    uint256 private _locked;\r\n\r\n    Counters.Counter private _historyId;\r\n\r\n    mapping(uint256 => Models.TreasureHistory) private _history;\r\n\r\n    event TreasuryFunded(address dao, uint256 amount);\r\n    event TreasurySpent(address dao, uint256 amount);\r\n\r\n    constructor() Ownable2Step() {}\r\n\r\n    function fundEVM(\r\n        string memory summary\r\n    ) external payable override returns (uint256) {\r\n        _historyId.increment();\r\n        uint256 historyId = _historyId.current();\r\n\r\n        _history[historyId] = Models.TreasureHistory(\r\n            msg.value,\r\n            block.timestamp,\r\n            summary,\r\n            0, // direction\r\n            msg.sender,\r\n            address(this)\r\n        );\r\n\r\n        _balance += msg.value;\r\n\r\n        emit TreasuryFunded(owner(), msg.value);\r\n\r\n        return historyId;\r\n    }\r\n\r\n    function onExecute(\r\n        string memory summary,\r\n        uint256 amount,\r\n        address receiver\r\n    ) external override onlyOwner returns (uint256) {\r\n        if (amount == 0) return 0;\r\n\r\n        _historyId.increment();\r\n        uint256 historyId = _historyId.current();\r\n\r\n        require(_balance >= amount, \"INSUFFICIENT_AMOUNT\");\r\n\r\n        _history[historyId] = Models.TreasureHistory(\r\n            amount,\r\n            block.timestamp,\r\n            summary,\r\n            1, // direction\r\n            address(this),\r\n            receiver\r\n        );\r\n\r\n        _balance -= amount;\r\n\r\n        payable(receiver).transfer(amount);\r\n\r\n        emit TreasurySpent(receiver, amount);\r\n\r\n        return historyId;\r\n    }\r\n\r\n    function feed() external view returns (uint256, uint256) {\r\n        return (_balance, _locked);\r\n    }\r\n\r\n    function getHistory(\r\n        uint256 historyId\r\n    ) external view returns (Models.TreasureHistory memory) {\r\n        return _history[historyId];\r\n    }\r\n\r\n    function lastId() external view returns (uint256) {\r\n        return _historyId.current();\r\n    }\r\n}\r\n",
  "sourcePath": "C:\\Users\\DELL\\Documents\\space\\solidity\\contracts\\SpaceTreasury.sol",
  "compiler": {
    "name": "solc",
    "version": "0.8.17+commit.8df45f5f.Emscripten.clang"
  },
  "schemaVersion": "3.4.11",
  "updatedAt": "2023-09-27T08:27:53.289Z",
  "devdoc": {
    "kind": "dev",
    "methods": {
      "acceptOwnership()": {
        "details": "The new owner accepts the ownership transfer."
      },
      "owner()": {
        "details": "Returns the address of the current owner."
      },
      "pendingOwner()": {
        "details": "Returns the address of the pending owner."
      },
      "renounceOwnership()": {
        "details": "Leaves the contract without owner. It will not be possible to call `onlyOwner` functions. Can only be called by the current owner. NOTE: Renouncing ownership will leave the contract without an owner, thereby disabling any functionality that is only available to the owner."
      },
      "transferOwnership(address)": {
        "details": "Starts the ownership transfer of the contract to a new account. Replaces the pending transfer if there is one. Can only be called by the current owner."
      }
    },
    "version": 1
  },
  "userdoc": {
    "kind": "user",
    "methods": {},
    "version": 1
  }
}