{
  "contractName": "SpaceVotingToken",
  "abi": [
    {
      "inputs": [
        {
          "internalType": "string",
          "name": "name_",
          "type": "string"
        },
        {
          "internalType": "string",
          "name": "symbol_",
          "type": "string"
        },
        {
          "internalType": "string",
          "name": "pluginMetadata_",
          "type": "string"
        },
        {
          "internalType": "address[]",
          "name": "holders_",
          "type": "address[]"
        },
        {
          "internalType": "uint256[]",
          "name": "allocations_",
          "type": "uint256[]"
        }
      ],
      "stateMutability": "nonpayable",
      "type": "constructor"
    },
    {
      "anonymous": false,
      "inputs": [
        {
          "indexed": true,
          "internalType": "address",
          "name": "owner",
          "type": "address"
        },
        {
          "indexed": true,
          "internalType": "address",
          "name": "spender",
          "type": "address"
        },
        {
          "indexed": false,
          "internalType": "uint256",
          "name": "value",
          "type": "uint256"
        }
      ],
      "name": "Approval",
      "type": "event"
    },
    {
      "anonymous": false,
      "inputs": [
        {
          "indexed": true,
          "internalType": "address",
          "name": "from",
          "type": "address"
        },
        {
          "indexed": true,
          "internalType": "address",
          "name": "to",
          "type": "address"
        },
        {
          "indexed": false,
          "internalType": "uint256",
          "name": "value",
          "type": "uint256"
        }
      ],
      "name": "Transfer",
      "type": "event"
    },
    {
      "inputs": [],
      "name": "accessCode",
      "outputs": [
        {
          "internalType": "uint64",
          "name": "",
          "type": "uint64"
        }
      ],
      "stateMutability": "view",
      "type": "function"
    },
    {
      "inputs": [
        {
          "internalType": "address",
          "name": "owner",
          "type": "address"
        },
        {
          "internalType": "address",
          "name": "spender",
          "type": "address"
        }
      ],
      "name": "allowance",
      "outputs": [
        {
          "internalType": "uint256",
          "name": "",
          "type": "uint256"
        }
      ],
      "stateMutability": "view",
      "type": "function"
    },
    {
      "inputs": [
        {
          "internalType": "address",
          "name": "spender",
          "type": "address"
        },
        {
          "internalType": "uint256",
          "name": "amount",
          "type": "uint256"
        }
      ],
      "name": "approve",
      "outputs": [
        {
          "internalType": "bool",
          "name": "",
          "type": "bool"
        }
      ],
      "stateMutability": "nonpayable",
      "type": "function"
    },
    {
      "inputs": [
        {
          "internalType": "address",
          "name": "account",
          "type": "address"
        }
      ],
      "name": "balanceOf",
      "outputs": [
        {
          "internalType": "uint256",
          "name": "",
          "type": "uint256"
        }
      ],
      "stateMutability": "view",
      "type": "function"
    },
    {
      "inputs": [],
      "name": "decimals",
      "outputs": [
        {
          "internalType": "uint8",
          "name": "",
          "type": "uint8"
        }
      ],
      "stateMutability": "view",
      "type": "function"
    },
    {
      "inputs": [
        {
          "internalType": "address",
          "name": "spender",
          "type": "address"
        },
        {
          "internalType": "uint256",
          "name": "subtractedValue",
          "type": "uint256"
        }
      ],
      "name": "decreaseAllowance",
      "outputs": [
        {
          "internalType": "bool",
          "name": "",
          "type": "bool"
        }
      ],
      "stateMutability": "nonpayable",
      "type": "function"
    },
    {
      "inputs": [
        {
          "internalType": "address",
          "name": "spender",
          "type": "address"
        },
        {
          "internalType": "uint256",
          "name": "addedValue",
          "type": "uint256"
        }
      ],
      "name": "increaseAllowance",
      "outputs": [
        {
          "internalType": "bool",
          "name": "",
          "type": "bool"
        }
      ],
      "stateMutability": "nonpayable",
      "type": "function"
    },
    {
      "inputs": [],
      "name": "metadata",
      "outputs": [
        {
          "internalType": "string",
          "name": "",
          "type": "string"
        }
      ],
      "stateMutability": "view",
      "type": "function"
    },
    {
      "inputs": [],
      "name": "name",
      "outputs": [
        {
          "internalType": "string",
          "name": "",
          "type": "string"
        }
      ],
      "stateMutability": "view",
      "type": "function"
    },
    {
      "inputs": [],
      "name": "symbol",
      "outputs": [
        {
          "internalType": "string",
          "name": "",
          "type": "string"
        }
      ],
      "stateMutability": "view",
      "type": "function"
    },
    {
      "inputs": [],
      "name": "totalSupply",
      "outputs": [
        {
          "internalType": "uint256",
          "name": "",
          "type": "uint256"
        }
      ],
      "stateMutability": "view",
      "type": "function"
    },
    {
      "inputs": [
        {
          "internalType": "address",
          "name": "to",
          "type": "address"
        },
        {
          "internalType": "uint256",
          "name": "amount",
          "type": "uint256"
        }
      ],
      "name": "transfer",
      "outputs": [
        {
          "internalType": "bool",
          "name": "",
          "type": "bool"
        }
      ],
      "stateMutability": "nonpayable",
      "type": "function"
    },
    {
      "inputs": [
        {
          "internalType": "address",
          "name": "from",
          "type": "address"
        },
        {
          "internalType": "address",
          "name": "to",
          "type": "address"
        },
        {
          "internalType": "uint256",
          "name": "amount",
          "type": "uint256"
        }
      ],
      "name": "transferFrom",
      "outputs": [
        {
          "internalType": "bool",
          "name": "",
          "type": "bool"
        }
      ],
      "stateMutability": "nonpayable",
      "type": "function"
    },
    {
      "inputs": [
        {
          "internalType": "address",
          "name": "holder",
          "type": "address"
        },
        {
          "internalType": "uint256",
          "name": "allocation",
          "type": "uint256"
        }
      ],
      "name": "addMember",
      "outputs": [],
      "stateMutability": "nonpayable",
      "type": "function"
    },
    {
      "inputs": [
        {
          "internalType": "address",
          "name": "holder",
          "type": "address"
        }
      ],
      "name": "removeMember",
      "outputs": [],
      "stateMutability": "nonpayable",
      "type": "function"
    },
    {
      "inputs": [
        {
          "internalType": "address",
          "name": "from",
          "type": "address"
        },
        {
          "internalType": "uint256",
          "name": "amount",
          "type": "uint256"
        },
        {
          "internalType": "uint256",
          "name": "proposalId",
          "type": "uint256"
        }
      ],
      "name": "charge",
      "outputs": [],
      "stateMutability": "nonpayable",
      "type": "function"
    },
    {
      "inputs": [
        {
          "internalType": "uint256",
          "name": "proposalId",
          "type": "uint256"
        }
      ],
      "name": "refund",
      "outputs": [],
      "stateMutability": "nonpayable",
      "type": "function"
    },
    {
      "inputs": [
        {
          "internalType": "address",
          "name": "holder",
          "type": "address"
        },
        {
          "internalType": "uint256",
          "name": "amount",
          "type": "uint256"
        }
      ],
      "name": "holding",
      "outputs": [
        {
          "internalType": "bool",
          "name": "",
          "type": "bool"
        }
      ],
      "stateMutability": "view",
      "type": "function"
    },
    {
      "inputs": [],
      "name": "members",
      "outputs": [
        {
          "internalType": "address[]",
          "name": "",
          "type": "address[]"
        },
        {
          "internalType": "uint256[]",
          "name": "",
          "type": "uint256[]"
        }
      ],
      "stateMutability": "view",
      "type": "function"
    },
    {
      "inputs": [
        {
          "internalType": "address",
          "name": "to",
          "type": "address"
        },
        {
          "internalType": "uint256",
          "name": "amount",
          "type": "uint256"
        }
      ],
      "name": "reward",
      "outputs": [],
      "stateMutability": "nonpayable",
      "type": "function"
    }
  ],
  "bytecode": "0x60a0604052346200071457620017d3803803806200001d816200073b565b92833981019060a081830312620007145780516001600160401b0381116200071457826200004d91830162000761565b60208201519092906001600160401b0381116200071457816200007291840162000761565b60408301519093906001600160401b0381116200071457826200009791850162000761565b60608401519094906001600160401b038111620007145784019383601f8601121562000714578451620000d4620000ce82620007d3565b6200073b565b9560208088848152019260051b820101908682116200071457602001915b81831062000719575050506080810151906001600160401b0382116200071457019280601f850112156200071457835162000131620000ce82620007d3565b9460208087848152019260051b8201019283116200071457602001905b82821062000703575050825190506001600160401b038111620003b257600392835490600182811c92168015620006f8575b6020831014620004ef5781601f849311620006a0575b50602090601f831160011462000636576000926200062a575b50508160011b9160001990851b1c19161782555b8051906001600160401b038211620003b25760045490600182811c921680156200061f575b6020831014620004ef5781601f849311620005aa575b50602090601f83116001146200051c5760009262000510575b50508160011b9160001990841b1c1916176004555b6103e86080528351906001600160401b038211620003b257600554600181811c9116801562000505575b6020821014620004ef57601f8111620004a1575b50602094601f83116001146200043257948293949560009362000426575b50508260011b92600019911b1c1916176005555b60005b82518110156200040d576001600160a01b0380620002be8386620007eb565b5116620002cc8385620007eb565b518115620003c857600280549082820180921162000386576000927fddf252ad1be2c89b69c2b068fc378daa952ba7f163c4a11628f55a4df523b3ef926020925584845283825260408420818154019055604051908152a3620003308285620007eb565b5116600680549068010000000000000000821015620003b257600182018082558210156200039c576000908152602090200180546001600160a01b0319169091179055600019811462000386576001016200029f565b634e487b7160e01b600052601160045260246000fd5b634e487b7160e01b600052603260045260246000fd5b634e487b7160e01b600052604160045260246000fd5b60405162461bcd60e51b815260206004820152601f60248201527f45524332303a206d696e7420746f20746865207a65726f2061646472657373006044820152606490fd5b604051610fd29081620008018239608051816104220152f35b01519150388062000288565b90601f19831695600560005260206000209260005b888110620004885750846001969798106200046d575b50505050811b016005556200029c565b01519060f884600019921b161c19169055388080806200045d565b9193602060018192878501518155019501920162000447565b60056000526020600020601f840160051c81019160208510620004e4575b601f0160051c01905b818110620004d757506200026a565b60008155600101620004c8565b9091508190620004bf565b634e487b7160e01b600052602260045260246000fd5b90607f169062000256565b01519050388062000217565b6004600090815293507f8a35acfbc15ff81a39ae7d344fd709f28e8600b4aa8c65c6b64bfe7fe36bd19b91905b601f19841685106200058e576001945083601f1981161062000575575b505050811b016004556200022c565b015160001983861b60f8161c1916905538808062000566565b8181015183556020948501946001909301929091019062000549565b60046000529091507f8a35acfbc15ff81a39ae7d344fd709f28e8600b4aa8c65c6b64bfe7fe36bd19b601f840160051c8101916020851062000614575b90601f859493920160051c01905b818110620006045750620001fe565b60008155849350600101620005f5565b9091508190620005e7565b91607f1691620001e8565b015190503880620001af565b6000868152602081209350601f198516905b8181106200068757509084600195949392106200066e575b505050811b018255620001c3565b015160001983871b60f8161c1916905538808062000660565b9293602060018192878601518155019501930162000648565b909150846000526020600020601f840160051c81019160208510620006ed575b90601f859493920160051c01905b818110620006dd575062000196565b60008155849350600101620006ce565b9091508190620006c0565b91607f169162000180565b81518152602091820191016200014e565b600080fd5b82516001600160a01b03811681036200071457815260209283019201620000f2565b6040519190601f01601f191682016001600160401b03811183821017620003b257604052565b919080601f84011215620007145782516001600160401b038111620003b25760209062000797601f8201601f191683016200073b565b92818452828287010111620007145760005b818110620007bf57508260009394955001015290565b8581018301518482018401528201620007a9565b6001600160401b038111620003b25760051b60200190565b80518210156200039c5760209160051b01019056fe608060408181526004918236101561001657600080fd5b600092833560e01c91826306fdde0314610b2457508163095ea7b314610afa5781630b1ca49a146109d257816318160ddd146109b357816321670f221461099657816323b872dd146108cc578163278ecde11461084f578163313ce56714610833578163392f37e91461073e57816339509351146106ee57816354a9409e146106a057816370a082311461065d57816395d89b411461055a57816398041ea3146104465781639a1789e514610401578163a457c2d714610359578163a9059cbb14610328578163ba60b6c3146102ed578163bdd4d18d1461014c575063dd62ed3e1461010157600080fd5b346101485780600319360112610148578060209261011d610c2c565b610125610c47565b6001600160a01b0391821683526001865283832091168252845220549051908152f35b5080fd5b839150346101485781600319360112610148576006549161016c83610f84565b9261017985519485610c5d565b80845261018581610f84565b6020858101949091601f1901368637835b83811061027d5750508551948186848152018093600686527ff652222313e28459528d920b65115c16c04f3efc82aaedc97be59f3f377c0d3f90865b81811061026057505050866101e8910387610c5d565b865196879681880191885251809152606087019390855b81811061024057505050858303868301525180835291810193925b82811061022957505050500390f35b83518552869550938101939281019260010161021a565b82516001600160a01b0316865289985094840194918401916001016101ff565b82546001600160a01b0316845292850192600192830192016101d2565b6102b361028f82989496959798610f28565b905460039190911b1c6001600160a01b031660009081526020819052604090205490565b83518210156102da57906102cf91868260051b86010152610f75565b959492939195610196565b634e487b7160e01b855260328352602485fd5b5050346101485780600319360112610148576020916001600160a01b03610312610c2c565b1681528083528160243591205410159051908152f35b505034610148578060031936011261014857602090610352610348610c2c565b6024359033610cb8565b5160018152f35b905082346103fe57826003193601126103fe57610374610c2c565b918360243592338152600160205281812060018060a01b03861682526020522054908282106103ad576020856103528585038733610e26565b608490602086519162461bcd60e51b8352820152602560248201527f45524332303a2064656372656173656420616c6c6f77616e63652062656c6f77604482015264207a65726f60d81b6064820152fd5b80fd5b5050346101485781600319360112610148576020905167ffffffffffffffff7f0000000000000000000000000000000000000000000000000000000000000000168152f35b91905034610556578060031936011261055657610461610c2c565b6001600160a01b039290831691602435908315610514577fddf252ad1be2c89b69c2b068fc378daa952ba7f163c4a11628f55a4df523b3ef60208388936104ab8896600254610c95565b60025585855284835280852082815401905551908152a3600654906801000000000000000082101561050157508060016104e89201600655610f28565b909283549160031b90811b9283911b1691191617905580f35b634e487b7160e01b855260419052602484fd5b5162461bcd60e51b8152602081840152601f60248201527f45524332303a206d696e7420746f20746865207a65726f2061646472657373006044820152606490fd5b8280fd5b838334610148578160031936011261014857805191809380549160019083821c92828516948515610653575b60209586861081146106405785895290811561061c57506001146105c4575b6105c087876105b6828c0383610c5d565b5191829182610be3565b0390f35b81529295507f8a35acfbc15ff81a39ae7d344fd709f28e8600b4aa8c65c6b64bfe7fe36bd19b5b82841061060957505050826105c0946105b6928201019486806105a5565b80548685018801529286019281016105eb565b60ff19168887015250505050151560051b83010192506105b6826105c086806105a5565b634e487b7160e01b845260228352602484fd5b93607f1693610586565b5050346101485760203660031901126101485760209061069961067e610c2c565b6001600160a01b031660009081526020819052604090205490565b9051908152f35b505034610148576060366003190112610148576106bb610c2c565b90602435916106cb833083610cb8565b6044358452600760209081528285206001600160a01b0390921685525282205580f35b505034610148578060031936011261014857610352602092610737610711610c2c565b338352600186528483206001600160a01b03821684528652918490205460243590610c95565b9033610e26565b91905034610556578260031936011261055657805191836005549060019082821c928281168015610829575b602095868610821461081657508488529081156107f4575060011461079b575b6105c086866105b6828b0383610c5d565b929550600583527f036b6384b5eca791c62761152d0c79bb0604c104a5fb6f4eb0703f3154bb3db05b8284106107e157505050826105c0946105b692820101943861078a565b80548685018801529286019281016107c4565b60ff191687860152505050151560051b83010192506105b6826105c03861078a565b634e487b7160e01b845260229052602483fd5b93607f169361076a565b5050346101485781600319360112610148576020905160128152f35b8284346103fe5760209283600319360112610148573591815b6006548110156108c8578061087f6108c392610f28565b60018060a01b0391549060031b1c16858552600780885284862082875288526108ac858720548330610cb8565b868652875283852090855286528383812055610f75565b610868565b8280f35b83915034610148576060366003190112610148576108e8610c2c565b6108f0610c47565b91846044359460018060a01b03841681526001602052818120338252602052205490600019820361092a575b602086610352878787610cb8565b84821061095357509183916109486020969561035295033383610e26565b91939481935061091c565b606490602087519162461bcd60e51b8352820152601d60248201527f45524332303a20696e73756666696369656e7420616c6c6f77616e63650000006044820152fd5b505034610148573660031901126103fe576109af610c2c565b5080f35b5050346101485781600319360112610148576020906002549051908152f35b8391503461014857602080600319360112610556576001600160a01b036109f7610c2c565b169182845283825284842054908315610aad578385528483528585205490828210610a5f5750908495817fddf252ad1be2c89b69c2b068fc378daa952ba7f163c4a11628f55a4df523b3ef94938688528785520381872055816002540360025551908152a380f35b865162461bcd60e51b8152908101849052602260248201527f45524332303a206275726e20616d6f756e7420657863656564732062616c616e604482015261636560f01b6064820152608490fd5b855162461bcd60e51b8152908101839052602160248201527f45524332303a206275726e2066726f6d20746865207a65726f206164647265736044820152607360f81b6064820152608490fd5b505034610148578060031936011261014857602090610352610b1a610c2c565b6024359033610e26565b92915034610bdf5783600319360112610bdf57600354600181811c9186908281168015610bd5575b602095868610821461081657508488529081156107f45750600114610b7c576105c086866105b6828b0383610c5d565b929550600383527fc2575a0e9e593c00f959f8c92f12db2869c3395a3b0502d05e2516446f71f85b5b828410610bc257505050826105c0946105b692820101943861078a565b8054868501880152928601928101610ba5565b93607f1693610b4c565b8380fd5b6020808252825181830181905290939260005b828110610c1857505060409293506000838284010152601f8019910116010190565b818101860151848201604001528501610bf6565b600435906001600160a01b0382168203610c4257565b600080fd5b602435906001600160a01b0382168203610c4257565b90601f8019910116810190811067ffffffffffffffff821117610c7f57604052565b634e487b7160e01b600052604160045260246000fd5b91908201809211610ca257565b634e487b7160e01b600052601160045260246000fd5b6001600160a01b03908116918215610dd35716918215610d8257600082815280602052604081205491808310610d2e57604082827fddf252ad1be2c89b69c2b068fc378daa952ba7f163c4a11628f55a4df523b3ef958760209652828652038282205586815220818154019055604051908152a3565b60405162461bcd60e51b815260206004820152602660248201527f45524332303a207472616e7366657220616d6f756e7420657863656564732062604482015265616c616e636560d01b6064820152608490fd5b60405162461bcd60e51b815260206004820152602360248201527f45524332303a207472616e7366657220746f20746865207a65726f206164647260448201526265737360e81b6064820152608490fd5b60405162461bcd60e51b815260206004820152602560248201527f45524332303a207472616e736665722066726f6d20746865207a65726f206164604482015264647265737360d81b6064820152608490fd5b6001600160a01b03908116918215610ed75716918215610e875760207f8c5be1e5ebec7d5bd14f71427d1e84f3dd0314c0f7b2291e5b200ac8c7c3b925918360005260018252604060002085600052825280604060002055604051908152a3565b60405162461bcd60e51b815260206004820152602260248201527f45524332303a20617070726f766520746f20746865207a65726f206164647265604482015261737360f01b6064820152608490fd5b60405162461bcd60e51b8152602060048201526024808201527f45524332303a20617070726f76652066726f6d20746865207a65726f206164646044820152637265737360e01b6064820152608490fd5b600654811015610f5f5760066000527ff652222313e28459528d920b65115c16c04f3efc82aaedc97be59f3f377c0d3f0190600090565b634e487b7160e01b600052603260045260246000fd5b6000198114610ca25760010190565b67ffffffffffffffff8111610c7f5760051b6020019056fea26469706673582212201e58f288363affa3d867d6e44a04682498f7aacf251ac1edb98d6ad91167853f64736f6c63430008110033",
  "immutableReferences": {
    "3644": [
      {
        "length": 32,
        "start": 1058
      }
    ]
  },
  "source": "// SPDX-License-Identifier: MIT\r\npragma solidity ^0.8.17;\r\n\r\nimport \"./../Plugin.sol\";\r\nimport \"./../libraries/PluginLib.sol\";\r\nimport \"@openzeppelin/contracts/token/ERC20/ERC20.sol\";\r\n\r\ncontract SpaceVotingToken is ERC20, Plugin {\r\n    address[] private _holders;\r\n    mapping(uint256 => mapping(address => uint256)) _lockeds;\r\n\r\n    constructor(\r\n        string memory name_,\r\n        string memory symbol_,\r\n        string memory pluginMetadata_,\r\n        address[] memory holders_,\r\n        uint256[] memory allocations_\r\n    ) ERC20(name_, symbol_) Plugin(PluginLib.MEMBERSHIP_CODE, pluginMetadata_) {\r\n        for (uint256 index = 0; index < holders_.length; index++) {\r\n            _mint(holders_[index], allocations_[index]);\r\n            _holders.push(holders_[index]);\r\n        }\r\n    }\r\n\r\n    function addMember(address holder, uint256 allocation) external override {\r\n        _mint(holder, allocation);\r\n        _holders.push(holder);\r\n    }\r\n\r\n    function removeMember(address holder) external override {\r\n        _burn(holder, balanceOf(holder));\r\n    }\r\n\r\n    function charge(\r\n        address from,\r\n        uint256 amount,\r\n        uint256 proposalId\r\n    ) external override {\r\n        _transfer(from, address(this), amount);\r\n        _lockeds[proposalId][from] = amount;\r\n    }\r\n\r\n    function refund(uint256 proposalId) external override {\r\n        for (uint256 index = 0; index < _holders.length; index++) {\r\n            address holder = _holders[index];\r\n            uint256 amount = _lockeds[proposalId][holder];\r\n            _transfer(address(this), holder, amount);\r\n            delete _lockeds[proposalId][holder];\r\n        }\r\n    }\r\n\r\n    function holding(\r\n        address holder,\r\n        uint256 amount\r\n    ) external view returns (bool) {\r\n        return balanceOf(holder) >= amount;\r\n    }\r\n\r\n    function members()\r\n        external\r\n        view\r\n        override\r\n        returns (address[] memory, uint256[] memory)\r\n    {\r\n        uint256[] memory _allocations = new uint256[](_holders.length);\r\n\r\n        for (uint256 index = 0; index < _holders.length; index++) {\r\n            _allocations[index] = balanceOf(_holders[index]);\r\n        }\r\n\r\n        return (_holders, _allocations);\r\n    }\r\n\r\n    // UNUSED METHODS\r\n    function reward(address to, uint256 amount) external override {}\r\n}\r\n",
  "sourcePath": "C:\\Users\\DELL\\Documents\\space\\solidity\\contracts\\space-plugins\\SpaceVotingToken.sol",
  "compiler": {
    "name": "solc",
    "version": "0.8.17+commit.8df45f5f.Emscripten.clang"
  },
  "schemaVersion": "3.4.11",
  "updatedAt": "2023-09-27T08:27:53.262Z",
  "devdoc": {
    "kind": "dev",
    "methods": {
      "allowance(address,address)": {
        "details": "See {IERC20-allowance}."
      },
      "approve(address,uint256)": {
        "details": "See {IERC20-approve}. NOTE: If `amount` is the maximum `uint256`, the allowance is not updated on `transferFrom`. This is semantically equivalent to an infinite approval. Requirements: - `spender` cannot be the zero address."
      },
      "balanceOf(address)": {
        "details": "See {IERC20-balanceOf}."
      },
      "decimals()": {
        "details": "Returns the number of decimals used to get its user representation. For example, if `decimals` equals `2`, a balance of `505` tokens should be displayed to a user as `5.05` (`505 / 10 ** 2`). Tokens usually opt for a value of 18, imitating the relationship between Ether and Wei. This is the default value returned by this function, unless it's overridden. NOTE: This information is only used for _display_ purposes: it in no way affects any of the arithmetic of the contract, including {IERC20-balanceOf} and {IERC20-transfer}."
      },
      "decreaseAllowance(address,uint256)": {
        "details": "Atomically decreases the allowance granted to `spender` by the caller. This is an alternative to {approve} that can be used as a mitigation for problems described in {IERC20-approve}. Emits an {Approval} event indicating the updated allowance. Requirements: - `spender` cannot be the zero address. - `spender` must have allowance for the caller of at least `subtractedValue`."
      },
      "increaseAllowance(address,uint256)": {
        "details": "Atomically increases the allowance granted to `spender` by the caller. This is an alternative to {approve} that can be used as a mitigation for problems described in {IERC20-approve}. Emits an {Approval} event indicating the updated allowance. Requirements: - `spender` cannot be the zero address."
      },
      "name()": {
        "details": "Returns the name of the token."
      },
      "symbol()": {
        "details": "Returns the symbol of the token, usually a shorter version of the name."
      },
      "totalSupply()": {
        "details": "See {IERC20-totalSupply}."
      },
      "transfer(address,uint256)": {
        "details": "See {IERC20-transfer}. Requirements: - `to` cannot be the zero address. - the caller must have a balance of at least `amount`."
      },
      "transferFrom(address,address,uint256)": {
        "details": "See {IERC20-transferFrom}. Emits an {Approval} event indicating the updated allowance. This is not required by the EIP. See the note at the beginning of {ERC20}. NOTE: Does not update the allowance if the current allowance is the maximum `uint256`. Requirements: - `from` and `to` cannot be the zero address. - `from` must have a balance of at least `amount`. - the caller must have allowance for ``from``'s tokens of at least `amount`."
      }
    },
    "version": 1
  },
  "userdoc": {
    "kind": "user",
    "methods": {},
    "version": 1
  }
}