{
  "contractName": "SpaceGovernance",
  "abi": [
    {
      "inputs": [
        {
          "internalType": "uint16",
          "name": "threshold_",
          "type": "uint16"
        },
        {
          "internalType": "uint256",
          "name": "minVoting_",
          "type": "uint256"
        },
        {
          "internalType": "uint256",
          "name": "minPropose_",
          "type": "uint256"
        },
        {
          "internalType": "uint64",
          "name": "minDuration_",
          "type": "uint64"
        },
        {
          "internalType": "bool",
          "name": "earlyExecution_",
          "type": "bool"
        }
      ],
      "stateMutability": "nonpayable",
      "type": "constructor"
    },
    {
      "anonymous": false,
      "inputs": [
        {
          "indexed": true,
          "internalType": "address",
          "name": "previousOwner",
          "type": "address"
        },
        {
          "indexed": true,
          "internalType": "address",
          "name": "newOwner",
          "type": "address"
        }
      ],
      "name": "OwnershipTransferStarted",
      "type": "event"
    },
    {
      "anonymous": false,
      "inputs": [
        {
          "indexed": true,
          "internalType": "address",
          "name": "previousOwner",
          "type": "address"
        },
        {
          "indexed": true,
          "internalType": "address",
          "name": "newOwner",
          "type": "address"
        }
      ],
      "name": "OwnershipTransferred",
      "type": "event"
    },
    {
      "anonymous": false,
      "inputs": [
        {
          "indexed": false,
          "internalType": "uint256",
          "name": "proposalId",
          "type": "uint256"
        }
      ],
      "name": "ProposalCreated",
      "type": "event"
    },
    {
      "anonymous": false,
      "inputs": [
        {
          "indexed": false,
          "internalType": "uint256",
          "name": "proposalId",
          "type": "uint256"
        }
      ],
      "name": "ProposalExecuted",
      "type": "event"
    },
    {
      "anonymous": false,
      "inputs": [
        {
          "indexed": false,
          "internalType": "address",
          "name": "voter",
          "type": "address"
        },
        {
          "indexed": false,
          "internalType": "uint256",
          "name": "proposalId",
          "type": "uint256"
        }
      ],
      "name": "ProposalUnVoted",
      "type": "event"
    },
    {
      "anonymous": false,
      "inputs": [
        {
          "indexed": false,
          "internalType": "address",
          "name": "voter",
          "type": "address"
        },
        {
          "indexed": false,
          "internalType": "uint256",
          "name": "proposalId",
          "type": "uint256"
        },
        {
          "indexed": false,
          "internalType": "enum Enums.VoteEntry",
          "name": "voteEntry",
          "type": "uint8"
        }
      ],
      "name": "ProposalVoted",
      "type": "event"
    },
    {
      "inputs": [],
      "name": "acceptOwnership",
      "outputs": [],
      "stateMutability": "nonpayable",
      "type": "function"
    },
    {
      "inputs": [],
      "name": "owner",
      "outputs": [
        {
          "internalType": "address",
          "name": "",
          "type": "address"
        }
      ],
      "stateMutability": "view",
      "type": "function"
    },
    {
      "inputs": [],
      "name": "pendingOwner",
      "outputs": [
        {
          "internalType": "address",
          "name": "",
          "type": "address"
        }
      ],
      "stateMutability": "view",
      "type": "function"
    },
    {
      "inputs": [],
      "name": "renounceOwnership",
      "outputs": [],
      "stateMutability": "nonpayable",
      "type": "function"
    },
    {
      "inputs": [
        {
          "internalType": "address",
          "name": "newOwner",
          "type": "address"
        }
      ],
      "name": "transferOwnership",
      "outputs": [],
      "stateMutability": "nonpayable",
      "type": "function"
    },
    {
      "inputs": [
        {
          "components": [
            {
              "internalType": "string",
              "name": "metadata",
              "type": "string"
            },
            {
              "internalType": "uint256",
              "name": "createdOn",
              "type": "uint256"
            },
            {
              "internalType": "uint256",
              "name": "startedOn",
              "type": "uint256"
            },
            {
              "internalType": "uint256",
              "name": "endedOn",
              "type": "uint256"
            },
            {
              "internalType": "uint256",
              "name": "executedOn",
              "type": "uint256"
            },
            {
              "internalType": "address",
              "name": "creator",
              "type": "address"
            },
            {
              "internalType": "address[]",
              "name": "voters",
              "type": "address[]"
            },
            {
              "internalType": "uint256",
              "name": "treasuryAmount",
              "type": "uint256"
            },
            {
              "internalType": "string",
              "name": "treasurySummary",
              "type": "string"
            }
          ],
          "internalType": "struct Models.Proposal",
          "name": "proposal",
          "type": "tuple"
        }
      ],
      "name": "createProposal",
      "outputs": [
        {
          "internalType": "uint256",
          "name": "proposalId",
          "type": "uint256"
        }
      ],
      "stateMutability": "nonpayable",
      "type": "function"
    },
    {
      "inputs": [
        {
          "internalType": "uint256",
          "name": "proposalId",
          "type": "uint256"
        }
      ],
      "name": "endProposal",
      "outputs": [],
      "stateMutability": "nonpayable",
      "type": "function"
    },
    {
      "inputs": [
        {
          "internalType": "uint256",
          "name": "proposalId",
          "type": "uint256"
        }
      ],
      "name": "executeProposal",
      "outputs": [
        {
          "internalType": "uint256",
          "name": "",
          "type": "uint256"
        }
      ],
      "stateMutability": "nonpayable",
      "type": "function"
    },
    {
      "inputs": [
        {
          "internalType": "uint256",
          "name": "proposalId",
          "type": "uint256"
        },
        {
          "internalType": "address",
          "name": "voter",
          "type": "address"
        },
        {
          "internalType": "enum Enums.VoteEntry",
          "name": "voteEntry",
          "type": "uint8"
        }
      ],
      "name": "voteProposal",
      "outputs": [],
      "stateMutability": "nonpayable",
      "type": "function"
    },
    {
      "inputs": [
        {
          "internalType": "uint256",
          "name": "proposalId",
          "type": "uint256"
        },
        {
          "internalType": "address",
          "name": "voter",
          "type": "address"
        }
      ],
      "name": "unVoteProposal",
      "outputs": [],
      "stateMutability": "nonpayable",
      "type": "function"
    },
    {
      "inputs": [
        {
          "internalType": "uint256",
          "name": "proposalId",
          "type": "uint256"
        }
      ],
      "name": "getProposal",
      "outputs": [
        {
          "components": [
            {
              "internalType": "string",
              "name": "metadata",
              "type": "string"
            },
            {
              "internalType": "uint256",
              "name": "createdOn",
              "type": "uint256"
            },
            {
              "internalType": "uint256",
              "name": "startedOn",
              "type": "uint256"
            },
            {
              "internalType": "uint256",
              "name": "endedOn",
              "type": "uint256"
            },
            {
              "internalType": "uint256",
              "name": "executedOn",
              "type": "uint256"
            },
            {
              "internalType": "address",
              "name": "creator",
              "type": "address"
            },
            {
              "internalType": "address[]",
              "name": "voters",
              "type": "address[]"
            },
            {
              "internalType": "uint256",
              "name": "treasuryAmount",
              "type": "uint256"
            },
            {
              "internalType": "string",
              "name": "treasurySummary",
              "type": "string"
            }
          ],
          "internalType": "struct Models.Proposal",
          "name": "",
          "type": "tuple"
        }
      ],
      "stateMutability": "view",
      "type": "function"
    },
    {
      "inputs": [],
      "name": "threshold",
      "outputs": [
        {
          "internalType": "uint16",
          "name": "",
          "type": "uint16"
        }
      ],
      "stateMutability": "view",
      "type": "function"
    },
    {
      "inputs": [],
      "name": "minVoting",
      "outputs": [
        {
          "internalType": "uint256",
          "name": "",
          "type": "uint256"
        }
      ],
      "stateMutability": "view",
      "type": "function"
    },
    {
      "inputs": [],
      "name": "minPropose",
      "outputs": [
        {
          "internalType": "uint256",
          "name": "",
          "type": "uint256"
        }
      ],
      "stateMutability": "view",
      "type": "function"
    },
    {
      "inputs": [],
      "name": "minDuration",
      "outputs": [
        {
          "internalType": "uint64",
          "name": "",
          "type": "uint64"
        }
      ],
      "stateMutability": "view",
      "type": "function"
    },
    {
      "inputs": [],
      "name": "earlyExecution",
      "outputs": [
        {
          "internalType": "bool",
          "name": "",
          "type": "bool"
        }
      ],
      "stateMutability": "view",
      "type": "function"
    },
    {
      "inputs": [
        {
          "internalType": "uint256",
          "name": "proposalId",
          "type": "uint256"
        }
      ],
      "name": "getVoteEntries",
      "outputs": [
        {
          "internalType": "address[]",
          "name": "",
          "type": "address[]"
        },
        {
          "internalType": "enum Enums.VoteEntry[]",
          "name": "",
          "type": "uint8[]"
        }
      ],
      "stateMutability": "view",
      "type": "function"
    },
    {
      "inputs": [
        {
          "internalType": "uint256",
          "name": "proposalId",
          "type": "uint256"
        }
      ],
      "name": "result",
      "outputs": [
        {
          "internalType": "uint256",
          "name": "agree",
          "type": "uint256"
        },
        {
          "internalType": "uint256",
          "name": "disagree",
          "type": "uint256"
        },
        {
          "internalType": "uint256",
          "name": "abstain",
          "type": "uint256"
        }
      ],
      "stateMutability": "view",
      "type": "function"
    },
    {
      "inputs": [],
      "name": "lastId",
      "outputs": [
        {
          "internalType": "uint256",
          "name": "",
          "type": "uint256"
        }
      ],
      "stateMutability": "view",
      "type": "function"
    }
  ],
  "bytecode": "0x608034610111576001600160401b03601f6116d438819003918201601f1916840191838311858410176101165780859260a0946040528339810103126101115781519061ffff8216820361011157602083015192604081015190606081015192831680930361011157608001518015158091036101115760015460008054336001600160a01b03198216811783556040519868ff00000000000000009694909390926001600160a01b0316907f8be0079c531659141344cd1fd0a4f28419497f9722a3daafe3b4186f6b6457e09080a36004549661ffff60a01b9060a01b169060018060b01b0319161760015560025560035560401b169160018060481b03191617176004556115a7908161012d8239f35b600080fd5b634e487b7160e01b600052604160045260246000fdfe6080604052600436101561001257600080fd5b60003560e01c80630d61b51914610f9c5780631c6d088d14610e365780633c59405914610e0557806342cde4e814610de05780635671576114610db9578063715018a614610d5457806379ba509714610c915780637e7b1d4214610c6b5780638da5cb5b14610c4257806392b3584b14610c24578063948ad00114610c06578063a07bd40014610bcb578063bda6b06e1461099c578063c1292cc31461097e578063c7f758a8146107cc578063e30c3978146107a3578063f2fde38b14610735578063fb870695146101d45763fdd27543146100ed57600080fd5b346101cf5760403660031901126101cf57600435610109611153565b90610112611267565b6000818152600660208181526040808420600783528185206001600160a01b039788168087529352908420805460ff1916905590910193915b845481101561019d578083808461016561017c958a61132c565b929054600393841b1c1614610181575b505061131d565b61014b565b61018b838961132c565b81939154921b1b191690558338610175565b7fc6144a45e022cb94c4885caaa3891357ba846b3180269552533eab99e88dd9076040838682519182526020820152a1005b600080fd5b346101cf576003196020368201126101cf576001600160401b03600435116101cf576101208091600435360301126101cf576040519081018181106001600160401b038211176105c857604052600435600401356001600160401b0381116101cf576102479060043691813501016111fa565b8152600435602481013560208301526044810135604083015260648101356060830152608481013560808301526102809060a401611169565b60a082015260c460043501356001600160401b0381116101cf5736602382600435010112156101cf5760048181350101356102ba81611250565b916102c860405193846111d9565b81835260208301903660248460051b83600435010101116101cf57906024826004350101915b60248460051b82600435010101831061071957858560c082015260e4600435013560e082015261010460043501356001600160401b0381116101cf5761033b9060043691813501016111fa565b610100820152610349611267565b6001600554019081600555606081015160408201518103908111610703576001600160401b03600454169062015180918083029283040361070357106106be5781600052600660205260406000209181519283516001600160401b0381116105c8576103b582546112bf565b601f811161068c575b506020601f8211600114610623578192939495600092610618575b50508160011b916000199060031b1c19161781555b602083015160018201556040830151600282015560608301516003820155608083015160048201556005810160018060a01b0360a0850151166001600160601b0360a01b82541617905560c08301518051906001600160401b0382116105c857600160401b82116105c8576020600684019182548484558085106105fb575b500190600052602060002060005b8381106105de5760e0870151600786015561010087015180519087600888016001600160401b0384116105c8576020936104b582546112bf565b601f811161058d575b508493601f821160011461052a57938192939460009261051f575b50508160011b916000199060031b1c19161790555b7fc2c021f5d73c63c481d336fbbafec58f694fc45095f00b02d2deb8cca59afe0782604051838152a1604051908152f35b0151905085806104d9565b601f1982169483600052866000209160005b87811061057657508360019596971061055d575b505050811b0190556104ee565b015160001960f88460031b161c19169055858080610550565b91928860018192868501518155019401920161053c565b6105b8908360005286600020601f840160051c8101918885106105be575b601f0160051c01906112f9565b856104be565b90915081906105ab565b634e487b7160e01b600052604160045260246000fd5b82516001600160a01b03168183015560209092019160010161047b565b6106129084600052858460002091820191016112f9565b8761046d565b0151905085806103d9565b8260005260206000209060005b601f1984168110610674575060019394959683601f1981161061065b575b505050811b0181556103ee565b015160001960f88460031b161c1916905585808061064e565b9091602060018192858b015181550193019101610630565b6106b890836000526020600020601f840160051c810191602085106105be57601f0160051c01906112f9565b856103be565b60405162461bcd60e51b815260206004820152601760248201527f564f54494e475f504552494f445f544f4f5f53484f52540000000000000000006044820152606490fd5b634e487b7160e01b600052601160045260246000fd5b60208060249361072886611169565b81520193019291506102ee565b346101cf5760203660031901126101cf576004356001600160a01b03818116918290036101cf57610764611267565b816001600160601b0360a01b6001541617600155600054167f38d16b8cac22d99fc7c124b9cd0de2d3fa1faef420bfe791d8c362d765e22700600080a3005b346101cf5760003660031901126101cf576001546040516001600160a01b039091168152602090f35b346101cf5760203660031901126101cf5760606101006040516107ee816111bd565b828152600060208201526000604082015260008382015260006080820152600060a08201528260c0820152600060e08201520152600435600052600660205260406000206108ab600860405192610844846111bd565b61084d8161135a565b84526001810154602085015260028101546040850152600381015460608501526004810154608085015260058101546001600160a01b031660a085015261089660068201611400565b60c0850152600781015460e08501520161135a565b610100820152604051602081526108d08251610120602084015261014083019061117d565b602083015160408301526040830151606083015260608301516080830152608083015160a083015260018060a01b0360a08401511660c083015260c083015192601f1991828482030160e08501526020808651928381520195019060005b81811061095f57858061095b89886101008960e0810151828701520151908483030161012085015261117d565b0390f35b82516001600160a01b031687526020968701969092019160010161092e565b346101cf5760003660031901126101cf576020600554604051908152f35b346101cf5760603660031901126101cf576004356109b8611153565b906044803591600392838110156101cf576109d1611267565b81600052602091600683526040600020926002840154421115610b8f5742868501541115610b59576004840154610b165760069390930180546001600160a01b039788169591949160005b828110610abc5750505081600052600781526040600020856000528152604060002060ff1981541660ff8516179055835496600160401b8810156105c85785606097610a928a610ab99860017f4c68323514d6b86d416ee2a5e60ce9be8500a4df7577ee6078da86f2934421589d01815561132c565b81949154921b90811b9283911b169119161790556040519485528401526040830190611146565ba1005b878a610ac8838a61132c565b9054908c1b1c1614610ae257610add9061131d565b610a1c565b60405162461bcd60e51b815260048101859052600d60248201526c1053149150511657d593d51151609a1b81840152606490fd5b6064907f50524f504f53414c5f4841535f4245454e5f4558454355544544000000000000866040519262461bcd60e51b84526004840152601a6024840152820152fd5b6064906f1593d5125391d7d21054d7d15391115160821b866040519262461bcd60e51b8452600484015260106024840152820152fd5b606490751593d5125391d7d21054d7d393d517d4d5105495115160521b866040519262461bcd60e51b8452600484015260166024840152820152fd5b346101cf5760203660031901126101cf57610be4611267565b6004356000526006602052600360406000200180544211610c0157005b429055005b346101cf5760003660031901126101cf576020600254604051908152f35b346101cf5760003660031901126101cf576020600354604051908152f35b346101cf5760003660031901126101cf576000546040516001600160a01b039091168152602090f35b346101cf5760003660031901126101cf57602060ff60045460401c166040519015158152f35b346101cf5760003660031901126101cf576001546001600160a01b033381831603610cfd576001600160601b0360a01b8092166001556000549133908316176000553391167f8be0079c531659141344cd1fd0a4f28419497f9722a3daafe3b4186f6b6457e0600080a3005b60405162461bcd60e51b815260206004820152602960248201527f4f776e61626c6532537465703a2063616c6c6572206973206e6f7420746865206044820152683732bb9037bbb732b960b91b6064820152608490fd5b346101cf5760003660031901126101cf57610d6d611267565b600180546001600160a01b0319908116909155600080549182168155906001600160a01b03167f8be0079c531659141344cd1fd0a4f28419497f9722a3daafe3b4186f6b6457e08280a3005b346101cf5760003660031901126101cf5760206001600160401b0360045416604051908152f35b346101cf5760003660031901126101cf57602061ffff60015460a01c16604051908152f35b346101cf5760203660031901126101cf576060610e2360043561146c565b9060405192835260208301526040820152f35b346101cf576020806003193601126101cf576004358060005260068252610e636006604060002001611400565b805192610e88610e7285611250565b94610e8060405196876111d9565b808652611250565b8482019390601f190136853760005b8351811015610f0957600082815260078452604090206001600160a01b03610ebf8387611458565b5116600052835260ff6040600020541690610eda8188611458565b916003811015610ef357610eee925261131d565b610e97565b634e487b7160e01b600052602160045260246000fd5b50506040805181815283519181018290529485949360608601929084019060005b818110610f7c575050508482038584015251808252908201929160005b828110610f5657505050500390f35b9193839550908082610f6c600194839751611146565b0195019101918594939192610f47565b82516001600160a01b031685528897509385019391850191600101610f2a565b346101cf576020806003193601126101cf57600435610fb9611267565b806000526006825260406000209060048201805461110e57610fea90610fef610fe18461146c565b91949085611310565b611310565b9060ff60045460401c16156110c9575b60038501805442116110c0575b504290556064820291808304606414901517156107035780156110aa5761ffff60015460a01c1691041061107157907f712ae1383f79ac853f8d882153778e0260ef8f03b504e2866e0593e04d2b291f83600793604051908152a10154604051908152f35b60405162461bcd60e51b81526004810184905260116024820152701512149154d213d31117d393d517d35155607a1b6044820152606490fd5b634e487b7160e01b600052601260045260246000fd5b4290558661100c565b60038501544211610fff5760405162461bcd60e51b8152600481018790526012602482015271141493d413d4d05317d393d517d15391115160721b6044820152606490fd5b60405162461bcd60e51b815260048101859052601060248201526f1053149150511657d1561150d555115160821b6044820152606490fd5b906003821015610ef35752565b602435906001600160a01b03821682036101cf57565b35906001600160a01b03821682036101cf57565b919082519283825260005b8481106111a9575050826000602080949584010152601f8019910116010190565b602081830181015184830182015201611188565b61012081019081106001600160401b038211176105c857604052565b90601f801991011681019081106001600160401b038211176105c857604052565b81601f820112156101cf578035906001600160401b0382116105c8576040519261122e601f8401601f1916602001856111d9565b828452602083830101116101cf57816000926020809301838601378301015290565b6001600160401b0381116105c85760051b60200190565b6000546001600160a01b0316330361127b57565b606460405162461bcd60e51b815260206004820152602060248201527f4f776e61626c653a2063616c6c6572206973206e6f7420746865206f776e65726044820152fd5b90600182811c921680156112ef575b60208310146112d957565b634e487b7160e01b600052602260045260246000fd5b91607f16916112ce565b818110611304575050565b600081556001016112f9565b9190820180921161070357565b60001981146107035760010190565b80548210156113445760005260206000200190600090565b634e487b7160e01b600052603260045260246000fd5b906040519182600082549261136e846112bf565b9081845260019485811690816000146113dd575060011461139a575b5050611398925003836111d9565b565b9093915060005260209081600020936000915b8183106113c55750506113989350820101388061138a565b855488840185015294850194879450918301916113ad565b91505061139894506020925060ff191682840152151560051b820101388061138a565b9060405191828154918282526020928383019160005283600020936000905b82821061143557505050611398925003836111d9565b85546001600160a01b03168452600195860195889550938101939091019061141f565b80518210156113445760209160051b010190565b9060009160008080838152602060068152604061148d600682852001611400565b83985b81518a1015611566576001600160a01b036114ab8b84611458565b5116888652600790818652848720818852865260ff908186892054169260039384811015611552576114f357505050506114e76114ed9161131d565b9961131d565b98611490565b8b899e9b959e528752858820908852865284872054169081101561153e5760010361152a576115246114ed9161131d565b9661131d565b95946115386114ed9161131d565b9561131d565b634e487b7160e01b86526021600452602486fd5b634e487b7160e01b8a52602160045260248afd5b98505050505091509156fea2646970667358221220a188614aebfdfe7c60eeece3837a7a6e2d4b790041c3833a9240d182e067698664736f6c63430008110033",
  "immutableReferences": {},
  "source": "// SPDX-License-Identifier: MIT\r\npragma solidity ^0.8.17;\r\n\r\nimport \"./libraries/Enums.sol\";\r\nimport \"./libraries/Models.sol\";\r\n\r\nimport \"./interfaces/IGovernance.sol\";\r\n\r\nimport \"@openzeppelin/contracts/access/Ownable2Step.sol\";\r\nimport \"@openzeppelin/contracts/utils/Counters.sol\";\r\n\r\ncontract SpaceGovernance is Ownable2Step, IGovernance {\r\n    using Counters for Counters.Counter;\r\n\r\n    uint256 private constant ONE_DAY = 24 * 60 * 60;\r\n\r\n    uint16 private _threshold = 50; // default\r\n    uint256 private _minVoting = 1;\r\n    uint256 private _minPropose = 1;\r\n    uint64 private _minDuration = 5;\r\n    bool private _earlyExecution;\r\n\r\n    Counters.Counter private _proposalId;\r\n\r\n    mapping(uint256 => Models.Proposal) private _proposals;\r\n    mapping(uint256 => mapping(address => Enums.VoteEntry))\r\n        private _voteEntries;\r\n\r\n    constructor(\r\n        uint16 threshold_,\r\n        uint256 minVoting_,\r\n        uint256 minPropose_,\r\n        uint64 minDuration_,\r\n        bool earlyExecution_\r\n    ) Ownable2Step() {\r\n        _threshold = threshold_;\r\n        _minVoting = minVoting_;\r\n        _minPropose = minPropose_;\r\n        _minDuration = minDuration_;\r\n        _earlyExecution = earlyExecution_;\r\n    }\r\n\r\n    event ProposalCreated(uint256 proposalId);\r\n    event ProposalVoted(\r\n        address voter,\r\n        uint256 proposalId,\r\n        Enums.VoteEntry voteEntry\r\n    );\r\n    event ProposalExecuted(uint256 proposalId);\r\n\r\n    event ProposalUnVoted(address voter, uint256 proposalId);\r\n\r\n    // STATE CHANGING FUNCTIONS\r\n\r\n    function createProposal(\r\n        Models.Proposal memory proposal\r\n    ) external override onlyOwner returns (uint256 proposalId) {\r\n        _proposalId.increment();\r\n        proposalId = _proposalId.current();\r\n\r\n        require(\r\n            (proposal.endedOn - proposal.startedOn) >= (ONE_DAY * _minDuration),\r\n            \"VOTING_PERIOD_TOO_SHORT\"\r\n        );\r\n\r\n        _proposals[proposalId] = proposal;\r\n\r\n        emit ProposalCreated(proposalId);\r\n    }\r\n\r\n    function endProposal(uint256 proposalId) external override onlyOwner {\r\n        Models.Proposal storage proposal = _proposals[proposalId];\r\n\r\n        if (proposal.endedOn < block.timestamp) {\r\n            proposal.endedOn = block.timestamp;\r\n        }\r\n    }\r\n\r\n    function executeProposal(\r\n        uint256 proposalId\r\n    ) external override onlyOwner returns (uint256) {\r\n        Models.Proposal storage proposal = _proposals[proposalId];\r\n\r\n        require(proposal.executedOn == 0, \"ALREADY_EXECUTED\");\r\n\r\n        (uint256 agree, uint256 disagree, uint256 abstain) = result(proposalId);\r\n        uint256 totalVotes = (agree + disagree + abstain);\r\n\r\n        if (!_earlyExecution) {\r\n            require(proposal.endedOn < block.timestamp, \"PROPOSAL_NOT_ENDED\");\r\n        }\r\n\r\n        if (proposal.endedOn < block.timestamp) {\r\n            proposal.endedOn = block.timestamp;\r\n        }\r\n\r\n        proposal.executedOn = block.timestamp;\r\n\r\n        require(\r\n            ((agree * 100) / totalVotes) >= _threshold,\r\n            \"THRESHOLD_NOT_MET\"\r\n        );\r\n\r\n        emit ProposalExecuted(proposalId);\r\n\r\n        return proposal.treasuryAmount;\r\n    }\r\n\r\n    function voteProposal(\r\n        uint256 proposalId,\r\n        address voter,\r\n        Enums.VoteEntry voteEntry\r\n    ) external override onlyOwner {\r\n        Models.Proposal storage proposal = _proposals[proposalId];\r\n\r\n        require(proposal.startedOn < block.timestamp, \"VOTING_HAS_NOT_STARTED\");\r\n        require(proposal.endedOn > block.timestamp, \"VOTING_HAS_ENDED\");\r\n        require(proposal.executedOn == 0, \"PROPOSAL_HAS_BEEN_EXECUTED\");\r\n\r\n        for (uint256 index = 0; index < proposal.voters.length; index++) {\r\n            if (proposal.voters[index] == voter) {\r\n                revert(\"ALREADY_VOTED\");\r\n            }\r\n        }\r\n\r\n        _voteEntries[proposalId][voter] = voteEntry;\r\n        proposal.voters.push(voter);\r\n\r\n        emit ProposalVoted(voter, proposalId, voteEntry);\r\n    }\r\n\r\n    function unVoteProposal(\r\n        uint256 proposalId,\r\n        address voter\r\n    ) external override onlyOwner {\r\n        Models.Proposal storage proposal = _proposals[proposalId];\r\n\r\n        delete _voteEntries[proposalId][voter];\r\n\r\n        for (uint256 index = 0; index < proposal.voters.length; index++) {\r\n            if (proposal.voters[index] == voter) {\r\n                delete proposal.voters[index];\r\n            }\r\n        }\r\n\r\n        emit ProposalUnVoted(voter, proposalId);\r\n    }\r\n\r\n    // STATE VIEWING FUNCTIONS\r\n\r\n    function getProposal(\r\n        uint256 proposalId\r\n    ) external view override returns (Models.Proposal memory) {\r\n        return _proposals[proposalId];\r\n    }\r\n\r\n    function threshold() external view returns (uint16) {\r\n        return _threshold;\r\n    }\r\n\r\n    function minVoting() external view returns (uint256) {\r\n        return _minVoting;\r\n    }\r\n\r\n    function minPropose() external view returns (uint256) {\r\n        return _minPropose;\r\n    }\r\n\r\n    function minDuration() external view returns (uint64) {\r\n        return _minDuration;\r\n    }\r\n\r\n    function earlyExecution() external view returns (bool) {\r\n        return _earlyExecution;\r\n    }\r\n\r\n    function getVoteEntries(\r\n        uint256 proposalId\r\n    ) external view returns (address[] memory, Enums.VoteEntry[] memory) {\r\n        address[] memory voters = _proposals[proposalId].voters;\r\n        Enums.VoteEntry[] memory voteEntries = new Enums.VoteEntry[](\r\n            voters.length\r\n        );\r\n\r\n        for (uint256 index = 0; index < voters.length; index++) {\r\n            voteEntries[index] = _voteEntries[proposalId][voters[index]];\r\n        }\r\n\r\n        return (voters, voteEntries);\r\n    }\r\n\r\n    function result(\r\n        uint256 proposalId\r\n    ) public view returns (uint256 agree, uint256 disagree, uint256 abstain) {\r\n        address[] memory voters = _proposals[proposalId].voters;\r\n\r\n        for (uint256 index = 0; index < voters.length; index++) {\r\n            address voter = voters[index];\r\n\r\n            if (_voteEntries[proposalId][voter] == Enums.VoteEntry.Agree) {\r\n                agree++;\r\n            } else if (\r\n                _voteEntries[proposalId][voter] == Enums.VoteEntry.Disagree\r\n            ) {\r\n                disagree++;\r\n            } else {\r\n                abstain++;\r\n            }\r\n        }\r\n    }\r\n\r\n    function lastId() external view returns (uint256) {\r\n        return _proposalId.current();\r\n    }\r\n}\r\n",
  "sourcePath": "C:\\Users\\DELL\\Documents\\space\\solidity\\contracts\\SpaceGovernance.sol",
  "compiler": {
    "name": "solc",
    "version": "0.8.17+commit.8df45f5f.Emscripten.clang"
  },
  "schemaVersion": "3.4.11",
  "updatedAt": "2023-09-27T08:27:53.278Z",
  "devdoc": {
    "kind": "dev",
    "methods": {
      "acceptOwnership()": {
        "details": "The new owner accepts the ownership transfer."
      },
      "owner()": {
        "details": "Returns the address of the current owner."
      },
      "pendingOwner()": {
        "details": "Returns the address of the pending owner."
      },
      "renounceOwnership()": {
        "details": "Leaves the contract without owner. It will not be possible to call `onlyOwner` functions. Can only be called by the current owner. NOTE: Renouncing ownership will leave the contract without an owner, thereby disabling any functionality that is only available to the owner."
      },
      "transferOwnership(address)": {
        "details": "Starts the ownership transfer of the contract to a new account. Replaces the pending transfer if there is one. Can only be called by the current owner."
      }
    },
    "version": 1
  },
  "userdoc": {
    "kind": "user",
    "methods": {},
    "version": 1
  }
}